:100000000C94CA000C94E7000C94E7000C94E700F1
:100010000C94E7000C94E7000C94E7000C94E700C4
:100020000C94E7000C94E7000C94E7000C94E700B4
:100030000C94E7000C94E7000C94E7000C94E700A4
:100040000C94AD0A0C94BC0A0C94CB0A0C94E700F7
:100050000C94BE060C94E7000C94EE060C94E7009A
:100060000C94E7000C94E7000C94E7000C94E70074
:100070000C94B3080C94E7000C94E3087E0A820AFF
:10008000860A8A0A8E0A920A960A9A0A9E0AA20A80
:10009000A60A6E616E00696E660000407A10F35A1F
:1000A00000A0724E18090010A5D4E80000E87648B8
:1000B000170000E40B54020000CA9A3B000000E164
:1000C000F505000080969800000040420F000000F7
:1000D000A08601000000102700000000E8030000D7
:1000E00000006400000000000A00000000000100A1
:1000F000000000002C76D888DC674F0823DFC1DFC2
:10010000AE59E1B1B796E5E3E453C63AE6519976C4
:1001100096E8E6C28426EB898C9B62ED407C6FFCFE
:10012000EFBC9C9F40F2BAA56FA5F490055A2AF740
:100130005C936B6CF9676DC11BFCE0E40D47FEF549
:1001400020E6B500D0ED902E0300943577050080B1
:10015000841E080000204E0A000000C80C33333310
:10016000330F986E12831141EF8D2114893BE655B0
:1001700016CFFEE6DB18D1844B381BF77C1D901D93
:10018000A4BBE424203284725E228100C9F124ECF5
:10019000A1E53D2711241FBECFEFD0E1DEBFCDBFCB
:1001A00014E0A0E0B1E0EAE2F1E202C005900D92B5
:1001B000A030B107D9F728E0A0E0B4E001C01D925B
:1001C000A539B207E1F70E94FD0A0C9493100C9434
:1001D000000087E880937A0010927B008FEF809375
:1001E0007E0010927C0010921D0410921C04089551
:1001F000877080937C0086EF8A95F1F7EAE7F0E05C
:10020000808180648083808186FDFDCF809178002D
:10021000909179000895EEE1F4E084E1808385E037
:100220008183A5EEB7E08C91848311968C91119710
:10023000858312968C918683809100048783CF01F9
:100240000E94040808950E947D038F3019F08E3FAC
:10025000A9F0089580917904883048F40E94F8004C
:10026000AC0160E070E084E60E946703089540E01E
:1002700050E0BA0183E00E946703089580917904F9
:10028000813069F028F08230B1F08330D9F00895E0
:1002900040E050E0BA0184E60E946703089580912F
:1002A00011044091060450E060E070E0582B84E6B1
:1002B0000E946703089510921104109206040E9490
:1002C000680608950E940B010895809143048823D5
:1002D000C1F080913A0481110EC0EAE3F4E0A7E78F
:1002E000B4E023E434E081918D93E217F307D9F76A
:1002F0000E94230104C08AE394E00E94310A109214
:100300004304089580913004882331F087E294E01B
:100310000E9404081092300408958091050484FF1F
:1003200005C0809105048F7E8093050480910504AB
:1003300083FF11C00E94E207DC01EAE3F4E023E45A
:1003400034E08D918193E217F307D9F70E94F30708
:1003500081E080934304089580913004811114C09A
:1003600080910304882381F010920304A7E6B4E08F
:10037000E7E2F4E020E334E08D918193E217F307A4
:10038000D9F781E08093300408958091100484FFB0
:100390000AC0809110048F7E809310048091000425
:1003A000805F809300048091300481111AC0809195
:1003B000100483FF16C0809100048F5F80930004B7
:1003C0000E94030ADC01E7E2F4E020E334E08D91CF
:1003D0008193E217F307D9F70E94200A81E0809306
:1003E00030040895109230041092430408950E943E
:1003F0008D010E9465010E94AC010E94C5010E940E
:1004000082010895CF93DF931F92CDB7DEB7198293
:100410008981811107C0000089818F5F898389816B
:100420008823C9F30F90DF91CF9108958FEF84B99E
:1004300088EF87B988B1886F88B9089514B846984D
:100440000E94020283B19FEF94B9469A0895CF9318
:10045000C82F0E941E028370E1F3C5B947980E941D
:100460000202479ACF910895CF93C82F0E941E028F
:100470008370E1F3C5B988B18F7588B90E94020213
:1004800088B1806A88B9CF910895CF93C92F0E940F
:1004900034028C2F0E94340284E20E942702CF9102
:1004A00008950E94340280EC0E9427020895CF93A1
:1004B000DF9380E090E00E944502C0EED1E080E052
:1004C0000E9451022197D9F7DF91CF910895CF93E0
:1004D000DF9380E090E10E944502C0E0D8E080E038
:1004E0000E9451022197D9F7DF91CF910895CF93C0
:1004F000DF9380EE91E00E944502C0E0DFE080E003
:100500000E9451022197D9F7DF91CF9108958695E6
:100510008695869590E080529E4F2EE1629F800DD9
:10052000911D11240E94450208958F929F92AF92CF
:10053000BF92CF92DF92EF92FF920F931F93CF93D0
:10054000DF93002341F1142FA62EB22EB694B69459
:10055000B694C82ED92E040F88248A948B0C912C23
:100560008FEF881A980A612F8A2D0E948702BB207C
:1005700061F07401EC0CFD1CE601FE0184910E9407
:1005800051022196CE15DF05C1F71F5FFEE1CF0EA8
:10059000D11C1013E8CFDF91CF911F910F91FF90E5
:1005A000EF90DF90CF90BF90AF909F908F90089585
:1005B0000E941602449889EF90E00197F1F700C07D
:1005C0000000449A439880EE0E94340281E00E9429
:1005D000340282E40E9427028EE10E94340280E00D
:1005E0000E94340283E40E94270280E00E943402C9
:1005F00080E00E94340280E40E9427028EE10E9483
:10060000340280E00E94340281E40E94270282E0EA
:100610000E94340280E00E94340282E20E9427029B
:100620008CE90E94270280E80E942702089580E951
:1006300087BD84E688BD82E084BD85E085BDEEE6A9
:10064000F0E08081826080830895E7E6F4E02FE6A1
:1006500034E080E09191890FE217F307D9F7809396
:100660006F040895CF93DF93EC01909381048093FE
:10067000800445E050E0BC0180E794E00E945910FE
:1006800080917004823489F0E0E7F4E082E48083B2
:1006900084E0818381E08283138282E0848345E069
:1006A00050E0BE01CF010E947B10E0910104F09167
:1006B0000204309719F080917104099580917404B7
:1006C0008093820410927604DF91CF910895E7E63B
:1006D000F4E09091820490839091760491838283D8
:1006E00080917804838374836583568347830E9453
:1006F000250381E08093030408950F931F93CF9304
:10070000DF931F92CDB7DEB7E7E7F4E08481458140
:1007100050E060E070E0BA0155274427782B8781CC
:10072000482B8681582B4093630450936404609354
:1007300065047093660411811A3009F448C288F484
:10074000143009F4BEC228F4113001F1123029F13D
:10075000B1C2163009F470C038F1193009F496C1ED
:10076000A9C21F3009F420C138F41D3009F4A9C210
:100770001E3009F4DAC09EC2183809F46CC21E3F5C
:1007800009F49FC2113209F095C287C240E050E0DF
:10079000BA0184E60E94670394C240E050E0BA01C7
:1007A00084E60E9467038DC210917A04112341F000
:1007B00040E050E0BA0184E00E94670310E081C28B
:1007C000809179048630E9F028F4843041F0853056
:1007D00079F02BC08730F1F08C3829F126C0409396
:1007E0004E0450934F0460935004709351041DC005
:1007F00040935204509353046093540470935504EF
:1008000014C0409356045093570460935804709357
:1008100059040BC040935A0450935B0460935C04EA
:1008200070935D0402C040935E0440E050E0BA0162
:1008300084E60E94670345C210917A04112341F0B7
:1008400040E050E0BA0184E00E94670310E039C242
:1008500080917904863049F130F48430F1F1C8F4A4
:10086000813059F05BC08C3809F443C0843C09F4F2
:1008700049C0873009F052C024C040914A045091C9
:100880004B0460914C0470914D0484E60E94670310
:1008900018C24091520450915304609154047091D5
:1008A000550484E60E9467030CC24091560450919F
:1008B0005704609158047091590484E60E946703BC
:1008C00000C240915A0450915B0460915C047091A5
:1008D0005D0484E60E946703F4C140914E04509188
:1008E0004F04609150047091510484E60E946703A4
:1008F000E8C140915E0450E060E070E084E60E9450
:100900006703DFC140915F0450916004609161040E
:100910007091620484E60E946703D3C140E050E016
:10092000BA0184E00E946703CCC180917A048230CE
:1009300039F040E050E0BA0184E00E946703C1C191
:1009400080917904882319F08130A1F026C091E0CC
:10095000452B462B472B09F490E08091450490FBF2
:1009600080F98093450440E050E0BA0184E60E949B
:100970006703A7C191E0452B462B472B09F490E074
:100980008091450490FB81F98093450440E050E05C
:10099000BA0184E60E94670394C140E050E0BA01C6
:1009A00084E00E9467038DC100917A04013009F44C
:1009B00088C128F0023009F444C010E082C11091CF
:1009C0007904113081F028F01230C9F0133021F190
:1009D00030C040917504417050E060E070E084E602
:1009E0000E9467036EC1409175044695417050E0C6
:1009F00060E070E084E60E946703102F62C14091BE
:100A0000750442FB442740F950E060E070E084E662
:100A10000E946703102F55C14091750443FB442782
:100A200040F950E060E070E084E60E946703102F18
:100A300048C140E050E0BA0184E00E946703102FF3
:100A400040C110917904112319F0113059F016C0EA
:100A500040914504417050E060E070E084E60E94FF
:100A600067032FC1409145044695417050E060E016
:100A700070E084E60E94670310E023C140E050E08C
:100A8000BA0184E00E94670310E01BC110917A0450
:100A9000112341F040E050E0BA0184E00E94670376
:100AA00010E00FC180917904813451F118F4803441
:100AB00041F086C0823409F443C08C3409F460C02C
:100AC0007FC08091700490E0A0E0B0E04817590723
:100AD0006A077B0771F0E0E7F4E0408319826081E8
:100AE00029818091800490918104820F911D0E9440
:100AF000691040E050E0BA0184E60E946703E1C05B
:100B00008091710490E0A0E0B0E0481759076A07AF
:100B10007B0779F0E0E7F4E0418381E0898361813C
:100B200029818091800490918104820F911D0E94FF
:100B3000691040E050E0BA0184E60E946703C1C03A
:100B40008091720490E0A0E0B0E0481759076A076E
:100B50007B0779F0E0E7F4E0428382E089836281F9
:100B600029818091800490918104820F911D0E94BF
:100B7000691040E050E0BA0184E60E946703A1C01A
:100B80008091740490E0A0E0B0E0481759076A072C
:100B90007B0779F0E0E7F4E0448384E089836481B3
:100BA00029818091800490918104820F911D0E947F
:100BB000691040E050E0BA0184E60E94670381C0FA
:100BC00040E050E0BA0184E00E9467037AC01091CF
:100BD0007A04112341F040E050E0BA0184E00E9421
:100BE000670310E06EC080917904813449F018F4F5
:100BF000803409F129C0823461F08C3499F024C02A
:100C00004091710450E060E070E084E60E94670368
:100C100058C04091720450E060E070E084E60E94A9
:100C200067034FC04091740450E060E070E084E6D8
:100C30000E94670346C04091700450E060E070E09D
:100C400084E60E9467033DC040E050E0BA0184E0C2
:100C50000E94670336C010917904111115C0E7E6B0
:100C6000F4E080918204808381E3818390E3928326
:100C700022E32383848336E5358386832783908725
:100C800081E0809303041DC040E450E360E270E122
:100C900084E60E94670310E014C087E090E00E94A1
:100CA000F800AC01990F660B770B84E60E9467038E
:100CB00010E007C040E050E0BA0182E00E94670304
:100CC00010E0812F0F90DF91CF911F910F91089528
:100CD00040E050E0BA0184E60E94670308959091D5
:100CE0000E049F5F9F77E92FF0E0E455FA4F808173
:100CF00090930E04089590910D049F5F9F77E92FC4
:100D0000F0E0E455FA4F808390930D04089590919C
:100D10000C04E92FF0E0ED57FB4F80819F5F90932B
:100D20000C0408958091050480FD0BC0809105049A
:100D300081608093050410920C040E9487068093C2
:100D4000C6000895882331F0E1ECF0E080818068EE
:100D500080830895E1ECF0E080818F7780830895AF
:100D6000882331F0E1ECF0E0808180648083089595
:100D7000E1ECF0E080818F7B808308951F920F92D9
:100D80000FB60F9211242F933F934F935F936F935E
:100D90007F938F939F93AF93BF93EF93FF9385E0E0
:100DA000809307048091C00090910604892B809362
:100DB00006048091C6000E947B06FF91EF91BF91CF
:100DC000AF919F918F917F916F915F914F913F91E3
:100DD0002F910F900FBE0F901F9018951F920F929A
:100DE0000FB60F9211242F933F934F935F936F93FE
:100DF0007F938F939F93AF93BF93EF93FF938091D4
:100E0000050480FF0EC080910C04893030F0809181
:100E100005048E7F8093050404C00E94870680939A
:100E2000C600FF91EF91BF91AF919F918F917F91FC
:100E30006F915F914F913F912F910F900FBE0F9047
:100E40001F90189587E08093C400E1ECF0E080816A
:100E50008861808381E00E94A20681E00E94B00642
:100E6000109206040895CF92DF92FF920F931F9382
:100E7000CF93DF9380910B0490910A04981741F16E
:100E80009091050490FD24C08F5F482F4F71842FEF
:100E900090E09C01220F331F220F331F220F331FBC
:100EA000280F391F245D394FB901675F7F4FF90162
:100EB000DF01A21BB30B8191AD57BB4F8C93E6179B
:100EC000F707B1F740930B0410920C040E949206AE
:100ED0008091050483FD56C080910D0490910E040D
:100EE000891B8F77893008F44DC0F090080481E0A9
:100EF0008F0D8F71F82E082F10E0E801CC0FDD1F49
:100F0000CC0FDD1FCC0FDD1FC00FD11FC457DB4F2F
:100F10006E0189E0C80ED11C0E946F068993CC1522
:100F2000DD05D1F7EF2DF0E0CF01880F991F880F75
:100F3000991F880F991FE80FF91FE457FB4F90E0A6
:100F400080E02191920F8F5F8830D9F7F801EE0F82
:100F5000FF1FEE0FFF1FEE0FFF1F0E0F1F1FF801E9
:100F6000E457FB4F8085891308C080910504886091
:100F700080930504F092080405C080910504806107
:100F800080930504DF91CF911F910F91FF90DF9027
:100F9000CF90089580910704882341F08091070441
:100FA00081508093070410920404089580910404F2
:100FB000811107C080910D0480930E0481E080931D
:100FC00004040895809109048F5F8F7190E09C0163
:100FD000220F331F220F331F220F331F820F931F45
:100FE00084579B4F0895909109049F5F9F71909340
:100FF000090480910804891B8F7129F490910504DC
:10100000977F90930504089540910A044F5F4F71B4
:10101000DC01242F30E0F901EE0FFF1FEE0FFF1F60
:10102000EE0FFF1FE20FF31FE45DF94F2F5F3F4FFD
:10103000C901880F991F880F991F880F991F280FC2
:10104000391F245D394F8D918193E217F307D9F74A
:1010500040930A0408958091190490911A04891B01
:101060008F7108959091190480911A04981307C004
:1010700080910F04886080930F0480E00895909120
:101080001A049F5F9F71E92FF0E0EB58F74F8081C2
:1010900090931A0408952091190440911A0430E0A5
:1010A0002F5F3F4F2F71332750E02417350731F45E
:1010B00080910F04846080930F0408959091190427
:1010C0009F5F9F71E92FF0E0EB58F74F808390937B
:1010D0001904089580911804893038F080910F0424
:1010E000826080930F0480E00895E0911804F0E09E
:1010F000E45BF84F8081909118049F5F90931804EF
:1011000008958091100480FD11C0809110048160C9
:1011100080931004E9ECF0E080818F7E80835C9AFC
:10112000109218040E946A088093CE0008958823C4
:1011300031F0E9ECF0E08081806880830895E9EC8B
:10114000F0E080818F7780830895882331F0E9EC87
:10115000F0E08081806480830895E9ECF0E0808194
:101160008F7B808308951F920F920FB60F921124E8
:101170002F933F934F935F936F937F938F939F939F
:10118000AF93BF93EF93FF9385E080931304809117
:10119000C80090911104892B809311048091CE0096
:1011A0000E944B08FF91EF91BF91AF919F918F915A
:1011B0007F916F915F914F913F912F910F900FBE53
:1011C0000F901F9018951F920F920FB60F92112437
:1011D0002F933F934F935F936F937F938F939F933F
:1011E000AF93BF93EF93FF938091100480FF1CC0D7
:1011F000809118048930A0F0809110048E7F809334
:10120000100482E380931204809110048460809320
:1012100010045C98E9ECF0E080818061808304C078
:101220000E946A088093CE00FF91EF91BF91AF9129
:101230009F918F917F916F915F914F913F912F91EE
:101240000F900FBE0F901F90189587E18093CC00F0
:10125000E9ECF0E080818861808381E00E9497085A
:1012600081E00E94A508109211040895BF92CF92C8
:10127000DF92EF92FF920F931F93CF93DF938091B2
:10128000170490911604981759F19091100490FD4D
:1012900027C09091100492FD23C08F5F8F70282F7C
:1012A00030E0A901440F551F440F551F440F551F2F
:1012B000240F351F2B5A384F80931704A901475F1D
:1012C0005F4FF901DF01A21BB30B8191A45BB84F03
:1012D0008C93E417F507B1F7109218040E94810867
:1012E0008091100483FD64C00E942B08893008F4AB
:1012F0005FC0B090140481E08B0D8F70B82EE82E83
:10130000F12CE701CC0FDD1FCC0FDD1FCC0FDD1F53
:10131000CE0DDF1DCB51D84F2FEFE21AF20AC701D5
:10132000880F991F880F991F880F991F8E0D9F1D79
:101330009C012B51384F7901CB2CD12C86010E9476
:1013400032088993CE15DF05C9F7B0921404F6016F
:10135000EE0FFF1FEE0FFF1FEE0FFF1FEC0DFD1D29
:10136000EB51F84F90E080E02191920F8F5F883031
:10137000D9F7F801EE0FFF1FEE0FFF1FEE0FFF1F53
:101380000E0F1F1FF801EB51F84F808589130BC01A
:1013900080911004886080931004809110048B7FEA
:1013A0008093100405C08091100480618093100424
:1013B000DF91CF911F910F91FF90EF90DF90CF9031
:1013C000BF9008958091100482FF0EC08091120496
:1013D00081508093120480911204811105C0809184
:1013E00010048B7F8093100480911304882331F0C4
:1013F00080911304815080931304089580911904FF
:1014000080931A0408958091150490911404981300
:1014100008C080910F04806880930F0480E090E002
:1014200008958F5F8F7090E09C01220F331F220F71
:10143000331F220F331F820F931F8B51984F089534
:10144000909115049F5F9F709093150480911404F0
:10145000891B8F7029F490911004977F909310044A
:101460000895CF93DF93FC0140911604842F90E000
:1014700001968F7099272091170430E08217930707
:1014800031F480910F04806180930F042BC04F5F73
:101490004F70842F90E0DC01AA0FBB1FAA0FBB1F67
:1014A000AA0FBB1FA80FB91FAB5AB84FEF01289660
:1014B00080E0642F70E09B0190819D939191890F52
:1014C000EC17FD07C1F7FB01EE0FFF1FEE0FFF1F2B
:1014D000EE0FFF1F2E0F3F1FF901EB5AF84F8087C9
:1014E00040931604DF91CF91089590E08B309105E1
:1014F00080F5FC01E25CFF4F0C94980E8FE5809321
:10150000CC0008958FE38093CC0008958FE2809300
:10151000CC0008958FE18093CC00089587E18093FB
:10152000CC0008958FE08093CC0008958BE08093E9
:10153000CC00089587E08093CC00089583E08093E9
:10154000CC00089582E08093CC0008951092CC00E6
:1015500008958FE28093CC0008951F920F920FB6EA
:101560000F9211248F9381E080931B048F910F9031
:101570000FBE0F901F9018951F920F920FB60F92EB
:1015800011248F9381E080931B048F910F900FBEE5
:101590000F901F9018951F920F920FB60F92112463
:1015A0008F9381E080931B048F910F900FBE0F905B
:1015B0001F90189580911B04882331F010921B0412
:1015C0000E94CA070E94E20908958AE18AB90E942E
:1015D00022070E9425090E94E9000E94170385E75F
:1015E0009AE0909302048093010480E190E00E94CD
:1015F00032030E94F201789408950E94E50A0E9445
:10160000D8020E9457020E9467020E94770200E4FB
:1016100010E020E630E040E050E060E070E080E084
:1016200091E00E9495020E94F7010E94DA0A0E944E
:1016300033070E943609F7CFA3E1B0E0E2E2FBE016
:101640000C949E0E6C014B012A01FC01178216823C
:10165000838181FF43C3AE014F5F5F4F3A01F601C3
:101660009381F40193FD859193FF81914F0188232C
:1016700009F430C3853239F493FD859193FF81914C
:101680004F01853239F4B60190E00E94C30F520138
:101690002501E5CF10E0F12C20E02032A0F48B32C0
:1016A00069F030F4803259F0833269F420612CC043
:1016B0008D3239F0803339F4216026C022602460F5
:1016C00023C0286021C027FD27C030ED380F3A30F5
:1016D00078F426FF06C0FAE01F9F300D1124132F67
:1016E00013C04AE0F49E300D1124F32E20620CC08A
:1016F0008E3221F426FDEEC2206406C08C3611F431
:10170000206802C0883641F4F40193FD859193FF6F
:1017100081914F018111C1CF9BEB980F933018F449
:101720002061805E06C09BE9980F933008F071C17C
:101730002F7E26FF16E02F73322E853619F4206493
:10174000322E08C0863621F4F22FF0683F2E02C0F8
:101750001111115037FE07C01C3350F4EE24E394EE
:10176000E10E27E00BC0183038F027E017E005C085
:1017700027E04CE3E42E02C0212FE12C520144E08B
:10178000A40EB11CF20160817181828193810E2DC2
:10179000A3010E94D50E2C01098100FF02C003FFA6
:1017A00007C031FC08C032FE09C030E2232E07C05A
:1017B0002DE2222E04C09BE2292E01C0212C802F75
:1017C0008C7019F0211068C2A8C237FE0FC0E40C5B
:1017D00004FF04C08A81813309F4EA941E1474F56D
:1017E000F8E0FE1578F588E0E82E2CC036FC2AC01B
:1017F000812F90E0841595059CF02CEF42162FEF79
:10180000520674F0432D4068342E0AC0E2E0F0E046
:10181000EC0FFD1FE10FF11D8081803319F4115091
:101820001111F4CF37FE0EC0EE24E394E10E812FA8
:1018300090E0481659062CF4141904C0EE24E394E1
:1018400001C010E037FE06C01414150434F4C201C0
:10185000019605C085E090E002C081E090E0211093
:101860000196112331F0212F30E02F5F3F4F820F7F
:10187000931F2F2D30E08217930714F4F81A01C03C
:10188000F12C832D897049F4FF2039F0B60180E2F4
:1018900090E00E94C30FFA94F7CF222029F0B601FE
:1018A000822D90E00E94C30F33FC09C0FF2039F065
:1018B000B60180E390E00E94C30FFA94F7CF37FEA1
:1018C0005AC0942D852D57FE02C090E080E0292E4D
:1018D000382E20E030E0A2014E1951095D874C8777
:1018E000A201421953095F874E87612F70E0442798
:1018F0005527461B570B598B488B5FEF251635062E
:1019000049F4B6018EE290E02A8B3B8B0E94C30F14
:101910003B892A89421453046CF04C855D8542153D
:10192000530544F4EE85FF85E20FF31FE60DF71D26
:10193000818101C080E351E0251A31082F5F3F4FBC
:1019400048895989241635064CF0B60190E02A8B57
:101950003B8B0E94C30F2A893B89CFCF24143504C7
:1019600039F49A81963318F4953311F404FF81E326
:10197000B60190E04BC08A81813309F00F7EB60139
:1019800090E00E94C30F111105C034FC18C085E619
:1019900090E017C0B6018EE290E00E94C30F82E093
:1019A000EE24E394E80EF301E80FF11D8081B60107
:1019B00090E00E94C30F11508E2D91F7E6CF85E481
:1019C00090E0B6010E94C30F57FC05C041145104BA
:1019D00039F404FF05C05194419451088DE201C0CF
:1019E0008BE2B60190E00E94C30F80E39AE04916B3
:1019F00051042CF08F5F5AE0451A5108F7CFB60119
:101A000090E00E94C30FB601C201C0960E94C30FAE
:101A100057C1833631F0833779F0833509F058C0E8
:101A200021C05201E2E0AE0EB11CF2018081898337
:101A300001E010E0230114C05201F2E0AF0EB11C2E
:101A4000F2014080518026FF03C0612F70E002C088
:101A50006FEF7FEFC2012A8B0E94B80F8C012A8999
:101A60002F7715C05201F2E0AF0EB11CF201408099
:101A7000518026FF03C0612F70E002C06FEF7FEF3F
:101A8000C2012A8B0E94AD0F8C012A892068322E58
:101A900023FD1AC08F2D90E008171907A8F4B6018E
:101AA00080E290E00E94C30FFA94F4CFF20137FC79
:101AB000859137FE81912F01B60190E00E94C30FFE
:101AC000F110FA94015011090115110579F7F8C0C8
:101AD000843611F0893659F5520127FF09C0F4E028
:101AE000AF0EB11CF20160817181828193810AC0C5
:101AF000F2E0AF0EB11CF20160817181072E000C83
:101B0000880B990B2F76322E97FF09C09095809500
:101B1000709561957F4F8F4F9F4F2068322E2AE03E
:101B200030E0A3010E94FB0FE82EE6183FC0022F11
:101B3000853721F40F7E2AE030E01DC0097F8F3603
:101B400091F018F4883559F0C5C0803719F08837FE
:101B500011F0C0C0006104FF09C0046007C024FF89
:101B600008C0066006C028E030E005C020E130E093
:101B700002C020E132E0520107FF09C0F4E0AF0EDD
:101B8000B11CF201608171818281938108C0F2E011
:101B9000AF0EB11CF2016081718180E090E0A30181
:101BA0000E94FB0FE82EE6180F77302E36FE0BC092
:101BB000332D3E7FE11650F434FE0AC032FC08C0DB
:101BC000332D3E7E05C00E2D332D03C00E2D01C0DA
:101BD000012F34FF0CC0FE01EE0DF11D808180331A
:101BE00011F4397E08C032FF05C00E5F04C0832F98
:101BF000867809F00F5F33FD13C030FF06C01E2D3D
:101C00000F1518F41F0D101B0F2D0F1568F4B601DA
:101C100080E290E03B8B0E94C30F0F5F3B89F5CFC2
:101C20000F1510F4F01A01C0F12C34FF12C0B601E8
:101C300080E390E03B8B0E94C30F3B8932FF17C0CB
:101C400031FD03C088E790E002C088E590E0B6016E
:101C50000CC0832F867859F031FF02C08BE201C09F
:101C600080E237FD8DE2B60190E00E94C30FE116DD
:101C700038F4B60180E390E00E94C30F1150F7CF13
:101C8000EA94F301EE0DF11D8081B60190E00E940F
:101C9000C30FE110F5CF14C0F4E0FF1558F584E050
:101CA000F81A33FE1EC0211026C003FF2AC002E925
:101CB00010E0F32DF0713F2EF8018491811124C0C2
:101CC000FF2009F4E5CCB60180E290E00E94C30F4A
:101CD000FA94F6CFF6018681978126C08FEF9FEFA9
:101CE00023C0B60180E290E00E94C30FFA94F11085
:101CF000F8CFD9CFF12CB601822D90E00E94C30F0E
:101D0000D4CF06E910E0D5CF31108052B60190E073
:101D10000E94C30F0F5F1F4FCFCF23E02F1510F48A
:101D200083E0BECFF12CC1CF6396E2E10C94BA0EF2
:101D3000EE0FFF1F0590F491E02D09942F923F9232
:101D40004F925F926F927F928F929F92AF92BF92CB
:101D5000CF92DF92EF92FF920F931F93CF93DF9377
:101D6000CDB7DEB7CA1BDB0B0FB6F894DEBF0FBED4
:101D7000CDBF09942A88398848885F846E847D8421
:101D80008C849B84AA84B984C884DF80EE80FD8023
:101D90000C811B81AA81B981CE0FD11D0FB6F89499
:101DA000DEBF0FBECDBFED010895283008F027E05B
:101DB0003327DA01990F311D87FD91600096610587
:101DC000710539F432602E5F3D9330E32A95E1F7D7
:101DD00008959F3F30F080387105610509F03C5F40
:101DE0003C5F3D93913008F08068911DDF93CF9365
:101DF0001F930F93FF92EF92192F987F9695E92FDB
:101E000096959695E90FFF27EC50FF4F99273327BA
:101E1000EE24FF24A701E70105900894079428F415
:101E2000360FE71EF81E491F511D660F771F881FCA
:101E3000991F0694A1F70590079428F4E70EF81E61
:101E4000491F561FC11D770F881F991F661F0694D3
:101E5000A1F70590079428F4F80E491F561FC71FD5
:101E6000D11D880F991F661F771F0694A1F7059053
:101E7000079420F4490F561FC71FD81F990F661FDC
:101E8000771F881F0694A9F784911095177041F069
:101E9000D695C79557954795F794E7941A95C1F746
:101EA000EAE9F0E068941590159135916591959166
:101EB00005907FE27395E118F10A430B560BC90BAD
:101EC000D009C0F7E10CF11E431F561FC91FD01DDA
:101ED0007EF4703311F48A95E6CFE894015030F027
:101EE000080F0AF40027021708F4202F2395022F69
:101EF0007A3328F079E37D932A95E9F710C07D9332
:101F00002A9589F6069497956795379517951794AE
:101F1000E118F10A430B560BC90BD00998F0239531
:101F20007E9173957A3308F070E37C932013B8F7B1
:101F30007E9170617D9330F0839571E37D9370E3C2
:101F40002A95E1F71124EF90FF900F911F91CF9107
:101F5000DF91992787FD90950895FC0105906150C8
:101F600070400110D8F7809590958E0F9F1F0895AF
:101F7000FC016150704001900110D8F78095909558
:101F80008E0F9F1F08950F931F93CF93DF93FB0135
:101F9000238121FD03C08FEF9FEF28C022FF16C0D1
:101FA00046815781248135814217530744F4A0812B
:101FB000B1819D012F5F3F4F318320838C93268118
:101FC00037812F5F3F4F3783268310C0EB01092FE6
:101FD000182F0084F185E02D0995892BE1F68E817B
:101FE0009F8101969F838E83812F902FDF91CF91C8
:101FF0001F910F910895FA01AA27283051F120313D
:1020000081F1E8946F936E7F6E5F7F4F8F4F9F4F8C
:10201000AF4FB1E03ED0B4E03CD0670F781F891FCE
:102020009A1FA11D680F791F8A1F911DA11D6A0F9C
:10203000711D811D911DA11D20D009F468943F914F
:102040002AE0269F11243019305D3193DEF6CF014E
:102050000895462F4770405D4193B3E00FD0C9F714
:10206000F6CF462F4F70405D4A3318F0495D31FD81
:102070004052419302D0A9F7EACFB4E0A6959795D4
:10208000879577956795BA95C9F7009761057105AA
:1020900008959B01AC010A2E0694579547953795F4
:1020A0002795BA95C9F7620F731F841F951FA01D4E
:1020B0000895DC01CB01FC01F999FECF06C0F2BD09
:1020C000E1BDF89A319600B40D9241505040B8F7F6
:1020D0000895262FF999FECF92BD81BDF89A0197F8
:1020E00000B4021639F01FBA20BD0FB6F894FA9A60
:1020F000F99A0FBE0895DC01CB0103C02D910E9417
:10210000861041505040D0F70895262FF999FECF00
:102110001FBA92BD81BD20BD0FB6F894FA9AF99A04
:0A2120000FBE01960895F894FFCF5A
:10212A0080007F800000000000000008403FFFFFA1
:10213A00000000000000001023FFFFFFF000000075
:10214A00000000203FFFFFFFFE00000000000040EB
:10215A00FFFFFFFFFF800000000000807FFFFFFFFE
:10216A00FF800000000001007FFFFFFFFF800000EA
:10217A00000002007FFFFFFFFF00000000000400D4
:10218A003FFFFFFC00000000000008003FFFFF8047
:10219A0000000000000010001FFFFC00000000000B
:1021AA00000020001FFFE000FE00000000004000C9
:1021BA001FFF801FFC000000000080000FFE01FFCF
:1021CA00FC000000000100000FFA07FFFC000000FD
:1021DA000002000007F13FFFF800000000040000C1
:1021EA0007C0FFFFC00E0000000800000781FFFFC4
:1021FA00000E0000001000000307FFFE00080000A8
:10220A0000200000000FFFF8000803000040000053
:10221A00003FFFE02008030000800000007FFFC0AD
:10222A00E0000F000100000000FFFF83C0000F0064
:10223A000200000000FFFF07C0003C00040000008D
:10224A0000FFFC9F80001C00C8000000007FF87F90
:10225A0080001C00F0000000007FF87F8707FFF075
:10226A00F0600F00007FF8FF8707FFF0F0400F00D3
:10227A00003FF7FF8407C003C7C07F00003FA7FFE6
:10228A008407C001C7C07F00001FFFFF1C01C003F5
:10229A00CF60F700001FFFFF180180073841870051
:1022AA00000EFFFE9803800D38418702000CFFFCE8
:1022BA007807801730CF0607000CFFFC78078027C5
:1022CA0030CF06070003FFF8F00E004CC0BC06072B
:1022DA000003FFF0E80E048DC09C0C0B0003FFF016
:1022EA00E40E0D0F00F00E0F0003FFF0E20E720C69
:1022FA0000C00F0F0007FFE3A10FD4280080070FCB
:10230A000007FFE380BFC8780080071F0007FFC3EC
:10231A00807FD0780080071F0007FFC3802FA000AE
:10232A000000003F0000FFC0001040000000000055
:10233A000000FF80000880000000000000007F808D
:10234A00000500000000000000007F0000020000FD
:10235A000000000000003F0000050000000000002F
:10236A0000003F00000880000000000000003E005E
:10237A00001040000000000000001E0000202000A5
:10238A000000000000001C000040100000000000D7
:10239A0000000C3F8080080000000000000008BF19
:1023AA00810004000000000000000DFFFF00020091
:1023BA000000000000000FFFFF0001000000000005
:1023CA0000003F00FFC0FFF800000FF000007E0091
:1023DA001FE0FFF000007FFE0000F8003FF8FFF06A
:1023EA000003FFFF0000F8005FF8FFF80003FFFF9B
:1023FA000003F8388FF81F880001F8070003F8FF78
:10240A008F3C1F84000FC0030003F8FF8F7C1F82DC
:10241A000007C0030007FFFF8FDE1F81000F800047
:00000001FF
