:100000000C94CA000C94E7000C94E7000C94E700F1
:100010000C94E7000C94E7000C94E7000C94E700C4
:100020000C94E7000C94E7000C94E7000C94E700B4
:100030000C94E7000C94E7000C94E7000C94E700A4
:100040000C94620B0C94710B0C94800B0C94E700D5
:100050000C9473070C94E7000C94A3070C94E7002E
:100060000C94E7000C94E7000C94E7000C94E70074
:100070000C9468090C94E7000C949809330B370B27
:100080003B0B3F0B430B470B4B0B4F0B530B570BD0
:100090005B0B6E616E00696E660000407A10F35A69
:1000A00000A0724E18090010A5D4E80000E87648B8
:1000B000170000E40B54020000CA9A3B000000E164
:1000C000F505000080969800000040420F000000F7
:1000D000A08601000000102700000000E8030000D7
:1000E00000006400000000000A00000000000100A1
:1000F000000000002C76D888DC674F0823DFC1DFC2
:10010000AE59E1B1B796E5E3E453C63AE6519976C4
:1001100096E8E6C28426EB898C9B62ED407C6FFCFE
:10012000EFBC9C9F40F2BAA56FA5F490055A2AF740
:100130005C936B6CF9676DC11BFCE0E40D47FEF549
:1001400020E6B500D0ED902E0300943577050080B1
:10015000841E080000204E0A000000C80C33333310
:10016000330F986E12831141EF8D2114893BE655B0
:1001700016CFFEE6DB18D1844B381BF77C1D901D93
:10018000A4BBE424203284725E228100C9F124ECF5
:10019000A1E53D2711241FBECFEFD0E1DEBFCDBFCB
:1001A00011E0A0E0B1E0EEEAFAE202C005900D92A3
:1001B000AE3CB107D9F726E0AEECB1E001C01D922C
:1001C000AC36B207E1F70E94CB0B0C9455150C949A
:1001D000000087E880937A0010927B008FEF809375
:1001E0007E0010927C001092F4011092F3010895A9
:1001F000877080937C0086EF8A95F1F7EAE7F0E05C
:10020000808180648083808186FDFDCF809178002D
:100210009091790008953A9A429889EE96E0019774
:10022000F1F700003A98EDEDF0E03197F1F786B183
:10023000ECE0F6E03197F1F70000847008953A9A07
:10024000429895E09A95F1F781113A988DED90E0FA
:100250000197F1F73A9808953A9A429885E08A957D
:10026000F1F73A9895E49A95F1F786B19DED9A9554
:10027000F1F7000082FB882780F90895CF93DF9380
:10028000D82FC8E08D2F81700E941F01D695C150D4
:10029000C9F7DF91CF910895CF93DF93D8E0C0E005
:1002A0000E942C0120E8829FC0011124C695C82B12
:1002B000D150B1F78C2FDF91CF9108950F931F93F9
:1002C000CF93DF938C0185E50E943E01E801085F32
:1002D0001F4F89910E943E01C017D107D1F7DF91CE
:1002E000CF911F910F910895EF92FF920F931F935B
:1002F000CF93DF93EC017B018A010E940B012097D1
:1003000021F0CE010E945E0103C08CEC0E943E01F0
:1003100084E40E943E010E942C018823E1F30E94A4
:100320000B01209721F0CE010E945E0103C08CECEE
:100330000E943E018EEB0E943E010E944C01F7019B
:1003400080830E944C01F8018083DF91CF911F913F
:100350000F91FF90EF900895CF92DF92EF92FF926E
:100360000F931F93CF93DF9300D0CDB7DEB76B0110
:100370007A018901AE014E5F5F4FBE016F5F7F4F13
:100380000E9474012A818981422F477090E1499F20
:10039000A0011124982F92959F70492BF60151834B
:1003A00040838C7090E0969587959695879539E176
:1003B000389FA001399F500D1124F70151834083CC
:1003C000221F2227221F822F90E0F8019183808331
:1003D0000F900F90DF91CF911F910F91FF90EF90B1
:1003E000DF90CF900895E5EFF1E084E1808385E030
:1003F0008183ACEBB5E08C91848311968C9111973D
:10040000858312968C9186838091CE018783CF015C
:100410000E94B90808950E9432048F3019F08E3F6F
:10042000A9F0089580915002883048F40E94F800A5
:10043000AC0160E070E084E60E941C04089540E096
:1004400050E0BA0183E00E941C040895809150029C
:10045000813069F028F08230B1F08330D9F008950E
:1004600040E050E0BA0184E60E941C0408958091A7
:10047000DF014091D40150E060E070E0582B84E649
:100480000E941C0408951092DF011092D4010E9472
:100490001D0708950E94F301089580911A02882390
:1004A000C1F08091110281110EC0E1E1F2E0AEE4F1
:1004B000B2E02AE132E081918D93E217F307D9F798
:1004C0000E940B0204C081E192E00E94E60A1092B1
:1004D0001A02089580910702882331F08EEF91E08F
:1004E0000E94B9081092070208958091D30184FFF9
:1004F00005C08091D3018F7E8093D3018091D30179
:1005000083FF11C00E949708DC01E1E1F2E02AE1DB
:1005100032E08D918193E217F307D9F70E94A80882
:1005200081E080931A02089580910702811114C01E
:100530008091D101882381F01092D101AEE3B2E025
:10054000EEEFF1E027E032E08D918193E217F307BF
:10055000D9F781E08093070208958091DE0184FF3E
:100560000AC08091DE018F7E8093DE018091CE01F2
:10057000805F8093CE018091070281111AC0809123
:10058000DE0183FF16C08091CE018F5F8093CE0184
:100590000E94B80ADC01EEEFF1E027E032E08D9135
:1005A0008193E217F307D9F70E94D50A81E080937F
:1005B000070208951092070210921A0208950E94ED
:1005C00075020E944D020E9494020E94AD020E9498
:1005D0006A020895CF93DF931F92CDB7DEB71982D9
:1005E0008981811107C0000089818F5F898389819A
:1005F0008823C9F30F90DF91CF9108958FEF84B9CD
:1006000088EF87B988B1886F88B9089514B846987B
:100610000E94EA0283B19FEF94B9469A0895CF935E
:10062000C82F0E9406038370E1F3C5B947980E9462
:10063000EA02479ACF910895CF93C82F0E940603EC
:100640008370E1F3C5B988B18F7588B90E94EA0259
:1006500088B1806A88B9CF910895CF93C92F0E943D
:100660001C038C2F0E941C0384E20E940F03CF9175
:1006700008952EE1629FB00111249B01280F311DC6
:10068000C9010E942D0308950E941C0380EC0E9462
:100690000F030895CF93DF9380E090E00E942D0335
:1006A000C0EED1E080E00E9444032197D9F7DF91AA
:1006B000CF910895CF93DF9380E090E10E942D03C6
:1006C000C0E0D8E080E00E9444032197D9F7DF9191
:1006D000CF910895CF93DF9380EE91E00E942D0398
:1006E000C0E0DFE080E00E9444032197D9F7DF916A
:1006F000CF91089580520E9444030895CF93DF93D1
:10070000EC018881882331F021960E947A03899137
:100710008111FBCFDF91CF9108950E94FE02449892
:1007200089EF90E00197F1F700C00000449A4398E8
:1007300080EE0E941C0381E00E941C0382E40E9460
:100740000F038EE10E941C0380E00E941C0383E4DF
:100750000E940F0380E00E941C0380E00E941C03A3
:1007600080E40E940F038EE10E941C0380E00E943F
:100770001C0381E40E940F0382E00E941C0380E0BE
:100780000E941C0382E20E940F038CE90E940F0367
:1007900080E80E940F03089580E987BD84E688BD44
:1007A00082E084BD85E085BDEEE6F0E08081826078
:1007B00080830895EEE3F2E026E432E080E0919158
:1007C000890FE217F307D9F7809346020895CF9374
:1007D000DF93EC01909358028093570245E050E07C
:1007E000BC0187E492E00E941B158091470281348E
:1007F00089F0E7E4F2E082E4808387E0818381E0AE
:100800008283138282E0848345E050E0BE01CF0101
:100810000E943D15E091CF01F091D001309719F081
:1008200080914802099580914B0280935902109261
:100830004D02DF91CF910895EEE3F2E090915902DD
:10084000908390914D029183828380914F028383A4
:1008500074836583568347830E94DA0381E0809323
:10086000D10108950F931F93CF93DF931F92CDB7BC
:10087000DEB7EEE4F2E08481458150E060E070E0B4
:10088000BA0155274427782B8781482B8681582B1E
:1008900040933A0250933B0260933C0270933D02B6
:1008A00011811A3009F447C288F4143009F4BEC229
:1008B00028F41130F9F0123021F1B1C2163009F4E8
:1008C0006FC030F1193009F495C1A9C21F3009F485
:1008D0001FC138F41D3009F4A9C21E3009F4D9C073
:1008E0009EC21E3F09F4A2C208F08BC2183809F458
:1008F00066C295C240E050E0BA0184E60E941C0442
:1009000095C240E050E0BA0184E60E941C048EC209
:1009100010915102112341F040E050E0BA0184E00F
:100920000E941C0410E082C2809150028630E9F0DF
:1009300028F4843041F0853079F02BC08730F1F015
:100940008C3829F126C040932502509326026093EB
:100950002702709328021DC04093290250932A0257
:1009600060932B0270932C0214C040932D0250937D
:100970002E0260932F02709330020BC0409331021D
:1009800050933202609333027093340202C040935A
:10099000350240E050E0BA0184E60E941C0446C2E1
:1009A00010915102112341F040E050E0BA0184E07F
:1009B0000E941C0410E03AC280915002863049F136
:1009C00030F48430F1F1C8F4813059F05BC08C38D8
:1009D00009F443C0843C09F449C0873009F052C08F
:1009E00024C0409121025091220260912302709113
:1009F000240284E60E941C0419C2409129025091ED
:100A00002A0260912B0270912C0284E60E941C0441
:100A10000DC240912D0250912E0260912F027091D3
:100A2000300284E60E941C0401C2409131025091C0
:100A30003202609133027091340284E60E941C04F9
:100A4000F5C14091250250912602609127027091D4
:100A5000280284E60E941C04E9C14091350250E05E
:100A600060E070E084E60E941C04E0C14091360220
:100A700050913702609138027091390284E60E94E9
:100A80001C04D4C140E050E0BA0184E00E941C0480
:100A9000CDC180915102823039F040E050E0BA017E
:100AA00084E00E941C04C2C180915002882319F086
:100AB0008130A1F026C091E0452B462B472B09F44D
:100AC00090E080911C0290FB80F980931C0240E032
:100AD00050E0BA0184E60E941C04A8C191E0452BB5
:100AE000462B472B09F490E080911C0290FB81F982
:100AF00080931C0240E050E0BA0184E60E941C048E
:100B000095C140E050E0BA0184E00E941C048EC10F
:100B100000915102013009F489C128F0023009F432
:100B200044C010E083C110915002113081F028F0D0
:100B30001230C9F0133021F130C040914C024170A5
:100B400050E060E070E084E60E941C046FC14091B8
:100B50004C024695417050E060E070E084E60E94EF
:100B60001C04102F63C140914C0242FB442740F902
:100B700050E060E070E084E60E941C04102F56C133
:100B800040914C0243FB442740F950E060E070E0A4
:100B900084E60E941C04102F49C140E050E0BA01D5
:100BA00084E00E941C04102F41C1109150021123B7
:100BB00019F0113059F016C040911C02417050E0FC
:100BC00060E070E084E60E941C0430C140911C0289
:100BD0004695417050E060E070E084E60E941C049D
:100BE00010E024C140E050E0BA0184E00E941C04FF
:100BF00010E01CC110915102112341F040E050E07F
:100C0000BA0184E00E941C0410E010C180915002DF
:100C1000813451F118F4803441F086C0823409F4F3
:100C200043C08C3409F460C07FC08091470290E0DB
:100C3000A0E0B0E0481759076A077B0771F0E7E4C6
:100C4000F2E040831982608129818091570290915E
:100C50005802820F911D0E942B1540E050E0BA010E
:100C600084E60E941C04E2C08091480290E0A0E06B
:100C7000B0E0481759076A077B0779F0E7E4F2E02C
:100C8000418381E08983618129818091570290911C
:100C90005802820F911D0E942B1540E050E0BA01CE
:100CA00084E60E941C04C2C08091490290E0A0E04A
:100CB000B0E0481759076A077B0779F0E7E4F2E0EC
:100CC000428382E0898362812981809157029091D9
:100CD0005802820F911D0E942B1540E050E0BA018E
:100CE00084E60E941C04A2C080914B0290E0A0E028
:100CF000B0E0481759076A077B0779F0E7E4F2E0AC
:100D0000448384E089836481298180915702909192
:100D10005802820F911D0E942B1540E050E0BA014D
:100D200084E60E941C0482C040E050E0BA0184E0E6
:100D30000E941C047BC010915102112341F040E03D
:100D400050E0BA0184E00E941C0410E06FC0809162
:100D50005002813449F018F4803409F129C08234FA
:100D600061F08C3499F024C04091480250E060E07A
:100D700070E084E60E941C0459C04091490250E092
:100D800060E070E084E60E941C0450C040914B0279
:100D900050E060E070E084E60E941C0447C040918F
:100DA000470250E060E070E084E60E941C043EC010
:100DB00040E050E0BA0184E00E941C0437C010916A
:100DC0005002111115C0EEE3F2E0809159028083C8
:100DD00081E3818390E3928322E32383848336E556
:100DE000358386832783908781E08093D1011EC05D
:100DF00040E450E360E270E184E60E941C0410E0ED
:100E000015C05D9885E08A95F1F75D9A4FEF50E047
:100E100060E070E084E60E941C0410E007C040E03F
:100E200050E0BA0182E00E941C0410E0812F0F9074
:100E3000DF91CF911F910F91089540E050E0BA01EA
:100E400084E60E941C0408959091DC019F5F9F77C7
:100E5000E92FF0E0ED57FC4F80819093DC0108957D
:100E60009091DB019F5F9F77E92FF0E0ED57FC4FFA
:100E700080839093DB0108959091DA01E92FF0E0EF
:100E8000E65AFD4F80819F5F9093DA01089580912B
:100E9000D30180FD0BC08091D30181608093D30189
:100EA0001092DA010E943C078093C60008958823BF
:100EB00031F0E1ECF0E08081806880830895E1EC1E
:100EC000F0E080818F7780830895882331F0E1EC12
:100ED000F0E08081806480830895E1ECF0E080811F
:100EE0008F7B808308951F920F920FB60F9211246B
:100EF0002F933F934F935F936F937F938F939F9322
:100F0000AF93BF93EF93FF9385E08093D5018091DA
:100F1000C0009091D401892B8093D4018091C600A8
:100F20000E943007FF91EF91BF91AF919F918F91F8
:100F30007F916F915F914F913F912F910F900FBED5
:100F40000F901F9018951F920F920FB60F921124B9
:100F50002F933F934F935F936F937F938F939F93C1
:100F6000AF93BF93EF93FF938091D30180FF0EC0A7
:100F70008091DA01893030F08091D3018E7F8093A7
:100F8000D30104C00E943C078093C600FF91EF91FB
:100F9000BF91AF919F918F917F916F915F914F9191
:100FA0003F912F910F900FBE0F901F90189587E0E3
:100FB0008093C400E1ECF0E080818861808381E06F
:100FC0000E94570781E00E9465071092D40108959E
:100FD000CF92DF92FF920F931F93CF93DF93809175
:100FE000D9019091D801981741F19091D30190FDCA
:100FF00024C08F5F482F4F71842F90E09C01220FF7
:10100000331F220F331F220F331F280F391F2D5F6D
:101010003B4FB901675F7F4FF901DF01A21BB30BA3
:101020008191A65ABD4F8C93E617F707B1F740930D
:10103000D9011092DA010E9447078091D30183FD04
:1010400056C08091DB019091DC01891B8F7789303C
:1010500008F44DC0F090D60181E08F0D8F71F82E0D
:10106000082F10E0E801CC0FDD1FCC0FDD1FCC0FE7
:10107000DD1FC00FD11FCD59DD4F6E0189E0C80EB5
:10108000D11C0E9424078993CC15DD05D1F7EF2DE3
:10109000F0E0CF01880F991F880F991F880F991FC3
:1010A000E80FF91FED59FD4F90E080E02191920F7C
:1010B0008F5F8830D9F7F801EE0FFF1FEE0FFF1F8B
:1010C000EE0FFF1F0E0F1F1FF801ED59FD4F80851A
:1010D000891308C08091D30188608093D301F09276
:1010E000D60105C08091D30180618093D301DF9147
:1010F000CF911F910F91FF90DF90CF900895809135
:10110000D501882341F08091D50181508093D5018C
:101110001092D20108958091D201811107C080916F
:10112000DB018093DC0181E08093D20108958091FE
:10113000D7018F5F8F7190E09C01220F331F220F28
:10114000331F220F331F820F931F8D599D4F089518
:101150009091D7019F5F9F719093D7018091D601A5
:10116000891B8F7129F49091D301977F9093D301BC
:1011700008954091D8014F5F4F71DC01242F30E07A
:10118000F901EE0FFF1FEE0FFF1FEE0FFF1FE20F23
:10119000F31FED5FFB4F2F5F3F4FC901880F991F72
:1011A000880F991F880F991F280F391F2D5F3B4FFC
:1011B0008D918193E217F307D9F74093D8010895F1
:1011C0008091E7019091E801891B8F7108959091BA
:1011D000E7018091E801981307C08091DD018860E4
:1011E0008093DD0180E008959091E8019F5F9F71F9
:1011F000E92FF0E0E45BF94F80819093E8010895D6
:101200002091E7014091E80130E02F5F3F4F2F71BF
:10121000332750E02417350731F48091DD018460D5
:101220008093DD0108959091E7019F5F9F71E92F01
:10123000F0E0E45BF94F80839093E701089580919B
:10124000E601893038F08091DD0182608093DD0114
:1012500080E00895E091E601F0E0ED5DFA4F8081D5
:101260009091E6019F5F9093E60108958091DE01E1
:1012700080FD11C08091DE0181608093DE01E9EC88
:10128000F0E080818F7E80835C9A1092E6010E945C
:101290001F098093CE000895882331F0E9ECF0E037
:1012A0008081806880830895E9ECF0E080818F7709
:1012B00080830895882331F0E9ECF0E08081806438
:1012C00080830895E9ECF0E080818F7B808308952E
:1012D0001F920F920FB60F9211242F933F934F93AB
:1012E0005F936F937F938F939F93AF93BF93EF938E
:1012F000FF9385E08093E1018091C8009091DF0128
:10130000892B8093DF018091CE000E940009FF911C
:10131000EF91BF91AF919F918F917F916F915F916D
:101320004F913F912F910F900FBE0F901F901895E6
:101330001F920F920FB60F9211242F933F934F934A
:101340005F936F937F938F939F93AF93BF93EF932D
:10135000FF938091DE0180FF1CC08091E6018930FF
:10136000A0F08091DE018E7F8093DE0182E3809386
:10137000E0018091DE0184608093DE015C98E9ECFD
:10138000F0E080818061808304C00E941F09809307
:10139000CE00FF91EF91BF91AF919F918F917F917F
:1013A0006F915F914F913F912F910F900FBE0F90D2
:1013B0001F90189583E08093CC00E9ECF0E08081E9
:1013C0008861808381E00E944C0981E00E945A0973
:1013D0001092DF010895BF92CF92DF92EF92FF92B9
:1013E0000F931F93CF93DF938091E5019091E401D8
:1013F000981759F19091DE0190FD27C09091DE0180
:1014000092FD23C08F5F8F70282F30E0A901440F19
:10141000551F440F551F440F551F240F351F245DC2
:101420003A4F8093E501A901475F5F4FF901DF0162
:10143000A21BB30B8191AD5DBA4F8C93E417F507F6
:10144000B1F71092E6010E9436098091DE0183FD1A
:1014500064C00E94E008893008F45FC0B090E201E7
:1014600081E08B0D8F70B82EE82EF12CE701CC0FA8
:10147000DD1FCC0FDD1FCC0FDD1FCE0DDF1DC454D3
:10148000DA4F2FEFE21AF20AC701880F991F880F6F
:10149000991F880F991F8E0D9F1D9C0124543A4F50
:1014A0007901CB2CD12C86010E94E7088993CE15B7
:1014B000DF05C9F7B092E201F601EE0FFF1FEE0F54
:1014C000FF1FEE0FFF1FEC0DFD1DE454FA4F90E0DF
:1014D00080E02191920F8F5F8830D9F7F801EE0FED
:1014E000FF1FEE0FFF1FEE0FFF1F0E0F1F1FF80154
:1014F000E454FA4F808589130BC08091DE01886027
:101500008093DE018091DE018B7F8093DE0105C038
:101510008091DE0180618093DE01DF91CF911F9188
:101520000F91FF90EF90DF90CF90BF900895809142
:10153000DE0182FF0EC08091E00181508093E001C6
:101540008091E001811105C08091DE018B7F809345
:10155000DE018091E101882331F08091E101815029
:101560008093E10108958091E7018093E801089557
:101570008091E3019091E201981308C08091DD0110
:1015800080688093DD0180E090E008958F5F8F7028
:1015900090E09C01220F331F220F331F220F331FB5
:1015A000820F931F84549A4F08959091E3019F5F97
:1015B0009F709093E3018091E201891B8F7029F461
:1015C0009091DE01977F9093DE010895CF93DF9392
:1015D000FC014091E401842F90E001968F709927DF
:1015E0002091E50130E08217930731F48091DD010D
:1015F00080618093DD012BC04F5F4F70842F90E09E
:10160000DC01AA0FBB1FAA0FBB1FAA0FBB1FA80F8D
:10161000B91FA45DBA4FEF01289680E0642F70E0F7
:101620009B0190819D939191890FEC17FD07C1F764
:10163000FB01EE0FFF1FEE0FFF1FEE0FFF1F2E0F20
:101640003F1FF901E45DFA4F80874093E401DF9189
:10165000CF91089590E08B30910580F5FC01E25C1C
:10166000FF4F0C9407138FE58093CC0008958FE310
:101670008093CC0008958FE28093CC0008958FE191
:101680008093CC00089587E18093CC0008958FE08B
:101690008093CC0008958BE08093CC00089587E080
:1016A0008093CC00089583E08093CC00089582E07D
:1016B0008093CC0008951092CC0008958FE280931F
:1016C000CC0008951F920F920FB60F9211248F93A2
:1016D00081E08093F2018F910F900FBE0F901F90C9
:1016E00018951F920F920FB60F9211248F9381E0DD
:1016F0008093F2018F910F900FBE0F901F9018955D
:101700001F920F920FB60F9211248F9381E0809356
:10171000F2018F910F900FBE0F901F90189580913E
:10172000F201882331F01092F2010E947F080E949A
:10173000970A08958AE18AB95D9A0E94D7070E94A4
:10174000DA090E94E9000E94CC038AE29BE09093B0
:10175000D0018093CF0180E190E00E94E7030E94D6
:10176000DA02789408950F931F93CF93DF930E942A
:101770000B0183E30E943E01C9EED1E001EF11E0CD
:101780000E944C018993C017D107D1F7DF91CF9107
:101790001F910F910895CF93DF93CDB7DEB76E976A
:1017A0000FB6F894DEBF0FBECDBF0E949A0B1A8E03
:1017B000198E1C8E1B8E1E8E1D8E0E948D030E9404
:1017C0004A030E945A030E946A030E94B30BD12C61
:1017D0000F2EF8E17F2EF02D8E010F5F1F4F0F2E81
:1017E000F4E9EF2EF1E0FF2EF02D6894662463F803
:1017F0000F2EF4E78F2EF1E09F2EF02D0F2EF8E83C
:10180000AF2EF1E0BF2EF02D0F2EF5EB4F2EF1E0B5
:101810005F2EF02D0F2EFCE92F2EF1E03F2EF02D44
:101820000E94DF020E948F0B0E94E8070E94EB09D2
:101830008091F2018823A1F324E62D1510F0D394B2
:10184000EFCF0E946A0360E085E00E94390380E0E8
:1018500091E00E947E03F801272D11922A95E9F765
:1018600086E00E94F8006C0164E085E00E94390384
:1018700086E191E00E947E03B60180E090E00E9444
:10188000670E2DEC3CEC44EF50E40E94FA0E20E091
:1018900030E04AE754E40E94F50D9F938F937F93C5
:1018A0006F93FF92EF921F930F930E949A14C801B7
:1018B0000E947E03F801272D11922A95E9F785E011
:1018C0000E94F8006C0165E085E00E94390383E224
:1018D00091E00E947E03B60180E090E00E94670ED6
:1018E0002DEC3CEC44EF50E40E94FA0E20E030E096
:1018F0004AE754E40E94F50D9F938F937F936F9373
:10190000FF92EF921F930F930E949A14C8010E94B6
:101910007E03F801272D11922A95E9F787E00E94AE
:10192000F8006C0166E085E00E94390380E391E0F5
:101930000E947E03B60180E090E00E94670E2DECCD
:101940003CEC44EF50E40E94FA0E20E030E04AE71D
:1019500054E40E94F50D0FB6F894DEBF0FBECDBF64
:1019600020E030E040E950E40E94F50E18162CF417
:101970008DE391E00E947E0304C085E491E00E9423
:101980007E03F801272D11922A95E9F784E00E9441
:10199000F800BC0180E090E00E94670E2DEC3CEC6A
:1019A00044EF50E40E94FA0E20E030E04AE754E4AD
:1019B0000E94F50D9F938F937F936F93FF92EF9209
:1019C0001F926F921F930F930E946A1467E085E045
:1019D0000E9439038DE491E00E947E03C8010E94B9
:1019E0007E03F801272D11922A95E9F782E00E94E3
:1019F000F800BC0180E090E00E94670E2DEC3CEC0A
:101A00004CE251E40E94FA0E20E030E04AE754E450
:101A10000E94F50D9F938F937F936F93FF92EF92A8
:101A20001F926F921F930F930E946A14662D85E098
:101A30000E9439038AE591E00E947E03C8010E945A
:101A40007E03F801272D11922A95E9F783E00E9481
:101A5000F800BC0180E090E00E94670E28E431EEBF
:101A60004EE451EC0E94FA0E20E030E04AE754E4E4
:101A70000E94F50D9F938F937F936F93FF92EF9248
:101A80001F926F921F930F930E946A1469E085E082
:101A90000E94390387E691E00E947E03C8010E94FC
:101AA0007E03F801272D11922A95E9F781E00E9423
:101AB000F800BC0180E090E00E94670E26EF38E25B
:101AC0004CEF51E40E94FA0E20E030E04AE754E483
:101AD0000E94F50D9F938F937F936F939F928F92A8
:101AE0001F930F930E949A140FB6F894DEBF0FBE97
:101AF000CDBF6AE085E00E943903C8010E947E03E1
:101B0000F801272D11922A95E9F780E00E94F8004C
:101B1000BC0180E090E00E94670E26EF38E24CEFB7
:101B200051E40E94FA0E20E030E04AE754E40E94BB
:101B3000F50D9F938F937F936F93BF92AF921F93F7
:101B40000F930E949A146BE085E00E943903C8014C
:101B50000E947E03F801272D11922A95E9F76DE086
:101B600085E00E9439039E01235E3F4FAE01455E32
:101B70005F4FBE01675E7F4F89EE91E00E94AC012E
:101B80000FB6F894DEBF0FBECDBF8D8D9E8D892B15
:101B9000A1F08C8D8F938B8D8F938A8D8F93898DF0
:101BA0008F933F922F921F930F930E949A140FB618
:101BB000F894DEBF0FBECDBF13C08C8D8F938B8D7D
:101BC0008F938A8D8F93898D8F935F924F921F93FE
:101BD0000F930E949A140FB6F894DEBF0FBECDBFCC
:101BE000C8010E947E03D12C1BCE0E94090E0C94CA
:101BF000BB0E0E94B40E58F00E94AD0E40F029F4C6
:101C00005F3F29F00C94A40E51110C94EF0E0C942C
:101C1000AA0E0E94CC0E68F39923B1F3552391F3D9
:101C2000951B550BBB27AA2762177307840738F04B
:101C30009F5F5F4F220F331F441FAA1FA9F335D0A8
:101C40000E2E3AF0E0E832D091505040E695001C5C
:101C5000CAF72BD0FE2F29D0660F771F881FBB1F16
:101C6000261737074807AB07B0E809F0BB0B802DF4
:101C7000BF01FF2793585F4F3AF09E3F510578F020
:101C80000C94A40E0C94EF0E5F3FE4F3983ED4F353
:101C9000869577956795B795F7959F5FC9F7880FF4
:101CA000911D9695879597F90895E1E0660F771F46
:101CB000881FBB1F621773078407BA0720F0621BD7
:101CC000730B840BBA0BEE1F88F7E0950895E89428
:101CD00009C097FB3EF490958095709561957F4F74
:101CE0008F4F9F4F9923A9F0F92F96E9BB27939522
:101CF000F695879577956795B795F111F8CFFAF432
:101D0000BB0F11F460FF1BC06F5F7F4F8F4F9F4F62
:101D100016C0882311F096E911C0772321F09EE8C0
:101D2000872F762F05C0662371F096E8862F70E026
:101D300060E02AF09A95660F771F881FDAF7880F00
:101D40009695879597F9089597F99F6780E870E0D1
:101D500060E008959FEF80EC089500240A94161621
:101D6000170618060906089500240A941216130689
:101D7000140605060895092E0394000C11F4882317
:101D800052F0BB0F40F4BF2B11F460FF04C06F5F33
:101D90007F4F8F4F9F4F089557FD9058440F551F09
:101DA00059F05F3F71F04795880F97FB991F61F0DD
:101DB0009F3F79F087950895121613061406551F54
:101DC000F2CF4695F1DF08C0161617061806991FC0
:101DD000F1CF86957105610508940895E894BB27B5
:101DE00066277727CB0197F908950E94670F08F4BB
:101DF0008FEF08950E940D0F0C94BB0E0E94AD0E44
:101E000038F00E94B40E20F0952311F00C94A40E2B
:101E10000C94AA0E11240C94EF0E0E94CC0E70F3B9
:101E2000959FC1F3950F50E0551F629FF001729F7F
:101E3000BB27F00DB11D639FAA27F00DB11DAA1F8E
:101E4000649F6627B00DA11D661F829F2227B00DDB
:101E5000A11D621F739FB00DA11D621F839FA00D66
:101E6000611D221F749F3327A00D611D231F849FB6
:101E7000600D211D822F762F6A2F11249F5750400D
:101E80009AF0F1F088234AF0EE0FFF1FBB1F661F88
:101E9000771F881F91505040A9F79E3F510580F051
:101EA0000C94A40E0C94EF0E5F3FE4F3983ED4F331
:101EB000869577956795B795F795E7959F5FC1F7F5
:101EC000FE2B880F911D9695879597F90895990F88
:101ED0000008550FAA0BE0E8FEEF16161706E807F4
:101EE000F907C0F012161306E407F50798F0621B15
:101EF000730B840B950B39F40A2661F0232B242BEA
:101F0000252B21F408950A2609F4A140A6958FEF08
:101F1000811D811D0895A3E1B0E0E1E9FFE00C948B
:101F20000D136C014B012A01FC011782168283817B
:101F300081FF43C3AE014F5F5F4F3A01F6019381CA
:101F4000F40193FD859193FF81914F01882309F45A
:101F500030C3853239F493FD859193FF81914F0110
:101F6000853239F4B60190E00E9432145201250105
:101F7000E5CF10E0F12C20E02032A0F48B3269F0A4
:101F800030F4803259F0833269F420612CC08D32F4
:101F900039F0803339F4216026C02260246023C0E8
:101FA000286021C027FD27C030ED380F3A3078F483
:101FB00026FF06C0FAE01F9F300D1124132F13C017
:101FC0004AE0F49E300D1124F32E20620CC08E32B4
:101FD00021F426FDEEC2206406C08C3611F4206880
:101FE00002C0883641F4F40193FD859193FF8191FD
:101FF0004F018111C1CF9BEB980F933018F42061F2
:10200000805E06C09BE9980F933008F071C12F7E67
:1020100026FF16E02F73322E853619F42064322EF7
:1020200008C0863621F4F22FF0683F2E02C011114D
:10203000115037FE07C01C3350F4EE24E394E10E38
:1020400027E00BC0183038F027E017E005C027E084
:102050004CE3E42E02C0212FE12C520144E0A40EF7
:10206000B11CF20160817181828193810E2DA301E7
:102070000E9444132C01098100FF02C003FF07C026
:1020800031FC08C032FE09C030E2232E07C02DE229
:10209000222E04C09BE2292E01C0212C802F8C709F
:1020A00019F0211068C2A8C237FE0FC0E40C04FF6B
:1020B00004C08A81813309F4EA941E1474F5F8E0AF
:1020C000FE1578F588E0E82E2CC036FC2AC0812F5A
:1020D00090E0841595059CF02CEF42162FEF5206E8
:1020E00074F0432D4068342E0AC0E2E0F0E0EC0FBB
:1020F000FD1FE10FF11D8081803319F41150111182
:10210000F4CF37FE0EC0EE24E394E10E812F90E071
:10211000481659062CF4141904C0EE24E39401C0A7
:1021200010E037FE06C01414150434F4C201019601
:1021300005C085E090E002C081E090E021100196AA
:10214000112331F0212F30E02F5F3F4F820F931F7B
:102150002F2D30E08217930714F4F81A01C0F12CE8
:10216000832D897049F4FF2039F0B60180E290E0B8
:102170000E943214FA94F7CF222029F0B601822D62
:1021800090E00E94321433FC09C0FF2039F0B60100
:1021900080E390E00E943214FA94F7CF37FE5AC0E1
:1021A000942D852D57FE02C090E080E0292E382E18
:1021B00020E030E0A2014E1951095D874C87A20151
:1021C000421953095F874E87612F70E044275527D6
:1021D000461B570B598B488B5FEF2516350649F484
:1021E000B6018EE290E02A8B3B8B0E9432143B8931
:1021F0002A89421453046CF04C855D8542155305C1
:1022000044F4EE85FF85E20FF31FE60DF71D818193
:1022100001C080E351E0251A31082F5F3F4F488904
:102220005989241635064CF0B60190E02A8B3B8B79
:102230000E9432142A893B89CFCF2414350439F403
:102240009A81963318F4953311F404FF81E3B601B3
:1022500090E04BC08A81813309F00F7EB60190E097
:102260000E943214111105C034FC18C085E690E0BC
:1022700017C0B6018EE290E00E94321482E0EE2494
:10228000E394E80EF301E80FF11D8081B60190E0C0
:102290000E94321411508E2D91F7E6CF85E490E024
:1022A000B6010E94321457FC05C04114510439F4A0
:1022B00004FF05C05194419451088DE201C08BE2A6
:1022C000B60190E00E94321480E39AE0491651046E
:1022D0002CF08F5F5AE0451A5108F7CFB60190E015
:1022E0000E943214B601C201C0960E94321457C136
:1022F000833631F0833779F0833509F058C021C037
:102300005201E2E0AE0EB11CF2018081898301E04E
:1023100010E0230114C05201F2E0AF0EB11CF20133
:102320004080518026FF03C0612F70E002C06FEF34
:102330007FEFC2012A8B0E9427148C012A892F77F4
:1023400015C05201F2E0AF0EB11CF2014080518085
:1023500026FF03C0612F70E002C06FEF7FEFC20164
:102360002A8B0E941C148C012A892068322E23FD9E
:102370001AC08F2D90E008171907A8F4B60180E263
:1023800090E00E943214FA94F4CFF20137FC859168
:1023900037FE81912F01B60190E00E943214F110B6
:1023A000FA94015011090115110579F7F8C0843626
:1023B00011F0893659F5520127FF09C0F4E0AF0E3C
:1023C000B11CF20160817181828193810AC0F2E0C7
:1023D000AF0EB11CF20160817181072E000C880BD9
:1023E000990B2F76322E97FF09C0909580957095A6
:1023F00061957F4F8F4F9F4F2068322E2AE030E04B
:10240000A3010E94BD14E82EE6183FC0022F8537B5
:1024100021F40F7E2AE030E01DC0097F8F3691F055
:1024200018F4883559F0C5C0803719F0883711F095
:10243000C0C0006104FF09C0046007C024FF08C0D9
:10244000066006C028E030E005C020E130E002C0B0
:1024500020E132E0520107FF09C0F4E0AF0EB11CE9
:10246000F201608171818281938108C0F2E0AF0E38
:10247000B11CF2016081718180E090E0A3010E94B3
:10248000BD14E82EE6180F77302E36FE0BC0332D24
:102490003E7FE11650F434FE0AC032FC08C0332DF2
:1024A0003E7E05C00E2D332D03C00E2D01C0012F21
:1024B00034FF0CC0FE01EE0DF11D8081803311F45C
:1024C000397E08C032FF05C00E5F04C0832F8678B6
:1024D00009F00F5F33FD13C030FF06C01E2D0F152E
:1024E00018F41F0D101B0F2D0F1568F4B60180E2B4
:1024F00090E03B8B0E9432140F5F3B89F5CF0F15A4
:1025000010F4F01A01C0F12C34FF12C0B60180E3C0
:1025100090E03B8B0E9432143B8932FF17C031FDA3
:1025200003C088E790E002C088E590E0B6010CC0E7
:10253000832F867859F031FF02C08BE201C080E220
:1025400037FD8DE2B60190E00E943214E11638F4B6
:10255000B60180E390E00E9432141150F7CFEA9464
:10256000F301EE0DF11D8081B60190E00E9432145E
:10257000E110F5CF14C0F4E0FF1558F584E0F81A27
:1025800033FE1EC0211026C003FF2AC002E910E05E
:10259000F32DF0713F2EF8018491811124C0FF20AA
:1025A00009F4E5CCB60180E290E00E943214FA947E
:1025B000F6CFF6018681978126C08FEF9FEF23C06B
:1025C000B60180E290E00E943214FA94F110F8CF44
:1025D000D9CFF12CB601822D90E00E943214D4CFD5
:1025E00006E910E0D5CF31108052B60190E00E948C
:1025F00032140F5F1F4FCFCF23E02F1510F483E06D
:10260000BECFF12CC1CF6396E2E10C942913EE0FFB
:10261000FF1F0590F491E02D09942F923F924F9265
:102620005F926F927F928F929F92AF92BF92CF9262
:10263000DF92EF92FF920F931F93CF93DF93CDB76B
:10264000DEB7CA1BDB0B0FB6F894DEBF0FBECDBFE3
:1026500009942A88398848885F846E847D848C84B4
:102660009B84AA84B984C884DF80EE80FD800C81BD
:102670001B81AA81B981CE0FD11D0FB6F894DEBFA0
:102680000FBECDBFED010895283008F027E03327B5
:10269000DA01990F311D87FD916000966105710582
:1026A00039F432602E5F3D9330E32A95E1F70895C7
:1026B0009F3F30F080387105610509F03C5F3C5F59
:1026C0003D93913008F08068911DDF93CF931F9365
:1026D0000F93FF92EF92192F987F9695E92F969579
:1026E0009695E90FFF27EC50FF4F99273327EE24EB
:1026F000FF24A701E70105900894079428F4360FFA
:10270000E71EF81E491F511D660F771F881F991F6E
:102710000694A1F70590079428F4E70EF81E491FC8
:10272000561FC11D770F881F991F661F0694A1F7BA
:102730000590079428F4F80E491F561FC71FD11D96
:10274000880F991F661F771F0694A1F705900794BD
:1027500020F4490F561FC71FD81F990F661F771FF8
:10276000881F0694A9F784911095177041F0D695AB
:10277000C79557954795F794E7941A95C1F7EAE9F5
:10278000F0E06894159015913591659195910590BB
:102790007FE27395E118F10A430B560BC90BD00980
:1027A000C0F7E10CF11E431F561FC91FD01D7EF458
:1027B000703311F48A95E6CFE894015030F0080F99
:1027C0000AF40027021708F4202F2395022F7A33EA
:1027D00028F079E37D932A95E9F710C07D932A9537
:1027E00089F6069497956795379517951794E1188C
:1027F000F10A430B560BC90BD00998F023957E9133
:1028000073957A3308F070E37C932013B8F77E91C8
:1028100070617D9330F0839571E37D9370E32A9529
:10282000E1F71124EF90FF900F911F91CF91DF916D
:10283000992787FD90950895FC010590615070409F
:102840000110D8F7809590958E0F9F1F0895FC0179
:102850006150704001900110D8F7809590958E0FCF
:102860009F1F08950F931F93CF93DF93FB01238145
:1028700021FD03C08FEF9FEF28C022FF16C04681C5
:102880005781248135814217530744F4A081B181D7
:102890009D012F5F3F4F318320838C9326813781A9
:1028A0002F5F3F4F3783268310C0EB01092F182F6E
:1028B0000084F185E02D0995892BE1F68E819F81B9
:1028C00001969F838E83812F902FDF91CF911F914F
:1028D0000F910895AEE0B0E0E0E7F4E10C941B1333
:1028E0000D891E898F89988D26E02C831A83098390
:1028F00097FF02C080E090E801979E838D83AE0130
:10290000455E5F4F698D7A8DCE0101960E948B0FD7
:102910004D815E8157FD0AC02F81388542175307CC
:102920000CF49A01F801E20FF31F10822E96E4E0F6
:102930000C943713AEE0B0E0E0EAF4E10C941B1322
:102940000D891E8986E08C831A8309838FEF9FE7A8
:102950009E838D83AE01475E5F4F6F89788DCE0178
:1029600001960E948B0F2F813885F801E20FF31F2B
:1029700010822E96E4E00C943713FA01AA2728302F
:1029800051F1203181F1E8946F936E7F6E5F7F4F3C
:102990008F4F9F4FAF4FB1E03ED0B4E03CD0670FB8
:1029A000781F891F9A1FA11D680F791F8A1F911D0B
:1029B000A11D6A0F711D811D911DA11D20D009F45B
:1029C00068943F912AE0269F11243019305D31939D
:1029D000DEF6CF010895462F4770405D4193B3E086
:1029E0000FD0C9F7F6CF462F4F70405D4A3318F02D
:1029F000495D31FD4052419302D0A9F7EACFB4E0DE
:102A0000A6959795879577956795BA95C9F7009795
:102A10006105710508959B01AC010A2E0694579536
:102A2000479537952795BA95C9F7620F731F841F8D
:102A3000951FA01D0895DC01CB01FC01F999FECF83
:102A400006C0F2BDE1BDF89A319600B40D92415036
:102A50005040B8F70895262FF999FECF92BD81BD59
:102A6000F89A019700B4021639F01FBA20BD0FB6CC
:102A7000F894FA9AF99A0FBE0895DC01CB0103C0CD
:102A80002D910E94481541505040D0F70895262FAF
:102A9000F999FECF1FBA92BD81BD20BD0FB6F89443
:0E2AA000FA9AF99A0FBE01960895F894FFCFA6
:102AAE0041746F6D5472616365202D205363692DDF
:102ABE005472616365004275732D413A20202020C7
:102ACE002020004275732D423A2020202020200025
:102ADE005553423A202020202020202000436F6EA4
:102AEE006E6563740020204E2E432E20002B35562B
:102AFE003A2020202020202020002B3132563A2050
:102B0E00202020202020002D3132563A2020202057
:102B1E00202020002B3234562D42503A20202020E7
:102B2E00252B362E326656002B3234562D524A3A0B
:102B3E0020202020252B362E326656005465706CD0
:102B4E006F74613A202020202D2532692E25322ED9
:102B5E003269B043005465706C6F74613A20202066
:0E2B6E00202B2532692E25322E3269B043000D
:00000001FF
