S01600005269646963694A65646E6F746B612E737265638A
S11300000C94CA000C94E7000C94E7000C94E700ED
S11300100C94E7000C94E7000C94E7000C94E700C0
S11300200C94E7000C94E7000C94E7000C94E700B0
S11300300C94E7000C94E7000C94E7000C94E700A0
S11300400C94D30A0C94E20A0C94F10A0C94E70081
S11300500C94DB060C94E7000C940B070C94E7005B
S11300600C94E7000C94E7000C94E7000C94E70070
S11300700C94D0080C94E7000C940009A40AA80A74
S1130080AC0AB00AB40AB80ABC0AC00AC40AC80A4C
S1130090CC0A6E616E00696E660000407A10F35AF5
S11300A000A0724E18090010A5D4E80000E87648B4
S11300B0170000E40B54020000CA9A3B000000E160
S11300C0F505000080969800000040420F000000F3
S11300D0A08601000000102700000000E8030000D3
S11300E000006400000000000A000000000001009D
S11300F0000000002C76D888DC674F0823DFC1DFBE
S1130100AE59E1B1B796E5E3E453C63AE6519976C0
S113011096E8E6C28426EB898C9B62ED407C6FFCFA
S1130120EFBC9C9F40F2BAA56FA5F490055A2AF73C
S11301305C936B6CF9676DC11BFCE0E40D47FEF545
S113014020E6B500D0ED902E0300943577050080AD
S1130150841E080000204E0A000000C80C3333330C
S1130160330F986E12831141EF8D2114893BE655AC
S113017016CFFEE6DB18D1844B381BF77C1D901D8F
S1130180A4BBE424203284725E228100C9F124ECF1
S1130190A1E53D2711241FBECFEFD0E1DEBFCDBFC7
S11301A011E0A0E0B1E0EAEBF1E202C005900D92AB
S11301B0A030B107D9F724E0A0E0B1E001C01D925E
S11301C0AF31B207E1F70E944D0B0C94DB100C9495
S11301D0000087E880937A0010927B008FEF809371
S11301E07E0010927C00109227011092260108953F
S11301F0877080937C0086EF8A95F1F7EAE7F0E058
S1130200808180648083808186FDFDCF8091780029
S11302109091790008953A9A429889EE96E0019770
S1130220F1F700003A98EDEDF0E03197F1F786B17F
S1130230ECE0F6E03197F1F70000847008953A9A03
S1130240429895E09A95F1F781113A988DED90E0F6
S11302500197F1F73A9808953A9A429885E08A9579
S1130260F1F73A9895E49A95F1F786B19DED9A9550
S1130270F1F7000082FB882780F90895CF93DF937C
S1130280D82FC8E08D2F81700E941F01D695C150D0
S1130290C9F7DF91CF910895CF93DF93D8E0C0E001
S11302A00E942C0120E8829FC0011124C695C82B0E
S11302B0D150B1F78C2FDF91CF910895E8E2F1E0AE
S11302C084E1808385E08183AFE6B3E08C9184830D
S11302D011968C911197858312968C9186838091C7
S11302E000018783CF010E94210808950E947F03A3
S11302F08F3019F08E3FA9F00895809183018830E2
S113030048F40E94F800AC0160E070E084E60E94CA
S11303106903089540E050E0BA0183E00E94690354
S1130320089580918301813069F028F08230B1F022
S11303308330D9F0089540E050E0BA0184E60E9489
S113034069030895809112014091060150E060E034
S113035070E0582B84E60E946903089510921201FC
S1130360109206010E94850608950E945E01089578
S113037080914D018823C1F08091440181110EC008
S1130380E4E4F1E0A1E8B1E02DE431E081918D9362
S1130390E217F307D9F70E94760104C084E491E0E0
S11303A00E94570A10924D01089580913A018823C2
S11303B031F081E391E00E94210810923A010895FE
S11303C08091050184FF05C0809105018F7E809393
S11303D005018091050183FF11C00E94FF07DC0124
S11303E0E4E4F1E02DE431E08D918193E217F30729
S11303F0D9F70E94100881E080934D0108958091FF
S11304003A01811114C080910301882381F0109274
S11304100301A1E7B1E0E1E3F1E02AE331E08D91EA
S11304208193E217F307D9F781E080933A010895A5
S11304308091110184FF0AC0809111018F7E809305
S1130440110180910001805F8093000180913A0145
S113045081111AC08091110183FF16C0809100019F
S11304608F5F809300010E94290ADC01E1E3F1E03F
S11304702AE331E08D918193E217F307D9F70E94C3
S1130480460A81E080933A01089510923A0110924D
S11304904D0108950E94E0010E94B8010E94FF01ED
S11304A00E9418020E94D5010895CF93DF931F92F2
S11304B0CDB7DEB719828981811107C00000898117
S11304C08F5F898389818823C9F30F90DF91CF914E
S11304D008958FEF84B988EF87B988B1886F88B998
S11304E0089514B846980E94550283B19FEF94B9B9
S11304F0469A0895CF93C82F0E9471028370E1F346
S1130500C5B947980E945502479ACF910895CF9351
S1130510C82F0E9471028370E1F3C5B988B18F7549
S113052088B90E94550288B1806A88B9CF9108952C
S1130530CF93C92F0E9487028C2F0E94870284E2E6
S11305400E947A02CF9108950E94870280EC0E9453
S11305507A020895CF93DF9380E090E00E9498029E
S1130560C0EED1E080E00E94A4022197D9F7DF9188
S1130570CF910895CF93DF9380E090E10E94980299
S1130580C0E0D8E080E00E94A4022197D9F7DF916F
S1130590CF910895CF93DF9380EE91E00E9498026B
S11305A0C0E0DFE080E00E94A4022197D9F7DF9148
S11305B0CF9108950E946902449889EF90E00197D1
S11305C0F1F700C00000449A439880EE0E9487022D
S11305D081E00E94870282E40E947A028EE10E94F6
S11305E0870280E00E94870283E40E947A0280E00E
S11305F00E94870280E00E94870280E40E947A02BF
S11306008EE10E94870280E00E94870281E40E94BA
S11306107A0282E00E94870280E00E94870282E2DE
S11306200E947A028CE90E947A0280E80E947A028F
S1130630089580E987BD84E688BD82E084BD85E0B5
S113064085BDEEE6F0E08081826080830895E1E775
S1130650F1E029E731E080E09191890FE217F30797
S1130660D9F7809379010895CF93DF93EC019093A8
S11306708B0180938A0145E050E0BC018AE791E058
S11306800E94A11080917A01823489F0EAE7F1E0B6
S113069082E4808387E0818381E08283138282E025
S11306A0848345E050E0BE01CF010E94C310E09175
S11306B00101F0910201309719F080917B010995B5
S11306C080917E0180938C0110928001DF91CF9103
S11306D00895E1E7F1E090918C019083909180017D
S11306E0918382838091820183837483658356839B
S11306F047830E94270381E08093030108950F93A9
S11307001F93CF93DF931F92CDB7DEB7E1E8F1E0FB
S11307108481458150E060E070E0BA0155274427A8
S1130720782B8781482B8681582B40936D015093F9
S11307306E0160936F017093700111811D3009F493
S1130740DDC2B0F41530C1F148F4123071F1143047
S113075009F4D4C2113009F0CAC220C0193009F416
S11307609DC11A3009F43BC2163009F0C0C26CC0F6
S1130770113509F4A3C248F41F3009F41DC108F46B
S1130780DCC0103509F491C2B2C21E3F09F4B6C2EE
S113079008F09EC2183809F466C2A9C240E050E0CD
S11307A0BA0184E60E946903A9C240E050E0BA019C
S11307B084E60E946903A2C210918401112341F0CE
S11307C040E050E0BA0184E00E94690310E096C260
S11307D0809183018630E9F028F4843041F085303B
S11307E079F02BC08730F1F08C3829F126C0409382
S11307F058015093590160935A0170935B011DC0D5
S113080040935C0150935D0160935E0170935F01BE
S113081014C040936001509361016093620170932E
S113082063010BC0409364015093650160936601BA
S11308307093670102C04093680140E050E0BA0140
S113084084E60E9469035AC210918401112341F085
S113085040E050E0BA0184E00E94690310E04EC217
S113086080918301863049F130F48430F1F1C8F489
S1130870813059F05BC08C3809F443C0843C09F4DE
S113088049C0873009F052C024C0409154015091AE
S11308905501609156017091570184E60E946903E5
S11308A02DC240915C0150915D0160915E01709197
S11308B05F0184E60E94690321C240916001509166
S11308C06101609162017091630184E60E94690391
S11308D015C2409164015091650160916601709167
S11308E0670184E60E94690309C24091580150914E
S11308F0590160915A0170915B0184E60E94690379
S1130900FDC14091680150E060E070E084E60E941F
S11309106903F4C14091690150916A0160916B01CE
S113092070916C0184E60E946903E8C140E050E0E4
S1130930BA0184E00E946903E1C18091840182309C
S113094039F040E050E0BA0184E00E946903D6C166
S113095080918301882319F08130A1F026C091E0B1
S1130960452B462B472B09F490E080914F0190FBD7
S113097080F980934F0140E050E0BA0184E60E9480
S11309806903BCC191E0452B462B472B09F490E049
S113099080914F0190FB81F980934F0140E050E03A
S11309A0BA0184E60E946903A9C140E050E0BA019B
S11309B084E00E946903A2C100918401013009F41A
S11309C09DC128F0023009F444C010E097C1109191
S11309D08301113081F028F01230C9F0133021F175
S11309E030C040917F01417050E060E070E084E6E7
S11309F00E94690383C140917F014695417050E094
S1130A0060E070E084E60E946903102F77C1409192
S1130A107F0142FB442740F950E060E070E084E647
S1130A200E946903102F6AC140917F0143FB442750
S1130A3040F950E060E070E084E60E946903102F02
S1130A405DC140E050E0BA0184E00E946903102FC8
S1130A5055C110918301112319F0113059F016C0BA
S1130A6040914F01417050E060E070E084E60E94E4
S1130A70690344C140914F014695417050E060E0E4
S1130A8070E084E60E94690310E038C140E050E061
S1130A90BA0184E00E94690310E030C1109184011E
S1130AA0112341F040E050E0BA0184E00E94690360
S1130AB010E024C180918301813451F118F4803411
S1130AC041F086C0823409F443C08C3409F460C018
S1130AD07FC080917A0190E0A0E0B0E04817590708
S1130AE06A077B0771F0EAE7F1E0408319826081CD
S1130AF0298180918A0190918B01820F911D0E941E
S1130B00B11040E050E0BA0184E60E946903F6C0E7
S1130B1080917B0190E0A0E0B0E0481759076A0794
S1130B207B0779F0EAE7F1E0418381E08983618121
S1130B30298180918A0190918B01820F911D0E94DD
S1130B40B11040E050E0BA0184E60E946903D6C0C7
S1130B5080917C0190E0A0E0B0E0481759076A0753
S1130B607B0779F0EAE7F1E0428382E089836281DE
S1130B70298180918A0190918B01820F911D0E949D
S1130B80B11040E050E0BA0184E60E946903B6C0A7
S1130B9080917E0190E0A0E0B0E0481759076A0711
S1130BA07B0779F0EAE7F1E0448384E08983648198
S1130BB0298180918A0190918B01820F911D0E945D
S1130BC0B11040E050E0BA0184E60E94690396C087
S1130BD040E050E0BA0184E00E9469038FC01091A4
S1130BE08401112341F040E050E0BA0184E00E9406
S1130BF0690310E083C080918301813449F018F4C3
S1130C00803409F129C0823461F08C3499F024C015
S1130C1040917B0150E060E070E084E60E9469034B
S1130C206DC040917C0150E060E070E084E60E9479
S1130C30690364C040917E0150E060E070E084E6A6
S1130C400E9469035BC040917A0150E060E070E06B
S1130C5084E60E94690352C040E050E0BA0184E097
S1130C600E9469034BC010918301111115C0E1E783
S1130C70F1E080918C01808381E3818390E392830E
S1130C8022E32383848336E5358386832783908711
S1130C9081E08093030132C040E450E360E270E1FC
S1130CA084E60E94690310E029C05D9840E050E0AA
S1130CB0BA0184E60E94690310E020C05D9A41E015
S1130CC050E060E070E084E60E94690310E016C022
S1130CD04FEF50E060E070E084E60E9469035D98A5
S1130CE081E38A95F1F700005D9A10E007C040E0C7
S1130CF050E0BA0182E00E94690310E0812F0F9056
S1130D00DF91CF911F910F91089540E050E0BA0117
S1130D1084E60E946903089590910E019F5F9F717C
S1130D20E92FF0E0EA5DFD4F808190930E01089574
S1130D3090910D019F5F9F71E92FF0E0EA5DFD4FF7
S1130D40808390930D01089590910C01E92FF0E0B8
S1130D50E357FE4F80819F5F90930C01089580912B
S1130D60050180FD0BC08091050181608093050120
S1130D7010920C010E94A4068093C6000895882353
S1130D8031F0E1ECF0E08081806880830895E1EC4B
S1130D90F0E080818F7780830895882331F0E1EC3F
S1130DA0F0E08081806480830895E1ECF0E080814C
S1130DB08F7B808308951F920F920FB60F92112498
S1130DC02F933F934F935F936F937F938F939F934F
S1130DD0AF93BF93EF93FF9385E0809307018091D6
S1130DE0C00090910601892B809306018091C60072
S1130DF00E949806FF91EF91BF91AF919F918F91BF
S1130E007F916F915F914F913F912F910F900FBE02
S1130E100F901F9018951F920F920FB60F921124E6
S1130E202F933F934F935F936F937F938F939F93EE
S1130E30AF93BF93EF93FF938091050180FF0EC0A2
S1130E4080910C01893030F0809105018E7F809370
S1130E50050104C00E94A4068093C600FF91EF918F
S1130E60BF91AF919F918F917F916F915F914F91BE
S1130E703F912F910F900FBE0F901F90189587E010
S1130E808093C400E1ECF0E080818861808381E09C
S1130E900E94BF0681E00E94CD06109206010895CB
S1130EA0CF92DF92FF920F931F93CF93DF938091A2
S1130EB00B0190910A01981741F19091050190FD61
S1130EC024C08F5F482F4F70842F90E09C01220F25
S1130ED0331F220F331F220F331F280F391F2A5BA2
S1130EE03D4FB901675F7F4FF901DF01A21BB30BCF
S1130EF08191A357BE4F8C93E617F707B1F7409340
S1130F000B0110920C010E94AF068091050183FD34
S1130F1056C080910D0190910E01891B8F7189300B
S1130F2008F44DC0F090080181E08F0D8F70F82E09
S1130F30082F10E0E801CC0FDD1FCC0FDD1FCC0F14
S1130F40DD1FC00FD11FCA56DE4F6E0189E0C80EE7
S1130F50D11C0E948C068993CC15DD05D1F7EF2DA9
S1130F60F0E0CF01880F991F880F991F880F991FF0
S1130F70E80FF91FEA56FE4F90E080E02191920FAE
S1130F808F5F8830D9F7F801EE0FFF1FEE0FFF1FB8
S1130F90EE0FFF1F0E0F1F1FF801EA56FE4F80854C
S1130FA0891308C080910501886080930501F0923F
S1130FB0080105C080910501806180930501DF91DE
S1130FC0CF911F910F91FF90DF90CF900895809162
S1130FD00701882341F08091070181508093070124
S1130FE010920401089580910401811107C0809139
S1130FF00D0180930E0181E0809304010895809196
S113100009018F5F8F7090E09C01220F331F220F24
S1131010331F220F331F820F931F8A569E4F08954A
S1131020909109019F5F9F7090930901809108013D
S1131030891B8F7029F490910501977F9093050186
S1131040089540910A014F5F4F70DC01242F30E076
S1131050F901EE0FFF1FEE0FFF1FEE0FFF1FE20F50
S1131060F31FEA5BFD4F2F5F3F4FC901880F991FA4
S1131070880F991F880F991F280F391F2A5B3D4F2E
S11310808D918193E217F307D9F740930A010895EC
S113109080911A0190911B01891B8F710895909181
S11310A01A0180911B01981307C080911001886078
S11310B08093100180E0089590911B019F5F9F71C0
S11310C0E92FF0E0E150FC4F808190931B010895DB
S11310D020911A0140911B0130E02F5F3F4F2F7187
S11310E0332750E02417350731F4809110018460D0
S11310F080931001089590911A019F5F9F71E92FC9
S1131100F0E0E150FC4F808390931A0108958091A0
S11311101901893038F080911001826080931001A8
S113112080E00895E0911901F0E0EA52FD4F8081DA
S1131130909119019F5F9093190108958091110175
S113114080FD11C080911101816080931101E9EC4F
S1131150F0E080818F7E80835C9A109219010E9456
S113116087088093CE000895882331F0E9ECF0E0FD
S11311708081806880830895E9ECF0E080818F7736
S113118080830895882331F0E9ECF0E08081806465
S113119080830895E9ECF0E080818F7B808308955B
S11311A01F920F920FB60F9211242F933F934F93D8
S11311B05F936F937F938F939F93AF93BF93EF93BB
S11311C0FF9385E0809314018091C80090911201EF
S11311D0892B809312018091CE000E946808FF91B0
S11311E0EF91BF91AF919F918F917F916F915F919B
S11311F04F913F912F910F900FBE0F901F90189514
S11312001F920F920FB60F9211242F933F934F9377
S11312105F936F937F938F939F93AF93BF93EF935A
S1131220FF938091110180FF1CC0809119018930C6
S1131230A0F0809111018E7F8093110188EC80933E
S11312401301809111018460809311015C98E9EC91
S1131250F0E080818061808304C00E9487088093CD
S1131260CE00FF91EF91BF91AF919F918F917F91AC
S11312706F915F914F913F912F910F900FBE0F90FF
S11312801F90189583E08093CC00E9ECF0E0808116
S11312908861808381E00E94B40881E00E94C208D2
S11312A0109212010895BF92CF92DF92EF92FF92B3
S11312B00F931F93CF93DF9380911801909117019F
S11312C0981759F19091110190FD27C09091110147
S11312D092FD23C08F5F8F70282F30E0A901440F47
S11312E0551F440F551F440F551F240F351F2152FE
S11312F03D4F80931801A901475F5F4FF901DF015A
S1131300A21BB30B8191AA52BD4F8C93E417F5072E
S1131310B1F7109219010E949E088091110183FD7A
S113132064C00E944808893008F45FC0B090150179
S113133081E08B0D8F70B82EE82EF12CE701CC0FD5
S1131340DD1FCC0FDD1FCC0FDD1FCE0DDF1DC159FE
S1131350DC4F2FEFE21AF20AC701880F991F880F9A
S1131360991F880F991F8E0D9F1D9C0121593C4F79
S11313707901CB2CD12C86010E944F088993CE157C
S1131380DF05C9F7B0921501F601EE0FFF1FEE0F4E
S1131390FF1FEE0FFF1FEC0DFD1DE159FC4F90E008
S11313A080E02191920F8F5F8830D9F7F801EE0F1A
S11313B0FF1FEE0FFF1FEE0FFF1F0E0F1F1FF80181
S11313C0E159FC4F808589130BC08091110188601D
S11313D080931101809111018B7F8093110105C0CD
S11313E080911101806180931101DF91CF911F9150
S11313F00F91FF90EF90DF90CF90BF900895809170
S1131400110182FF0EC0809113018150809313015A
S113141080911301811105C0809111018B7F80930C
S1131420110180911401882341F0809114018150AD
S11314308093140110920F01089580910F0181117E
S113144007C080911A0180931B0181E080930F01F2
S113145008958091160190911501981308C0809108
S1131460100180688093100180E090E008958F5F00
S11314708F7090E09C01220F331F220F331F220F25
S1131480331F820F931F81599C4F08959091160129
S11314909F5F9F709093160180911501891B8F7037
S11314A029F490911101977F909311010895CF939E
S11314B0DF93FC0140911701842F90E001968F7017
S11314C099272091180130E08217930731F4809115
S11314D010018061809310012BC04F5F4F70842FE7
S11314E090E0DC01AA0FBB1FAA0FBB1FAA0FBB1FF2
S11314F0A80FB91FA152BD4FEF01289680E0642FB9
S113150070E09B0190819D939191890FEC17FD07E9
S1131510C1F7FB01EE0FFF1FEE0FFF1FEE0FFF1FC2
S11315202E0F3F1FF901E152FD4F808740931701B1
S1131530DF91CF91089590E08B30910580F5FC0107
S1131540E25CFF4F0C94E00E8FE58093CC0008958D
S11315508FE38093CC0008958FE28093CC000895AC
S11315608FE18093CC00089587E18093CC000895A7
S11315708FE08093CC0008958BE08093CC00089595
S113158087E08093CC00089583E08093CC00089595
S113159082E08093CC0008951092CC0008958FE2ED
S11315A08093CC0008951F920F920FB60F921124CE
S11315B08F9381E0809325018F910F900FBE0F9040
S11315C01F9018951F920F920FB60F9211248F93AC
S11315D081E0809325018F910F900FBE0F901F9093
S11315E018951F920F920FB60F9211248F9381E0DA
S11315F0809325018F910F900FBE0F901F90189527
S113160080912501882331F0109225010E94E7077B
S11316100E94FF090895419A85E08A95F1F741985F
S113162085E08A95F1F708958AE38AB987B18360E2
S113163087B95D9881E38A95F1F700005D9A0E946D
S11316403F070E9442090E94E9000E9419038BE9A6
S11316509AE0909302018093010180E190E00E945E
S113166034030E944502789408950F931F93CF93F7
S1131670DF930E940B0183E30E943E01CCE1D1E0A1
S113168004E211E00E944C018993C017D107D1F7FD
S1131690DF91CF911F910F9108950E94140B0E9426
S11316A0DA020E94AA020E94BA020E94CA020E949E
S11316B0350B0E944A020E94000B0E9450070E94B0
S11316C053090E940B0BF5CFA3E1B0E0EAE6FBE07F
S11316D00C94E60E6C014B012A01FC011782168260
S11316E0838181FF43C3AE014F5F5F4F3A01F6012F
S11316F09381F40193FD859193FF81914F01882398
S113170009F430C3853239F493FD859193FF8191B7
S11317104F01853239F4B60190E00E940B1052015A
S11317202501E5CF10E0F12C20E02032A0F48B322B
S113173069F030F4803259F0833269F420612CC0AE
S11317408D3239F0803339F4216026C02260246060
S113175023C0286021C027FD27C030ED380F3A3060
S113176078F426FF06C0FAE01F9F300D1124132FD2
S113177013C04AE0F49E300D1124F32E20620CC0F5
S11317808E3221F426FDEEC2206406C08C3611F49C
S1131790206802C0883641F4F40193FD859193FFDB
S11317A081914F018111C1CF9BEB980F933018F4B5
S11317B02061805E06C09BE9980F933008F071C1E8
S11317C02F7E26FF16E02F73322E853619F42064FF
S11317D0322E08C0863621F4F22FF0683F2E02C064
S11317E01111115037FE07C01C3350F4EE24E3945A
S11317F0E10E27E00BC0183038F027E017E005C0F1
S113180027E04CE3E42E02C0212FE12C520144E0F6
S1131810A40EB11CF20160817181828193810E2D2D
S1131820A3010E941D0F2C01098100FF02C003FFC8
S113183007C031FC08C032FE09C030E2232E07C0C5
S11318402DE2222E04C09BE2292E01C0212C802FE0
S11318508C7019F0211068C2A8C237FE0FC0E40CC6
S113186004FF04C08A81813309F4EA941E1474F5D8
S1131870F8E0FE1578F588E0E82E2CC036FC2AC086
S1131880812F90E0841595059CF02CEF42162FEFE4
S1131890520674F0432D4068342E0AC0E2E0F0E0B2
S11318A0EC0FFD1FE10FF11D8081803319F41150FD
S11318B01111F4CF37FE0EC0EE24E394E10E812F14
S11318C090E0481659062CF4141904C0EE24E3944D
S11318D001C010E037FE06C01414150434F4C2012C
S11318E0019605C085E090E002C081E090E02110FF
S11318F00196112331F0212F30E02F5F3F4F820FEB
S1131900931F2F2D30E08217930714F4F81A01C0A7
S1131910F12C832D897049F4FF2039F0B60180E25F
S113192090E00E940B10FA94F7CF222029F0B60120
S1131930822D90E00E940B1033FC09C0FF2039F087
S1131940B60180E390E00E940B10FA94F7CF37FEC3
S11319505AC0942D852D57FE02C090E080E0292EB8
S1131960382E20E030E0A2014E1951095D874C87E2
S1131970A201421953095F874E87612F70E0442703
S11319805527461B570B598B488B5FEF2516350699
S113199049F4B6018EE290E02A8B3B8B0E940B1037
S11319A03B892A89421453046CF04C855D854215A9
S11319B0530544F4EE85FF85E20FF31FE60DF71D92
S11319C0818101C080E351E0251A31082F5F3F4F28
S11319D048895989241635064CF0B60190E02A8BC3
S11319E03B8B0E940B102A893B89CFCF24143504EA
S11319F039F49A81963318F4953311F404FF81E392
S1131A00B60190E04BC08A81813309F00F7EB601A4
S1131A1090E00E940B10111105C034FC18C085E63B
S1131A2090E017C0B6018EE290E00E940B1082E0B5
S1131A30EE24E394E80EF301E80FF11D8081B60172
S1131A4090E00E940B1011508E2D91F7E6CF85E4A3
S1131A5090E0B6010E940B1057FC05C041145104DC
S1131A6039F404FF05C05194419451088DE201C03A
S1131A708BE2B60190E00E940B1080E39AE04916D5
S1131A8051042CF08F5F5AE0451A5108F7CFB60184
S1131A9090E00E940B10B601C201C0960E940B1088
S1131AA057C1833631F0833779F0833509F058C054
S1131AB021C05201E2E0AE0EB11CF20180818983A3
S1131AC001E010E0230114C05201F2E0AF0EB11C9A
S1131AD0F2014080518026FF03C0612F70E002C0F4
S1131AE06FEF7FEFC2012A8B0E9400108C012A89BC
S1131AF02F7715C05201F2E0AF0EB11CF201408005
S1131B00518026FF03C0612F70E002C06FEF7FEFAA
S1131B10C2012A8B0E94F50F8C012A892068322E7B
S1131B2023FD1AC08F2D90E008171907A8F4B601F9
S1131B3080E290E00E940B10FA94F4CFF20137FC9B
S1131B40859137FE81912F01B60190E00E940B1020
S1131B50F110FA94015011090115110579F7F8C033
S1131B60843611F0893659F5520127FF09C0F4E093
S1131B70AF0EB11CF20160817181828193810AC030
S1131B80F2E0AF0EB11CF20160817181072E000CEE
S1131B90880B990B2F76322E97FF09C0909580956C
S1131BA0709561957F4F8F4F9F4F2068322E2AE0AA
S1131BB030E0A3010E944310E82EE6183FC0022F34
S1131BC0853721F40F7E2AE030E01DC0097F8F366F
S1131BD091F018F4883559F0C5C0803719F088376A
S1131BE011F0C0C0006104FF09C0046007C024FFF5
S1131BF008C0066006C028E030E005C020E130E0FF
S1131C0002C020E132E0520107FF09C0F4E0AF0E48
S1131C10B11CF201608171818281938108C0F2E07C
S1131C20AF0EB11CF2016081718180E090E0A301EC
S1131C300E944310E82EE6180F77302E36FE0BC0B4
S1131C40332D3E7FE11650F434FE0AC032FC08C046
S1131C50332D3E7E05C00E2D332D03C00E2D01C045
S1131C60012F34FF0CC0FE01EE0DF11D8081803385
S1131C7011F4397E08C032FF05C00E5F04C0832F03
S1131C80867809F00F5F33FD13C030FF06C01E2DA8
S1131C900F1518F41F0D101B0F2D0F1568F4B60146
S1131CA080E290E03B8B0E940B100F5F3B89F5CFE5
S1131CB00F1510F4F01A01C0F12C34FF12C0B60154
S1131CC080E390E03B8B0E940B103B8932FF17C0EE
S1131CD031FD03C088E790E002C088E590E0B601DA
S1131CE00CC0832F867859F031FF02C08BE201C00B
S1131CF080E237FD8DE2B60190E00E940B10E11600
S1131D0038F4B60180E390E00E940B101150F7CF35
S1131D10EA94F301EE0DF11D8081B60190E00E947A
S1131D200B10E110F5CF14C0F4E0FF1558F584E072
S1131D30F81A33FE1EC0211026C003FF2AC002E990
S1131D4010E0F32DF0713F2EF8018491811124C02D
S1131D50FF2009F4E5CCB60180E290E00E940B106C
S1131D60FA94F6CFF6018681978126C08FEF9FEF14
S1131D7023C0B60180E290E00E940B10FA94F110A7
S1131D80F8CFD9CFF12CB601822D90E00E940B1030
S1131D90D4CF06E910E0D5CF31108052B60190E0DF
S1131DA00E940B100F5F1F4FCFCF23E02F1510F4AD
S1131DB083E0BECFF12CC1CF6396E2E10C94020F15
S1131DC0EE0FFF1F0590F491E02D09942F923F929E
S1131DD04F925F926F927F928F929F92AF92BF9237
S1131DE0CF92DF92EF92FF920F931F93CF93DF93E3
S1131DF0CDB7DEB7CA1BDB0B0FB6F894DEBF0FBE40
S1131E00CDBF09942A88398848885F846E847D848C
S1131E108C849B84AA84B984C884DF80EE80FD808E
S1131E200C811B81AA81B981CE0FD11D0FB6F89404
S1131E30DEBF0FBECDBFED010895283008F027E0C6
S1131E403327DA01990F311D87FD916000966105F2
S1131E50710539F432602E5F3D9330E32A95E1F742
S1131E6008959F3F30F080387105610509F03C5FAB
S1131E703C5F3D93913008F08068911DDF93CF93D0
S1131E801F930F93FF92EF92192F987F9695E92F46
S1131E9096959695E90FFF27EC50FF4F9927332726
S1131EA0EE24FF24A701E70105900894079428F481
S1131EB0360FE71EF81E491F511D660F771F881F36
S1131EC0991F0694A1F70590079428F4E70EF81ECD
S1131ED0491F561FC11D770F881F991F661F06943F
S1131EE0A1F70590079428F4F80E491F561FC71F41
S1131EF0D11D880F991F661F771F0694A1F70590BF
S1131F00079420F4490F561FC71FD81F990F661F47
S1131F10771F881F0694A9F784911095177041F0D4
S1131F20D695C79557954795F794E7941A95C1F7B1
S1131F30EAE9F0E0689415901591359165919591D1
S1131F4005907FE27395E118F10A430B560BC90B18
S1131F50D009C0F7E10CF11E431F561FC91FD01D45
S1131F607EF4703311F48A95E6CFE894015030F092
S1131F70080F0AF40027021708F4202F2395022FD4
S1131F807A3328F079E37D932A95E9F710C07D939D
S1131F902A9589F60694979567953795179517941A
S1131FA0E118F10A430B560BC90BD00998F023959D
S1131FB07E9173957A3308F070E37C932013B8F71D
S1131FC07E9170617D9330F0839571E37D9370E32E
S1131FD02A95E1F71124EF90FF900F911F91CF9173
S1131FE0DF91992787FD90950895FC010590615034
S1131FF070400110D8F7809590958E0F9F1F08951B
S1132000FC016150704001900110D8F780959095C3
S11320108E0F9F1F08950F931F93CF93DF93FB01A0
S1132020238121FD03C08FEF9FEF28C022FF16C03C
S113203046815781248135814217530744F4A08196
S1132040B1819D012F5F3F4F318320838C93268183
S113205037812F5F3F4F3783268310C0EB01092F51
S1132060182F0084F185E02D0995892BE1F68E81E6
S11320709F8101969F838E83812F902FDF91CF9133
S11320801F910F910895FA01AA27283051F12031A8
S113209081F1E8946F936E7F6E5F7F4F8F4F9F4FF8
S11320A0AF4FB1E03ED0B4E03CD0670F781F891F3A
S11320B09A1FA11D680F791F8A1F911DA11D6A0F08
S11320C0711D811D911DA11D20D009F468943F91BB
S11320D02AE0269F11243019305D3193DEF6CF01BA
S11320E00895462F4770405D4193B3E00FD0C9F780
S11320F0F6CF462F4F70405D4A3318F0495D31FDED
S11321004052419302D0A9F7EACFB4E0A69597953F
S1132110879577956795BA95C9F700976105710515
S113212008959B01AC010A2E06945795479537955F
S11321302795BA95C9F7620F731F841F951FA01DB9
S11321400895DC01CB01FC01F999FECF06C0F2BD74
S1132150E1BDF89A319600B40D9241505040B8F761
S11321600895262FF999FECF92BD81BDF89A019763
S113217000B4021639F01FBA20BD0FB6F894FA9ACB
S1132180F99A0FBE0895DC01CB0103C02D910E9482
S1132190CE1041505040D0F70895262FF999FECF24
S11321A01FBA92BD81BD20BD0FB6F894FA9AF99A70
S10D21B00FBE01960895F894FFCFC6
S9030000FC
