:100000000C94CA000C94E7000C94E7000C94E700F1
:100010000C94E7000C94E7000C94E7000C94E700C4
:100020000C94E7000C94E7000C94E7000C94E700B4
:100030000C94E7000C94E7000C94E7000C94E700A4
:100040000C94780A0C94870A0C94960A0C94E70096
:100050000C9489060C94E7000C94B9060C94E70004
:100060000C94E7000C94E7000C94E7000C94E70074
:100070000C947E080C94E7000C94AE08490A4D0AD3
:10008000510A550A590A5D0A610A650A690A6D0A28
:10009000710A6E616E00696E660000407A10F35A54
:1000A00000A0724E18090010A5D4E80000E87648B8
:1000B000170000E40B54020000CA9A3B000000E164
:1000C000F505000080969800000040420F000000F7
:1000D000A08601000000102700000000E8030000D7
:1000E00000006400000000000A00000000000100A1
:1000F000000000002C76D888DC674F0823DFC1DFC2
:10010000AE59E1B1B796E5E3E453C63AE6519976C4
:1001100096E8E6C28426EB898C9B62ED407C6FFCFE
:10012000EFBC9C9F40F2BAA56FA5F490055A2AF740
:100130005C936B6CF9676DC11BFCE0E40D47FEF549
:1001400020E6B500D0ED902E0300943577050080B1
:10015000841E080000204E0A000000C80C33333310
:10016000330F986E12831141EF8D2114893BE655B0
:1001700016CFFEE6DB18D1844B381BF77C1D901D93
:10018000A4BBE424203284725E228100C9F124ECF5
:10019000A1E53D2711241FBECFEFD0E1DEBFCDBFCB
:1001A00011E0A0E0B1E0E0E9F7E202C005900D92B5
:1001B000A039B107D9F726E0A0E9B1E001C01D924E
:1001C000A532B207E1F70E94C80A0C94C6130C943A
:1001D000000087E880937A0010927B008FEF809375
:1001E0007E0010927C001092AD011092AC01089537
:1001F000877080937C0086EF8A95F1F7EAE7F0E05C
:10020000808180648083808186FDFDCF809178002D
:10021000909179000895EEEAF1E084E1808385E031
:100220008183A5E7B5E08C91848311968C91119719
:10023000858312968C918683809190018783CF016C
:100240000E94CF0708950E944A038F3019F08E3F15
:10025000A9F0089580910902883048F40E94F800BE
:10026000AC0160E070E084E60E943403089540E051
:1002700050E0BA0183E00E9434030895809109029E
:10028000813069F028F08230B1F08330D9F00895E0
:1002900040E050E0BA0184E60E9434030895809162
:1002A000A1014091960150E060E070E0582B84E697
:1002B0000E94340308951092A101109296010E94A9
:1002C000330608950E940B0108958091D30188237D
:1002D000C1F08091CA0181110EC0EAECF1E0A7E003
:1002E000B2E023ED31E081918D93E217F307D9F766
:1002F0000E94230104C08AEC91E00E94FC09109244
:10030000D30108958091C001882331F087EB91E0FB
:100310000E94CF071092C00108958091950184FF3B
:1003200005C0809195018F7E809395018091950104
:1003300083FF11C00E94AD07DC01EAECF1E023ED80
:1003400031E08D918193E217F307D9F70E94BE0740
:1003500081E08093D30108958091C001811114C080
:1003600080919301882381F010929301A7EFB1E06F
:10037000E7EBF1E020EC31E08D918193E217F30798
:10038000D9F781E08093C00108958091A00184FF96
:100390000AC08091A0018F7E8093A001809190017E
:1003A000805F809390018091C00181111AC080917B
:1003B000A00183FF16C0809190018F5F8093900110
:1003C0000E94CE09DC01E7EBF1E020EC31E08D91F9
:1003D0008193E217F307D9F70E94EB0981E080933C
:1003E000C00108951092C0011092D30108950E9497
:1003F0008D010E9465010E94AC010E94C5010E940E
:1004000082010895CF93DF931F92CDB7DEB7198293
:100410008981811107C0000089818F5F898389816B
:100420008823C9F30F90DF91CF9108958FEF84B99E
:1004300088EF87B988B1886F88B9089514B846984D
:100440000E94020283B19FEF94B9469A0895CF9318
:10045000C82F0E941E028370E1F3C5B947980E941D
:100460000202479ACF910895CF93C82F0E941E028F
:100470008370E1F3C5B988B18F7588B90E94020213
:1004800088B1806A88B9CF910895CF93C92F0E940F
:1004900034028C2F0E94340284E20E942702CF9102
:1004A00008952EE1629FB00111249B01280F311D98
:1004B000C9010E94450208950E94340280EC0E9406
:1004C00027020895CF93DF9380E090E00E944502D9
:1004D000C0EED1E080E00E945C022197D9F7DF9165
:1004E000CF910895CF93DF9380E090E10E94450281
:1004F000C0E0D8E080E00E945C022197D9F7DF914C
:10050000CF910895CF93DF9380EE91E00E94450252
:10051000C0E0DFE080E00E945C022197D9F7DF9124
:10052000CF91089580520E945C020895CF93DF938B
:10053000EC018881882331F021960E9492028991F2
:100540008111FBCFDF91CF9108950E94160244984C
:1005500089EF90E00197F1F700C00000449A4398BA
:1005600080EE0E94340281E00E94340282E40E9404
:1005700027028EE10E94340280E00E94340283E46C
:100580000E94270280E00E94340280E00E94340230
:1005900080E40E9427028EE10E94340280E00E94E3
:1005A000340281E40E94270282E00E94340280E04B
:1005B0000E94340282E20E9427028CE90E942702F4
:1005C00080E80E942702089580E987BD84E688BDFF
:1005D00082E084BD85E085BDEEE6F0E0808182604A
:1005E00080830895E7EFF1E02FEF31E080E0919113
:1005F000890FE217F307D9F78093FF010895CF938E
:10060000DF93EC01909311028093100245E050E0DB
:10061000BC0180E092E00E948C1380910002823441
:1006200089F0E0E0F2E082E4808384E0818381E08D
:100630008283138282E0848345E050E0BE01CF01D3
:100640000E94AE13E0919101F0919201309719F060
:100650008091010209958091040280931202109208
:100660000602DF91CF910895E7EFF1E09091120239
:100670009083909106029183828380910802838304
:1006800074836583568347830E94F20281E08093DE
:10069000930108950F931F93CF93DF931F92CDB7CC
:1006A000DEB7E7E0F2E08481458150E060E070E091
:1006B000BA0155274427782B8781482B8681582BF0
:1006C0004093F3015093F4016093F5017093F601A8
:1006D00011811A3009F448C288F4143009F4BCC2FC
:1006E00028F4113001F1123029F1AFC2163009F4AB
:1006F00070C038F1193009F496C1A7C21F3009F44F
:1007000020C138F41D3009F4A7C21E3009F4DAC044
:100710009CC2183809F46CC21E3F09F49DC2113204
:1007200009F093C287C240E050E0BA0184E60E941B
:10073000340392C240E050E0BA0184E60E943403E0
:100740008BC210910A02112341F040E050E0BA013F
:1007500084E00E94340310E07FC280910902863059
:10076000E9F028F4843041F0853079F02BC08730EF
:10077000F1F08C3829F126C04093DE015093DF015F
:100780006093E0017093E1011DC04093E20150933A
:10079000E3016093E4017093E50114C04093E60126
:1007A0005093E7016093E8017093E9010BC0409317
:1007B000EA015093EB016093EC017093ED0102C0EC
:1007C0004093EE0140E050E0BA0184E60E94340319
:1007D00043C210910A02112341F040E050E0BA01F7
:1007E00084E00E94340310E037C280910902863011
:1007F00049F130F48430F1F1C8F4813059F05BC034
:100800008C3809F443C0843C09F449C0873009F0AE
:1008100052C024C04091DA015091DB016091DC01AB
:100820007091DD0184E60E94340316C24091E2011A
:100830005091E3016091E4017091E50184E60E942A
:1008400034030AC24091E6015091E7016091E8014A
:100850007091E90184E60E943403FEC14091EA01EF
:100860005091EB016091EC017091ED0184E60E94E2
:100870003403F2C14091DE015091DF016091E0014B
:100880007091E10184E60E943403E6C14091EE01DB
:1008900050E060E070E084E60E943403DDC14091E6
:1008A000EF015091F0016091F1017091F20184E645
:1008B0000E943403D1C140E050E0BA0184E00E94BC
:1008C0003403CAC180910A02823039F040E050E01E
:1008D000BA0184E00E943403BFC1809109028823D9
:1008E00019F08130A1F026C091E0452B462B472B13
:1008F00009F490E08091D50190FB80F98093D501B7
:1009000040E050E0BA0184E60E943403A5C191E0C2
:10091000452B462B472B09F490E08091D50190FBA5
:1009200081F98093D50140E050E0BA0184E60E944D
:10093000340392C140E050E0BA0184E00E943403E5
:100940008BC100910A02013009F486C128F00230FF
:1009500009F444C010E080C110910902113081F007
:1009600028F01230C9F0133021F130C04091050257
:10097000417050E060E070E084E60E9434036CC196
:10098000409105024695417050E060E070E084E6D9
:100990000E943403102F60C14091050242FB44279E
:1009A00040F950E060E070E084E60E943403102FCC
:1009B00053C14091050243FB442740F950E060E0F9
:1009C00070E084E60E943403102F46C140E050E0FE
:1009D000BA0184E00E943403102F3EC11091090235
:1009E000112319F0113059F016C04091D501417012
:1009F00050E060E070E084E60E9434032DC1409135
:100A0000D5014695417050E060E070E084E60E94B8
:100A1000340310E021C140E050E0BA0184E00E94BC
:100A2000340310E019C110910A02112341F040E093
:100A300050E0BA0184E00E94340310E00DC18091BF
:100A40000902813451F118F4803441F086C08234B7
:100A500009F443C08C3409F460C07FC08091000267
:100A600090E0A0E0B0E0481759076A077B0771F0F3
:100A7000E0E0F2E0408319826081298180911002D8
:100A800090911102820F911D0E949C1340E050E052
:100A9000BA0184E60E943403DFC08091010290E035
:100AA000A0E0B0E0481759076A077B0779F0E0E05B
:100AB000F2E0418381E08983618129818091100284
:100AC00090911102820F911D0E949C1340E050E012
:100AD000BA0184E60E943403BFC08091020290E014
:100AE000A0E0B0E0481759076A077B0779F0E0E01B
:100AF000F2E0428382E08983628129818091100241
:100B000090911102820F911D0E949C1340E050E0D1
:100B1000BA0184E60E9434039FC08091040290E0F1
:100B2000A0E0B0E0481759076A077B0779F0E0E0DA
:100B3000F2E0448384E089836481298180911002FA
:100B400090911102820F911D0E949C1340E050E091
:100B5000BA0184E60E9434037FC040E050E0BA014D
:100B600084E00E94340378C010910A02112341F0FE
:100B700040E050E0BA0184E00E94340310E06CC011
:100B800080910902813449F018F4803409F129C0B8
:100B9000823461F08C3499F024C04091010250E01D
:100BA00060E070E084E60E94340356C04091020287
:100BB00050E060E070E084E60E9434034DC0409154
:100BC000040250E060E070E084E60E94340344C018
:100BD0004091000250E060E070E084E60E9434033F
:100BE0003BC040E050E0BA0184E00E94340334C0CE
:100BF00010910902111115C0E7EFF1E08091120286
:100C0000808381E3818390E3928322E3238384833F
:100C100036E5358386832783908781E0809393012F
:100C20001BC040E450E360E270E184E60E943403BC
:100C300010E012C087E00E94F800AC0160E070E0B4
:100C400084E60E94340310E007C040E050E0BA019F
:100C500082E00E94340310E0812F0F90DF91CF914A
:100C60001F910F91089540E050E0BA0184E60E9480
:100C70003403089590919E019F5F9F77E92FF0E0E4
:100C8000E45CFC4F808190939E01089590919D01BA
:100C90009F5F9F77E92FF0E0E45CFC4F80839093A7
:100CA0009D01089590919C01E92FF0E0ED5EFD4FCC
:100CB00080819F5F90939C0108958091950180FDB4
:100CC0000BC08091950181608093950110929C01E9
:100CD0000E9452068093C6000895882331F0E1EC0B
:100CE000F0E08081806880830895E1ECF0E080810D
:100CF0008F7780830895882331F0E1ECF0E08081E4
:100D0000806480830895E1ECF0E080818F7B8083B4
:100D100008951F920F920FB60F9211242F933F93B5
:100D20004F935F936F937F938F939F93AF93BF93F3
:100D3000EF93FF9385E0809397018091C00090919D
:100D40009601892B809396018091C6000E944606E9
:100D5000FF91EF91BF91AF919F918F917F916F9193
:100D60005F914F913F912F910F900FBE0F901F9069
:100D700018951F920F920FB60F9211242F933F9345
:100D80004F935F936F937F938F939F93AF93BF9393
:100D9000EF93FF938091950180FF0EC080919C019D
:100DA000893030F0809195018E7F8093950104C049
:100DB0000E9452068093C600FF91EF91BF91AF91C0
:100DC0009F918F917F916F915F914F913F912F9163
:100DD0000F900FBE0F901F90189587E08093C4006E
:100DE000E1ECF0E080818861808381E00E946D0603
:100DF00081E00E947B06109296010895CF92DF92C7
:100E0000FF920F931F93CF93DF9380919B0190915B
:100E10009A01981741F19091950190FD24C08F5F40
:100E2000482F4F71842F90E09C01220F331F220F17
:100E3000331F220F331F280F391F24543C4FB90191
:100E4000675F7F4FF901DF01A21BB30B8191AD5E9C
:100E5000BD4F8C93E617F707B1F740939B011092B3
:100E60009C010E945D068091950183FD56C0809192
:100E70009D0190919E01891B8F77893008F44DC0A8
:100E8000F090980181E08F0D8F71F82E082F10E0FF
:100E9000E801CC0FDD1FCC0FDD1FCC0FDD1FC00F15
:100EA000D11FC45EDD4F6E0189E0C80ED11C0E94C7
:100EB0003A068993CC15DD05D1F7EF2DF0E0CF018F
:100EC000880F991F880F991F880F991FE80FF91F26
:100ED000E45EFD4F90E080E02191920F8F5F8830BB
:100EE000D9F7F801EE0FFF1FEE0FFF1FEE0FFF1FE8
:100EF0000E0F1F1FF801E45EFD4F8085891308C0A7
:100F000080919501886080939501F092980105C0C9
:100F100080919501806180939501DF91CF911F9120
:100F20000F91FF90DF90CF900895809197018823D3
:100F300041F0809197018150809397011092940124
:100F4000089580919401811107C080919D01809343
:100F50009E0181E0809394010895809199018F5FB3
:100F60008F7190E09C01220F331F220F331F220F3D
:100F7000331F820F931F845E9D4F089590919901B6
:100F80009F5F9F719093990180919801891B8F7148
:100F900029F490919501977F909395010895409140
:100FA0009A014F5F4F71DC01242F30E0F901EE0F01
:100FB000FF1FEE0FFF1FEE0FFF1FE20FF31FE454A2
:100FC000FC4F2F5F3F4FC901880F991F880F991F52
:100FD000880F991F280F391F24543C4F8D918193FE
:100FE000E217F307D9F740939A0108958091A90178
:100FF0009091AA01891B8F7108959091A901809108
:10100000AA01981307C080919F01886080939F0177
:1010100080E008959091AA019F5F9F71E92FF0E011
:10102000EB5FF94F80819093AA0108952091A90167
:101030004091AA0130E02F5F3F4F2F71332750E0DE
:101040002417350731F480919F01846080939F01BC
:1010500008959091A9019F5F9F71E92FF0E0EB5FE8
:10106000F94F80839093A90108958091A801893058
:1010700038F080919F01826080939F0180E0089505
:10108000E091A801F0E0E452FB4F80819091A8012B
:101090009F5F9093A80108958091A00180FD11C0E9
:1010A0008091A00181608093A001E9ECF0E0808153
:1010B0008F7E80835C9A1092A8010E9435088093ED
:1010C000CE000895882331F0E9ECF0E0808180685B
:1010D00080830895E9ECF0E080818F778083089524
:1010E000882331F0E9ECF0E080818064808308950A
:1010F000E9ECF0E080818F7B808308951F920F924E
:101100000FB60F9211242F933F934F935F936F93DA
:101110007F938F939F93AF93BF93EF93FF9385E05C
:101120008093A3018091C8009091A101892B8093A5
:10113000A1018091CE000E941608FF91EF91BF910E
:10114000AF919F918F917F916F915F914F913F915F
:101150002F910F900FBE0F901F9018951F920F9216
:101160000FB60F9211242F933F934F935F936F937A
:101170007F938F939F93AF93BF93EF93FF93809150
:10118000A00180FF1CC08091A8018930A0F080914F
:10119000A0018E7F8093A00182E38093A2018091C1
:1011A000A00184608093A0015C98E9ECF0E080816C
:1011B0008061808304C00E9435088093CE00FF9137
:1011C000EF91BF91AF919F918F917F916F915F91BF
:1011D0004F913F912F910F900FBE0F901F90189538
:1011E00087E18093CC00E9ECF0E080818861808326
:1011F00081E00E94620881E00E9470081092A101C3
:101200000895BF92CF92DF92EF92FF920F931F93B8
:10121000CF93DF938091A7019091A601981759F180
:101220009091A00190FD27C09091A00192FD23C054
:101230008F5F8F70282F30E0A901440F551F440F96
:10124000551F440F551F240F351F2B513B4F8093C3
:10125000A701A901475F5F4FF901DF01A21BB30B93
:101260008191A452BB4F8C93E417F507B1F710920C
:10127000A8010E944C088091A00183FD64C00E94D7
:10128000F607893008F45FC0B090A40181E08B0DAF
:101290008F70B82EE82EF12CE701CC0FDD1FCC0F9C
:1012A000DD1FCC0FDD1FCE0DDF1DCB58DA4F2FEF2A
:1012B000E21AF20AC701880F991F880F991F880F39
:1012C000991F8E0D9F1D9C012B583A4F7901CB2CF5
:1012D000D12C86010E94FD078993CE15DF05C9F741
:1012E000B092A401F601EE0FFF1FEE0FFF1FEE0FED
:1012F000FF1FEC0DFD1DEB58FA4F90E080E02191AF
:10130000920F8F5F8830D9F7F801EE0FFF1FEE0FB5
:10131000FF1FEE0FFF1F0E0F1F1FF801EB58FA4FB4
:10132000808589130BC08091A00188608093A00103
:101330008091A0018B7F8093A00105C08091A001C6
:1013400080618093A001DF91CF911F910F91FF9059
:10135000EF90DF90CF90BF9008958091A00182FF21
:101360000EC08091A20181508093A2018091A201C0
:10137000811105C08091A0018B7F8093A001809195
:10138000A301882331F08091A30181508093A301B0
:1013900008958091A9018093AA0108958091A501E3
:1013A0009091A401981308C080919F018068809358
:1013B0009F0180E090E008958F5F8F7090E09C0126
:1013C000220F331F220F331F220F331F820F931F51
:1013D0008B589A4F08959091A5019F5F9F709093AD
:1013E000A5018091A401891B8F7029F49091A0011F
:1013F000977F9093A0010895CF93DF93FC014091D4
:10140000A601842F90E001968F7099272091A70163
:1014100030E08217930731F480919F0180618093BF
:101420009F012BC04F5F4F70842F90E0DC01AA0F0B
:10143000BB1FAA0FBB1FAA0FBB1FA80FB91FAB5121
:10144000BB4FEF01289680E0642F70E09B019081F4
:101450009D939191890FEC17FD07C1F7FB01EE0FEA
:10146000FF1FEE0FFF1FEE0FFF1F2E0F3F1FF90193
:10147000EB51FB4F80874093A601DF91CF910895F8
:1014800090E08B30910580F5FC01E25CFF4F0C94FD
:10149000A8118FE58093CC0008958FE38093CC0052
:1014A00008958FE28093CC0008958FE18093CC0063
:1014B000089587E18093CC0008958FE08093CC005D
:1014C00008958BE08093CC00089587E08093CC0052
:1014D000089583E08093CC00089582E08093CC004F
:1014E00008951092CC0008958FE28093CC00089567
:1014F0001F920F920FB60F9211248F9381E0809369
:10150000AB018F910F900FBE0F901F9018951F92F7
:101510000F920FB60F9211248F9381E08093AB014D
:101520008F910F900FBE0F901F9018951F920F92E2
:101530000FB60F9211248F9381E08093AB018F91AE
:101540000F900FBE0F901F9018958091AB018823CC
:1015500031F01092AB010E9495070E94AD090895E9
:101560008AE18AB90E94ED060E94F0080E94E90013
:101570000E94E40280E49AE09093920180939101AA
:1015800080E190E00E94FF020E94F20178940895A9
:10159000CF93DF93CDB7DEB764970FB6F894DEBF75
:1015A0000FBECDBF0E94B00A0E94A5020E94620237
:1015B0000E9472020E948202D12C0F2EFCE0CF2EDC
:1015C000F02D8E010F5F1F4F0F2EF3E2EF2EF1E093
:1015D000FF2EF02D0E94F7010E94A50A0E94FE0630
:1015E0000E9401098091AB018823A1F324E62D1507
:1015F00010F0D394EFCF0E94820260E085E00E9459
:10160000510280E091E00E949602F8012C2D119287
:101610002A95E9F786E00E94F8005C0164E085E025
:101620000E94510286E191E00E949602B50180E09D
:1016300090E00E94080D2DEC3CEC44EF50E40E9439
:101640009B0D20E030E04AE754E40E94960C9F9303
:101650008F937F936F93FF92EF921F930F930E944C
:101660000B13C8010E949602F8012C2D11922A95A5
:10167000E9F785E00E94F8005C0165E085E00E94E2
:1016800051028BE291E00E949602B50180E090E069
:101690000E94080D2DEC3CEC44EF50E40E949B0DA1
:1016A00020E030E04AE754E40E94960C9F938F9329
:1016B0007F936F93FF92EF921F930F930E940B13F0
:1016C000C8010E949602F8012C2D11922A95E9F783
:1016D00087E00E94F8005C0166E085E00E9451020C
:1016E00088E391E00E949602B50180E090E00E94BC
:1016F000080D2DEC3CEC44EF50E40E949B0D20E0E3
:1017000030E04AE754E40E94960C0FB6F894DEBF2E
:101710000FBECDBF20E030E040E950E40E94960DBE
:1017200018162CF485E491E00E94960204C08DE422
:1017300091E00E949602F8012C2D11922A95E9F76A
:1017400084E00E94F8005C0167E085E00E9451029D
:1017500085E591E00E949602B50180E090E00E944C
:10176000080D2DEC3CEC44EF50E40E949B0D20E072
:1017700030E04AE754E40E94960C9F938F937F9346
:101780006F93FF92EF921F930F930E940B13C80168
:101790000E949602F8012C2D11922A95E9F782E019
:1017A0000E94F8005C0168E085E00E94510282E638
:1017B00091E00E949602B50180E090E00E94080D41
:1017C0002DEC3CEC4CE251E40E949B0D20E030E01B
:1017D0004AE754E40E94960C9F938F937F936F93F4
:1017E000FF92EF921F930F930E940B13C8010E9468
:1017F0009602F8012C2D11922A95E9F783E00E94B8
:10180000F8005C0169E085E00E9451028FE691E0FA
:101810000E94960269E081E10E945102B50180E0D8
:1018200090E00E94080D28E431EE4EE451EC0E9455
:101830009B0D20E030E04AE754E40E94960C9F9311
:101840008F937F936F93FF92EF921F930F930E945A
:101850000B13C8010E949602F8012C2D11922A95B3
:10186000E9F781E00E94F8005C016AE085E00E94EF
:10187000510285E791E00E949602B50180E090E078
:101880000E94080D26EF38E24CEF51E40E949B0DB8
:1018900020E030E04AE754E40E94960C9F938F9337
:1018A0007F936F93FF92EF921F930F930E940B13FE
:1018B0000FB6F894DEBF0FBECDBFC8010E949602DE
:1018C000F8012C2D11922A95E9F780E00E94F8008A
:1018D0005C016BE085E00E94510282E891E00E9489
:1018E0009602B50180E090E00E94080D26EF38E2F4
:1018F0004CEF51E40E949B0D20E030E04AE754E4B5
:101900000E94960C9F938F937F936F93FF92EF9219
:101910001F930F930E940B13C8010E9496020FB6EB
:10192000F894DEBF0FBECDBFD12C54CE0E94AA0CBE
:101930000C945C0D0E94550D58F00E944E0D40F025
:1019400029F45F3F29F00C94450D51110C94900D32
:101950000C944B0D0E946D0D68F39923B1F3552340
:1019600091F3951B550BBB27AA27621773078407B2
:1019700038F09F5F5F4F220F331F441FAA1FA9F348
:1019800035D00E2E3AF0E0E832D091505040E69536
:10199000001CCAF72BD0FE2F29D0660F771F881F97
:1019A000BB1F261737074807AB07B0E809F0BB0B8A
:1019B000802DBF01FF2793585F4F3AF09E3F51059E
:1019C00078F00C94450D0C94900D5F3FE4F3983E35
:1019D000D4F3869577956795B795F7959F5FC9F787
:1019E000880F911D9695879597F90895E1E0660F08
:1019F000771F881FBB1F621773078407BA0720F081
:101A0000621B730B840BBA0BEE1F88F7E0950895E9
:101A1000E89409C097FB3EF4909580957095619588
:101A20007F4F8F4F9F4F9923A9F0F92F96E9BB273E
:101A30009395F695879577956795B795F111F8CFBA
:101A4000FAF4BB0F11F460FF1BC06F5F7F4F8F4F25
:101A50009F4F16C0882311F096E911C0772321F01B
:101A60009EE8872F762F05C0662371F096E8862FB3
:101A700070E060E02AF09A95660F771F881FDAF70A
:101A8000880F9695879597F9089597F99F6780E84D
:101A900070E060E008959FEF80EC089500240A94C0
:101AA0001616170618060906089500240A94121639
:101AB0001306140605060895092E0394000C11F46C
:101AC000882352F0BB0F40F4BF2B11F460FF04C019
:101AD0006F5F7F4F8F4F9F4F089557FD9058440F72
:101AE000551F59F05F3F71F04795880F97FB991F7D
:101AF00061F09F3F79F0879508951216130614063A
:101B0000551FF2CF4695F1DF08C0161617061806C6
:101B1000991FF1CF86957105610508940895E894A1
:101B2000BB2766277727CB0197F908950E94080EF7
:101B300008F48FEF08950E94AE0D0C945C0D0E9486
:101B40004E0D38F00E94550D20F0952311F00C94A5
:101B5000450D0C944B0D11240C94900D0E946D0DAD
:101B600070F3959FC1F3950F50E0551F629FF001F0
:101B7000729FBB27F00DB11D639FAA27F00DB11D09
:101B8000AA1F649F6627B00DA11D661F829F222792
:101B9000B00DA11D621F739FB00DA11D621F839F19
:101BA000A00D611D221F749F3327A00D611D231FEF
:101BB000849F600D211D822F762F6A2F11249F573D
:101BC00050409AF0F1F088234AF0EE0FFF1FBB1F40
:101BD000661F771F881F91505040A9F79E3F5105FF
:101BE00080F00C94450D0C94900D5F3FE4F3983E0B
:101BF000D4F3869577956795B795F795E7959F5FA9
:101C0000C1F7FE2B880F911D9695879597F908953A
:101C1000990F0008550FAA0BE0E8FEEF16161706FD
:101C2000E807F907C0F012161306E407F50798F065
:101C3000621B730B840B950B39F40A2661F0232B7E
:101C4000242B252B21F408950A2609F4A140A695FA
:101C50008FEF811D811D0895A3E1B0E0E2E3FEE076
:101C60000C94AE116C014B012A01FC011782168203
:101C7000838181FF43C3AE014F5F5F4F3A01F6019D
:101C80009381F40193FD859193FF81914F01882306
:101C900009F430C3853239F493FD859193FF819126
:101CA0004F01853239F4B60190E00E94D3125201FF
:101CB0002501E5CF10E0F12C20E02032A0F48B329A
:101CC00069F030F4803259F0833269F420612CC01D
:101CD0008D3239F0803339F4216026C022602460CF
:101CE00023C0286021C027FD27C030ED380F3A30CF
:101CF00078F426FF06C0FAE01F9F300D1124132F41
:101D000013C04AE0F49E300D1124F32E20620CC063
:101D10008E3221F426FDEEC2206406C08C3611F40A
:101D2000206802C0883641F4F40193FD859193FF49
:101D300081914F018111C1CF9BEB980F933018F423
:101D40002061805E06C09BE9980F933008F071C156
:101D50002F7E26FF16E02F73322E853619F420646D
:101D6000322E08C0863621F4F22FF0683F2E02C0D2
:101D70001111115037FE07C01C3350F4EE24E394C8
:101D8000E10E27E00BC0183038F027E017E005C05F
:101D900027E04CE3E42E02C0212FE12C520144E065
:101DA000A40EB11CF20160817181828193810E2D9C
:101DB000A3010E94E5112C01098100FF02C003FF6D
:101DC00007C031FC08C032FE09C030E2232E07C034
:101DD0002DE2222E04C09BE2292E01C0212C802F4F
:101DE0008C7019F0211068C2A8C237FE0FC0E40C35
:101DF00004FF04C08A81813309F4EA941E1474F547
:101E0000F8E0FE1578F588E0E82E2CC036FC2AC0F4
:101E1000812F90E0841595059CF02CEF42162FEF52
:101E2000520674F0432D4068342E0AC0E2E0F0E020
:101E3000EC0FFD1FE10FF11D8081803319F411506B
:101E40001111F4CF37FE0EC0EE24E394E10E812F82
:101E500090E0481659062CF4141904C0EE24E394BB
:101E600001C010E037FE06C01414150434F4C2019A
:101E7000019605C085E090E002C081E090E021106D
:101E80000196112331F0212F30E02F5F3F4F820F59
:101E9000931F2F2D30E08217930714F4F81A01C016
:101EA000F12C832D897049F4FF2039F0B60180E2CE
:101EB00090E00E94D312FA94F7CF222029F0B601C5
:101EC000822D90E00E94D31233FC09C0FF2039F02C
:101ED000B60180E390E00E94D312FA94F7CF37FE68
:101EE0005AC0942D852D57FE02C090E080E0292E27
:101EF000382E20E030E0A2014E1951095D874C8751
:101F0000A201421953095F874E87612F70E0442771
:101F10005527461B570B598B488B5FEF2516350607
:101F200049F4B6018EE290E02A8B3B8B0E94D312DB
:101F30003B892A89421453046CF04C855D85421517
:101F4000530544F4EE85FF85E20FF31FE60DF71D00
:101F5000818101C080E351E0251A31082F5F3F4F96
:101F600048895989241635064CF0B60190E02A8B31
:101F70003B8B0E94D3122A893B89CFCF241435048E
:101F800039F49A81963318F4953311F404FF81E300
:101F9000B60190E04BC08A81813309F00F7EB60113
:101FA00090E00E94D312111105C034FC18C085E6E0
:101FB00090E017C0B6018EE290E00E94D31282E05A
:101FC000EE24E394E80EF301E80FF11D8081B601E1
:101FD00090E00E94D31211508E2D91F7E6CF85E448
:101FE00090E0B6010E94D31257FC05C04114510481
:101FF00039F404FF05C05194419451088DE201C0A9
:102000008BE2B60190E00E94D31280E39AE0491679
:1020100051042CF08F5F5AE0451A5108F7CFB601F2
:1020200090E00E94D312B601C201C0960E94D31262
:1020300057C1833631F0833779F0833509F058C0C2
:1020400021C05201E2E0AE0EB11CF2018081898311
:1020500001E010E0230114C05201F2E0AF0EB11C08
:10206000F2014080518026FF03C0612F70E002C062
:102070006FEF7FEFC2012A8B0E94C8128C012A8960
:102080002F7715C05201F2E0AF0EB11CF201408073
:10209000518026FF03C0612F70E002C06FEF7FEF19
:1020A000C2012A8B0E94BD128C012A892068322E1F
:1020B00023FD1AC08F2D90E008171907A8F4B60168
:1020C00080E290E00E94D312FA94F4CFF20137FC40
:1020D000859137FE81912F01B60190E00E94D312C5
:1020E000F110FA94015011090115110579F7F8C0A2
:1020F000843611F0893659F5520127FF09C0F4E002
:10210000AF0EB11CF20160817181828193810AC09E
:10211000F2E0AF0EB11CF20160817181072E000C5C
:10212000880B990B2F76322E97FF09C090958095DA
:10213000709561957F4F8F4F9F4F2068322E2AE018
:1021400030E0A3010E942E13E82EE6183FC0022FB4
:10215000853721F40F7E2AE030E01DC0097F8F36DD
:1021600091F018F4883559F0C5C0803719F08837D8
:1021700011F0C0C0006104FF09C0046007C024FF63
:1021800008C0066006C028E030E005C020E130E06D
:1021900002C020E132E0520107FF09C0F4E0AF0EB7
:1021A000B11CF201608171818281938108C0F2E0EB
:1021B000AF0EB11CF2016081718180E090E0A3015B
:1021C0000E942E13E82EE6180F77302E36FE0BC035
:1021D000332D3E7FE11650F434FE0AC032FC08C0B5
:1021E000332D3E7E05C00E2D332D03C00E2D01C0B4
:1021F000012F34FF0CC0FE01EE0DF11D80818033F4
:1022000011F4397E08C032FF05C00E5F04C0832F71
:10221000867809F00F5F33FD13C030FF06C01E2D16
:102220000F1518F41F0D101B0F2D0F1568F4B601B4
:1022300080E290E03B8B0E94D3120F5F3B89F5CF89
:102240000F1510F4F01A01C0F12C34FF12C0B601C2
:1022500080E390E03B8B0E94D3123B8932FF17C092
:1022600031FD03C088E790E002C088E590E0B60148
:102270000CC0832F867859F031FF02C08BE201C079
:1022800080E237FD8DE2B60190E00E94D312E116A4
:1022900038F4B60180E390E00E94D3121150F7CFDA
:1022A000EA94F301EE0DF11D8081B60190E00E94E9
:1022B000D312E110F5CF14C0F4E0FF1558F584E017
:1022C000F81A33FE1EC0211026C003FF2AC002E9FF
:1022D00010E0F32DF0713F2EF8018491811124C09C
:1022E000FF2009F4E5CCB60180E290E00E94D31211
:1022F000FA94F6CFF6018681978126C08FEF9FEF83
:1023000023C0B60180E290E00E94D312FA94F1104B
:10231000F8CFD9CFF12CB601822D90E00E94D312D4
:10232000D4CF06E910E0D5CF31108052B60190E04D
:102330000E94D3120F5F1F4FCFCF23E02F1510F451
:1023400083E0BECFF12CC1CF6396E2E10C94CA11B9
:10235000EE0FFF1F0590F491E02D09942F923F920C
:102360004F925F926F927F928F929F92AF92BF92A5
:10237000CF92DF92EF92FF920F931F93CF93DF9351
:10238000CDB7DEB7CA1BDB0B0FB6F894DEBF0FBEAE
:10239000CDBF09942A88398848885F846E847D84FB
:1023A0008C849B84AA84B984C884DF80EE80FD80FD
:1023B0000C811B81AA81B981CE0FD11D0FB6F89473
:1023C000DEBF0FBECDBFED010895283008F027E035
:1023D0003327DA01990F311D87FD91600096610561
:1023E000710539F432602E5F3D9330E32A95E1F7B1
:1023F00008959F3F30F080387105610509F03C5F1A
:102400003C5F3D93913008F08068911DDF93CF933E
:102410001F930F93FF92EF92192F987F9695E92FB4
:1024200096959695E90FFF27EC50FF4F9927332794
:10243000EE24FF24A701E70105900894079428F4EF
:10244000360FE71EF81E491F511D660F771F881FA4
:10245000991F0694A1F70590079428F4E70EF81E3B
:10246000491F561FC11D770F881F991F661F0694AD
:10247000A1F70590079428F4F80E491F561FC71FAF
:10248000D11D880F991F661F771F0694A1F705902D
:10249000079420F4490F561FC71FD81F990F661FB6
:1024A000771F881F0694A9F784911095177041F043
:1024B000D695C79557954795F794E7941A95C1F720
:1024C000EAE9F0E068941590159135916591959140
:1024D00005907FE27395E118F10A430B560BC90B87
:1024E000D009C0F7E10CF11E431F561FC91FD01DB4
:1024F0007EF4703311F48A95E6CFE894015030F001
:10250000080F0AF40027021708F4202F2395022F42
:102510007A3328F079E37D932A95E9F710C07D930B
:102520002A9589F606949795679537951795179488
:10253000E118F10A430B560BC90BD00998F023950B
:102540007E9173957A3308F070E37C932013B8F78B
:102550007E9170617D9330F0839571E37D9370E39C
:102560002A95E1F71124EF90FF900F911F91CF91E1
:10257000DF91992787FD90950895FC0105906150A2
:1025800070400110D8F7809590958E0F9F1F089589
:10259000FC016150704001900110D8F78095909532
:1025A0008E0F9F1F08950F931F93CF93DF93FB010F
:1025B000238121FD03C08FEF9FEF28C022FF16C0AB
:1025C00046815781248135814217530744F4A08105
:1025D000B1819D012F5F3F4F318320838C932681F2
:1025E00037812F5F3F4F3783268310C0EB01092FC0
:1025F000182F0084F185E02D0995892BE1F68E8155
:102600009F8101969F838E83812F902FDF91CF91A1
:102610001F910F910895AEE0B0E0E1E1F3E10C9479
:10262000BC110D891E8986E08C831A8309838FEF84
:102630009FE79E838D83AE01475E5F4F6F89788DE4
:10264000CE0101960E942C0E2F813885F801E20FF1
:10265000F31F10822E96E4E00C94D811FA01AA27F9
:10266000283051F1203181F1E8946F936E7F6E5FD5
:102670007F4F8F4F9F4FAF4FB1E03ED0B4E03CD083
:10268000670F781F891F9A1FA11D680F791F8A1F66
:10269000911DA11D6A0F711D811D911DA11D20D0CD
:1026A00009F468943F912AE0269F11243019305D87
:1026B0003193DEF6CF010895462F4770405D419378
:1026C000B3E00FD0C9F7F6CF462F4F70405D4A33C5
:1026D00018F0495D31FD4052419302D0A9F7EACF8D
:1026E000B4E0A6959795879577956795BA95C9F7BC
:1026F00000976105710508959B01AC010A2E0694AF
:102700005795479537952795BA95C9F7620F731F67
:10271000841F951FA01D0895DC01CB01FC01F999D0
:10272000FECF06C0F2BDE1BDF89A319600B40D921D
:1027300041505040B8F70895262FF999FECF92BD29
:1027400081BDF89A019700B4021639F01FBA20BD76
:102750000FB6F894FA9AF99A0FBE0895DC01CB01EE
:1027600003C02D910E94B91341505040D0F70895F5
:10277000262FF999FECF1FBA92BD81BD20BD0FB69D
:10278000F894FA9AF99A0FBE01960895F894FFCF3B
:1027900041746F6D5472616365202D205363692D00
:1027A0005472616365004275732D413A20202020E8
:1027B000202000252B362E326656004275732D429E
:1027C0003A202020202020005553423A202020206B
:1027D0002020202000436F6E6E6563740020204E21
:1027E0002E432E20002B35563A202020202020205A
:1027F00020002B3132563A20202020202020002D8E
:102800003132563A002B3234562D42503A20202095
:1028100020002B3234562D524A3A2020202000002E
:00000001FF
