:100000000C94CA000C94E7000C94E7000C94E700F1
:100010000C94E7000C94E7000C94E7000C94E700C4
:100020000C94E7000C94E7000C94E7000C94E700B4
:100030000C94E7000C94E7000C94E7000C94E700A4
:100040000C947A0A0C94890A0C94980A0C94E70090
:100050000C948B060C94E7000C94BB060C94E70000
:100060000C94E7000C94E7000C94E7000C94E70074
:100070000C9480080C94E7000C94B0084B0A4F0ACB
:10008000530A570A5B0A5F0A630A670A6B0A6F0A18
:10009000730A6E616E00696E660000407A10F35A52
:1000A00000A0724E18090010A5D4E80000E87648B8
:1000B000170000E40B54020000CA9A3B000000E164
:1000C000F505000080969800000040420F000000F7
:1000D000A08601000000102700000000E8030000D7
:1000E00000006400000000000A00000000000100A1
:1000F000000000002C76D888DC674F0823DFC1DFC2
:10010000AE59E1B1B796E5E3E453C63AE6519976C4
:1001100096E8E6C28426EB898C9B62ED407C6FFCFE
:10012000EFBC9C9F40F2BAA56FA5F490055A2AF740
:100130005C936B6CF9676DC11BFCE0E40D47FEF549
:1001400020E6B500D0ED902E0300943577050080B1
:10015000841E080000204E0A000000C80C33333310
:10016000330F986E12831141EF8D2114893BE655B0
:1001700016CFFEE6DB18D1844B381BF77C1D901D93
:10018000A4BBE424203284725E228100C9F124ECF5
:10019000A1E53D2711241FBECFEFD0E1DEBFCDBFCB
:1001A00011E0A0E0B1E0ECE8F7E202C005900D92AA
:1001B000A639B107D9F726E0A6E9B1E001C01D9242
:1001C000AB32B207E1F70E94CA0A0C94C4130C9434
:1001D000000087E880937A0010927B008FEF809375
:1001E0007E0010927C001092B3011092B20108952B
:1001F000877080937C0086EF8A95F1F7EAE7F0E05C
:10020000808180648083808186FDFDCF809178002D
:10021000909179000895E4EBF1E084E1808385E03A
:100220008183ABE7B5E08C91848311968C91119713
:10023000858312968C918683809196018783CF0166
:100240000E94D10708950E944A038F3019F08E3F13
:10025000A9F0089580910F02883048F40E94F800B8
:10026000AC0160E070E084E60E943403089540E051
:1002700050E0BA0183E00E943403089580910F0298
:10028000813069F028F08230B1F08330D9F00895E0
:1002900040E050E0BA0184E60E9434030895809162
:1002A000A70140919C0150E060E070E0582B84E68B
:1002B0000E94340308951092A70110929C010E949D
:1002C000350608950E940B0108958091D901882375
:1002D000C1F08091D00181110EC0E0EDF1E0ADE000
:1002E000B2E029ED31E081918D93E217F307D9F760
:1002F0000E94230104C080ED91E00E94FE0910924B
:10030000D90108958091C601882331F08DEB91E0E9
:100310000E94D1071092C601089580919B0184FF2D
:1003200005C080919B018F7E80939B0180919B01F2
:1003300083FF11C00E94AF07DC01E0EDF1E029ED81
:1003400031E08D918193E217F307D9F70E94C0073E
:1003500081E08093D90108958091C601811114C074
:1003600080919901882381F010929901ADEFB1E05D
:10037000EDEBF1E026EC31E08D918193E217F3078C
:10038000D9F781E08093C60108958091A60184FF8A
:100390000AC08091A6018F7E8093A601809196016C
:1003A000805F809396018091C60181111AC080916F
:1003B000A60183FF16C0809196018F5F80939601FE
:1003C0000E94D009DC01EDEBF1E026EC31E08D91EB
:1003D0008193E217F307D9F70E94ED0981E080933A
:1003E000C60108951092C6011092D90108950E9485
:1003F0008D010E9465010E94AC010E94C5010E940E
:1004000082010895CF93DF931F92CDB7DEB7198293
:100410008981811107C0000089818F5F898389816B
:100420008823C9F30F90DF91CF9108958FEF84B99E
:1004300088EF87B988B1886F88B9089514B846984D
:100440000E94020283B19FEF94B9469A0895CF9318
:10045000C82F0E941E028370E1F3C5B947980E941D
:100460000202479ACF910895CF93C82F0E941E028F
:100470008370E1F3C5B988B18F7588B90E94020213
:1004800088B1806A88B9CF910895CF93C92F0E940F
:1004900034028C2F0E94340284E20E942702CF9102
:1004A00008952EE1629FB00111249B01280F311D98
:1004B000C9010E94450208950E94340280EC0E9406
:1004C00027020895CF93DF9380E090E00E944502D9
:1004D000C0EED1E080E00E945C022197D9F7DF9165
:1004E000CF910895CF93DF9380E090E10E94450281
:1004F000C0E0D8E080E00E945C022197D9F7DF914C
:10050000CF910895CF93DF9380EE91E00E94450252
:10051000C0E0DFE080E00E945C022197D9F7DF9124
:10052000CF91089580520E945C020895CF93DF938B
:10053000EC018881882331F021960E9492028991F2
:100540008111FBCFDF91CF9108950E94160244984C
:1005500089EF90E00197F1F700C00000449A4398BA
:1005600080EE0E94340281E00E94340282E40E9404
:1005700027028EE10E94340280E00E94340283E46C
:100580000E94270280E00E94340280E00E94340230
:1005900080E40E9427028EE10E94340280E00E94E3
:1005A000340281E40E94270282E00E94340280E04B
:1005B0000E94340282E20E9427028CE90E942702F4
:1005C00080E80E942702089580E987BD84E688BDFF
:1005D00082E084BD85E085BDEEE6F0E0808182604A
:1005E00080830895EDEFF1E025E032E080E0919125
:1005F000890FE217F307D9F7809305020895CF9387
:10060000DF93EC01909317028093160245E050E0CF
:10061000BC0186E092E00E948A1380910602823437
:1006200089F0E6E0F2E082E4808384E0818381E087
:100630008283138282E0848345E050E0BE01CF01D3
:100640000E94AC13E0919701F0919801309719F056
:1006500080910702099580910A02809318021092F6
:100660000C02DF91CF910895EDEFF1E09091180227
:10067000908390910C029183828380910E028383F8
:1006800074836583568347830E94F20281E08093DE
:10069000990108950F931F93CF93DF931F92CDB7C6
:1006A000DEB7EDE0F2E08481458150E060E070E08B
:1006B000BA0155274427782B8781482B8681582BF0
:1006C0004093F9015093FA016093FB017093FC0190
:1006D00011811A3009F448C288F4143009F4BEC2FA
:1006E00028F4113001F1123029F1B1C2163009F4A9
:1006F00070C038F1193009F496C1A9C21F3009F44D
:1007000020C138F41D3009F4A9C21E3009F4DAC042
:100710009EC2183809F46CC21E3F09F49FC2113200
:1007200009F095C287C240E050E0BA0184E60E9419
:10073000340394C240E050E0BA0184E60E943403DE
:100740008DC210911002112341F040E050E0BA0137
:1007500084E00E94340310E081C280910F02863051
:10076000E9F028F4843041F0853079F02BC08730EF
:10077000F1F08C3829F126C04093E4015093E50153
:100780006093E6017093E7011DC04093E801509328
:10079000E9016093EA017093EB0114C04093EC010E
:1007A0005093ED016093EE017093EF010BC0409305
:1007B000F0015093F1016093F2017093F30102C0D4
:1007C0004093F40140E050E0BA0184E60E94340313
:1007D00045C210911002112341F040E050E0BA01EF
:1007E00084E00E94340310E039C280910F02863009
:1007F00049F130F48430F1F1C8F4813059F05BC034
:100800008C3809F443C0843C09F449C0873009F0AE
:1008100052C024C04091E0015091E1016091E20199
:100820007091E30184E60E94340318C24091E8010C
:100830005091E9016091EA017091EB0184E60E9418
:1008400034030CC24091EC015091ED016091EE0136
:100850007091EF0184E60E94340300C24091F001E0
:100860005091F1016091F2017091F30184E60E94D0
:100870003403F4C14091E4015091E5016091E60137
:100880007091E70184E60E943403E8C14091F401CD
:1008900050E060E070E084E60E943403DFC14091E4
:1008A000F5015091F6016091F7017091F80184E62D
:1008B0000E943403D3C140E050E0BA0184E00E94BA
:1008C0003403CCC180911002823039F040E050E016
:1008D000BA0184E00E943403C1C180910F028823D1
:1008E00019F08130A1F026C091E0452B462B472B13
:1008F00009F490E08091DB0190FB80F98093DB01AB
:1009000040E050E0BA0184E60E943403A7C191E0C0
:10091000452B462B472B09F490E08091DB0190FB9F
:1009200081F98093DB0140E050E0BA0184E60E9447
:10093000340394C140E050E0BA0184E00E943403E3
:100940008DC100911002013009F488C128F00230F5
:1009500009F444C010E082C110910F02113081F0FF
:1009600028F01230C9F0133021F130C040910B0251
:10097000417050E060E070E084E60E9434036EC194
:1009800040910B024695417050E060E070E084E6D3
:100990000E943403102F62C140910B0242FB442796
:1009A00040F950E060E070E084E60E943403102FCC
:1009B00055C140910B0243FB442740F950E060E0F1
:1009C00070E084E60E943403102F48C140E050E0FC
:1009D000BA0184E00E943403102F40C110910F022D
:1009E000112319F0113059F016C04091DB0141700C
:1009F00050E060E070E084E60E9434032FC1409133
:100A0000DB014695417050E060E070E084E60E94B2
:100A1000340310E023C140E050E0BA0184E00E94BA
:100A2000340310E01BC110911002112341F040E08B
:100A300050E0BA0184E00E94340310E00FC18091BD
:100A40000F02813451F118F4803441F086C08234B1
:100A500009F443C08C3409F460C07FC08091060261
:100A600090E0A0E0B0E0481759076A077B0771F0F3
:100A7000E6E0F2E0408319826081298180911602CC
:100A800090911702820F911D0E949A1340E050E04E
:100A9000BA0184E60E943403E1C08091070290E02D
:100AA000A0E0B0E0481759076A077B0779F0E6E055
:100AB000F2E0418381E0898361812981809116027E
:100AC00090911702820F911D0E949A1340E050E00E
:100AD000BA0184E60E943403C1C08091080290E00C
:100AE000A0E0B0E0481759076A077B0779F0E6E015
:100AF000F2E0428382E0898362812981809116023B
:100B000090911702820F911D0E949A1340E050E0CD
:100B1000BA0184E60E943403A1C080910A0290E0E9
:100B2000A0E0B0E0481759076A077B0779F0E6E0D4
:100B3000F2E0448384E089836481298180911602F4
:100B400090911702820F911D0E949A1340E050E08D
:100B5000BA0184E60E94340381C040E050E0BA014B
:100B600084E00E9434037AC010911002112341F0F6
:100B700040E050E0BA0184E00E94340310E06EC00F
:100B800080910F02813449F018F4803409F129C0B2
:100B9000823461F08C3499F024C04091070250E017
:100BA00060E070E084E60E94340358C0409108027F
:100BB00050E060E070E084E60E9434034FC0409152
:100BC0000A0250E060E070E084E60E94340346C010
:100BD0004091060250E060E070E084E60E94340339
:100BE0003DC040E050E0BA0184E00E94340336C0CA
:100BF00010910F02111115C0EDEFF1E08091180274
:100C0000808381E3818390E3928322E3238384833F
:100C100036E5358386832783908781E08093990129
:100C20001DC040E450E360E270E184E60E943403BA
:100C300010E014C087E090E00E94F800AC01990F2A
:100C4000660B770B84E60E94340310E007C040E097
:100C500050E0BA0182E00E94340310E0812F0F902F
:100C6000DF91CF911F910F91089540E050E0BA01BC
:100C700084E60E94340308959091A4019F5F9F77BA
:100C8000E92FF0E0EE5BFC4F80819093A401089582
:100C90009091A3019F5F9F77E92FF0E0EE5BFC4FFF
:100CA00080839093A30108959091A201E92FF0E031
:100CB000E75EFD4F80819F5F9093A2010895809130
:100CC0009B0180FD0BC080919B01816080939B0103
:100CD0001092A2010E9454068093C60008958823B2
:100CE00031F0E1ECF0E08081806880830895E1ECF0
:100CF000F0E080818F7780830895882331F0E1ECE4
:100D0000F0E08081806480830895E1ECF0E08081F0
:100D10008F7B808308951F920F920FB60F9211243C
:100D20002F933F934F935F936F937F938F939F93F3
:100D3000AF93BF93EF93FF9385E080939D018091E4
:100D4000C00090919C01892B80939C018091C600EA
:100D50000E944806FF91EF91BF91AF919F918F91B3
:100D60007F916F915F914F913F912F910F900FBEA7
:100D70000F901F9018951F920F920FB60F9211248B
:100D80002F933F934F935F936F937F938F939F9393
:100D9000AF93BF93EF93FF9380919B0180FF0EC0B1
:100DA0008091A201893030F080919B018E7F8093E9
:100DB0009B0104C00E9454068093C600FF91EF91EE
:100DC000BF91AF919F918F917F916F915F914F9163
:100DD0003F912F910F900FBE0F901F90189587E0B5
:100DE0008093C400E1ECF0E080818861808381E041
:100DF0000E946F0681E00E947D0610929C0108957A
:100E0000CF92DF92FF920F931F93CF93DF93809146
:100E1000A1019091A001981741F190919B0190FD43
:100E200024C08F5F482F4F71842F90E09C01220FC8
:100E3000331F220F331F220F331F280F391F2E534A
:100E40003C4FB901675F7F4FF901DF01A21BB30B74
:100E50008191A75EBD4F8C93E617F707B1F74093DA
:100E6000A1011092A2010E945F0680919B0183FD67
:100E700056C08091A3019091A401891B8F7789307E
:100E800008F44DC0F0909E0181E08F0D8F71F82E17
:100E9000082F10E0E801CC0FDD1FCC0FDD1FCC0FB9
:100EA000DD1FC00FD11FCE5DDD4F6E0189E0C80E82
:100EB000D11C0E943C068993CC15DD05D1F7EF2D9E
:100EC000F0E0CF01880F991F880F991F880F991F95
:100ED000E80FF91FEE5DFD4F90E080E02191920F49
:100EE0008F5F8830D9F7F801EE0FFF1FEE0FFF1F5D
:100EF000EE0FFF1F0E0F1F1FF801EE5DFD4F8085E7
:100F0000891308C080919B01886080939B01F092B7
:100F10009E0105C080919B01806180939B01DF91C0
:100F2000CF911F910F91FF90DF90CF900895809106
:100F30009D01882341F080919D01815080939D0106
:100F400010929A01089580919A01811107C08091B1
:100F5000A3018093A40181E080939A010895809178
:100F60009F018F5F8F7190E09C01220F331F220F32
:100F7000331F220F331F820F931F8E5D9D4F0895E5
:100F800090919F019F5F9F7190939F0180919E011F
:100F9000891B8F7129F490919B01977F90939B01FE
:100FA00008954091A0014F5F4F71DC01242F30E084
:100FB000F901EE0FFF1FEE0FFF1FEE0FFF1FE20FF5
:100FC000F31FEE53FC4F2F5F3F4FC901880F991F4E
:100FD000880F991F880F991F280F391F2E533C4FD8
:100FE0008D918193E217F307D9F74093A0010895FB
:100FF0008091AF019091B001891B8F7108959091FC
:10100000AF018091B001981307C08091A50188605D
:101010008093A50180E008959091B0019F5F9F713A
:10102000E92FF0E0E55FF94F80819093B0010895DA
:101030002091AF014091B00130E02F5F3F4F2F7101
:10104000332750E02417350731F48091A5018460DF
:101050008093A50108959091AF019F5F9F71E92F43
:10106000F0E0E55FF94F80839093AF0108958091A0
:10107000AE01893038F08091A50182608093A5018E
:1010800080E00895E091AE01F0E0EE51FB4F8081E9
:101090009091AE019F5F9093AE0108958091A6015B
:1010A00080FD11C08091A60181608093A601E9ECCA
:1010B000F0E080818F7E80835C9A1092AE010E9466
:1010C00037088093CE000895882331F0E9ECF0E0F2
:1010D0008081806880830895E9ECF0E080818F77DB
:1010E00080830895882331F0E9ECF0E0808180640A
:1010F00080830895E9ECF0E080818F7B8083089500
:101100001F920F920FB60F9211242F933F934F937C
:101110005F936F937F938F939F93AF93BF93EF935F
:10112000FF9385E08093A9018091C8009091A70169
:10113000892B8093A7018091CE000E941808FF910F
:10114000EF91BF91AF919F918F917F916F915F913F
:101150004F913F912F910F900FBE0F901F901895B8
:101160001F920F920FB60F9211242F933F934F931C
:101170005F936F937F938F939F93AF93BF93EF93FF
:10118000FF938091A60180FF1CC08091AE01893041
:10119000A0F08091A6018E7F8093A60182E38093C8
:1011A000A8018091A60184608093A6015C98E9EC77
:1011B000F0E080818061808304C00E9437088093C2
:1011C000CE00FF91EF91BF91AF919F918F917F9151
:1011D0006F915F914F913F912F910F900FBE0F90A4
:1011E0001F90189587E18093CC00E9ECF0E08081B6
:1011F0008861808381E00E94640881E00E94720817
:101200001092A7010895BF92CF92DF92EF92FF92C2
:101210000F931F93CF93DF938091AD019091AC0119
:10122000981759F19091A60190FD27C09091A601C1
:1012300092FD23C08F5F8F70282F30E0A901440FEB
:10124000551F440F551F440F551F240F351F25519F
:101250003B4F8093AD01A901475F5F4FF901DF016B
:10126000A21BB30B8191AE51BB4F8C93E417F507D2
:10127000B1F71092AE010E944E088091A60183FD45
:1012800064C00E94F807893008F45FC0B090AA01DA
:1012900081E08B0D8F70B82EE82EF12CE701CC0F7A
:1012A000DD1FCC0FDD1FCC0FDD1FCE0DDF1DC558A0
:1012B000DA4F2FEFE21AF20AC701880F991F880F41
:1012C000991F880F991F8E0D9F1D9C0125583A4F1D
:1012D0007901CB2CD12C86010E94FF078993CE1572
:1012E000DF05C9F7B092AA01F601EE0FFF1FEE0F5E
:1012F000FF1FEE0FFF1FEC0DFD1DE558FA4F90E0AC
:1013000080E02191920F8F5F8830D9F7F801EE0FBE
:10131000FF1FEE0FFF1FEE0FFF1F0E0F1F1FF80125
:10132000E558FA4F808589130BC08091A60188602B
:101330008093A6018091A6018B7F8093A60105C0B2
:101340008091A60180618093A601DF91CF911F91CA
:101350000F91FF90EF90DF90CF90BF900895809114
:10136000A60182FF0EC08091A80181508093A80140
:101370008091A801811105C08091A6018B7F809387
:10138000A6018091A901882331F08091A9018150A3
:101390008093A90108958091AF018093B0010895D1
:1013A0008091AB019091AA01981308C08091A5018A
:1013B00080688093A50180E090E008958F5F8F7032
:1013C00090E09C01220F331F220F331F220F331F87
:1013D000820F931F85589A4F08959091AB019F5F9C
:1013E0009F709093AB018091AA01891B8F7029F4A3
:1013F0009091A601977F9093A6010895CF93DF93D4
:10140000FC014091AC01842F90E001968F709927E8
:101410002091AD0130E08217930731F48091A5014E
:1014200080618093A5012BC04F5F4F70842F90E0A7
:10143000DC01AA0FBB1FAA0FBB1FAA0FBB1FA80F5F
:10144000B91FA551BB4FEF01289680E0642F70E0D3
:101450009B0190819D939191890FEC17FD07C1F736
:10146000FB01EE0FFF1FEE0FFF1FEE0FFF1F2E0FF2
:101470003F1FF901E551FB4F80874093AC01DF919D
:10148000CF91089590E08B30910580F5FC01E25CEE
:10149000FF4F0C94A6118FE58093CC0008958FE345
:1014A0008093CC0008958FE28093CC0008958FE163
:1014B0008093CC00089587E18093CC0008958FE05D
:1014C0008093CC0008958BE08093CC00089587E052
:1014D0008093CC00089583E08093CC00089582E04F
:1014E0008093CC0008951092CC0008958FE28093F1
:1014F000CC0008951F920F920FB60F9211248F9374
:1015000081E08093B1018F910F900FBE0F901F90DB
:1015100018951F920F920FB60F9211248F9381E0AE
:101520008093B1018F910F900FBE0F901F9018956F
:101530001F920F920FB60F9211248F9381E0809328
:10154000B1018F910F900FBE0F901F901895809151
:10155000B101882331F01092B1010E9497070E94D7
:10156000AF0908958AE18AB90E94EF060E94F20845
:101570000E94E9000E94E40282E49AE090939801BC
:101580008093970180E190E00E94FF020E94F201A7
:1015900078940895CF93DF93CDB7DEB764970FB6F5
:1015A000F894DEBF0FBECDBF0E94B20A0E94A50212
:1015B0000E9462020E9472020E948202D12C0F2EAF
:1015C000FCE0CF2EF02D8E010F5F1F4F0F2EF3E2A8
:1015D000EF2EF1E0FF2EF02D0E94F7010E94A70AE6
:1015E0000E9400070E9403098091B1018823A1F3A2
:1015F00024E62D1510F0D394EFCF0E94820260E014
:1016000085E00E94510280E091E00E949602F8017C
:101610002C2D11922A95E9F786E00E94F8005C01D2
:1016200064E085E00E94510286E191E00E9496020A
:10163000B50180E090E00E94060D2DEC3CEC44EFFB
:1016400050E40E94990D20E030E04AE754E40E9403
:10165000940C9F938F937F936F93FF92EF921F93BE
:101660000F930E940913C8010E949602F8012C2DC5
:1016700011922A95E9F785E00E94F8005C0165E087
:1016800085E00E9451028BE291E00E949602B50132
:1016900080E090E00E94060D2DEC3CEC44EF50E41D
:1016A0000E94990D20E030E04AE754E40E94940C37
:1016B0009F938F937F936F93FF92EF921F930F935C
:1016C0000E940913C8010E949602F8012C2D119264
:1016D0002A95E9F787E00E94F8005C0166E085E062
:1016E0000E94510288E391E00E949602B50180E0D9
:1016F00090E00E94060D2DEC3CEC44EF50E40E947B
:10170000990D20E030E04AE754E40E94940C0FB6B3
:10171000F894DEBF0FBECDBF20E030E040E950E4DA
:101720000E94940D18162CF485E491E00E94960214
:1017300004C08DE491E00E949602F8012C2D1192D4
:101740002A95E9F784E00E94F8005C0167E085E0F3
:101750000E94510285E591E00E949602B50180E069
:1017600090E00E94060D2DEC3CEC44EF50E40E940A
:10177000990D20E030E04AE754E40E94940C9F93D6
:101780008F937F936F93FF92EF921F930F930E941B
:101790000913C8010E949602F8012C2D11922A9576
:1017A000E9F782E00E94F8005C0168E085E00E94B1
:1017B000510282E691E00E949602B50180E090E03D
:1017C0000E94060D2DEC3CEC4CE251E40E94990D78
:1017D00020E030E04AE754E40E94940C9F938F93FA
:1017E0007F936F93FF92EF921F930F930E940913C1
:1017F000C8010E949602F8012C2D11922A95E9F752
:1018000083E00E94F8005C0169E085E00E945102DB
:101810008FE691E00E949602B50180E090E00E9480
:10182000060D28E431EE4EE451EC0E94990D20E0C3
:1018300030E04AE754E40E94940C9F938F937F9387
:101840006F93FF92EF921F930F930E940913C801A9
:101850000E949602F8012C2D11922A95E9F781E059
:101860000E94F8005C016AE085E00E9451028CE76A
:1018700091E00E949602B50180E090E00E94060D82
:1018800026EF38E24CEF51E40E94990D20E030E061
:101890004AE754E40E94940C9F938F937F936F9335
:1018A000FF92EF921F930F930E9409130FB6F894C3
:1018B000DEBF0FBECDBFC8010E949602F8012C2DDD
:1018C00011922A95E9F780E00E94F8005C016BE034
:1018D00085E00E94510289E891E00E949602B501DC
:1018E00080E090E00E94060D26EF38E24CEF51E4D4
:1018F0000E94990D20E030E04AE754E40E94940CE5
:101900009F938F937F936F93FF92EF921F930F9309
:101910000E940913C8010E9496020FB6F894DEBF18
:101920000FBECDBFD12C58CE0E94A80C0C945A0DDE
:101930000E94530D58F00E944C0D40F029F45F3F77
:1019400029F00C94430D51110C948E0D0C94490DFB
:101950000E946B0D68F39923B1F3552391F3951B06
:10196000550BBB27AA2762177307840738F09F5FC0
:101970005F4F220F331F441FAA1FA9F335D00E2E2D
:101980003AF0E0E832D091505040E695001CCAF79A
:101990002BD0FE2F29D0660F771F881FBB1F26175D
:1019A00037074807AB07B0E809F0BB0B802DBF0134
:1019B000FF2793585F4F3AF09E3F510578F00C9403
:1019C000430D0C948E0D5F3FE4F3983ED4F386955F
:1019D00077956795B795F7959F5FC9F7880F911D24
:1019E0009695879597F90895E1E0660F771F881F10
:1019F000BB1F621773078407BA0720F0621B730BC3
:101A0000840BBA0BEE1F88F7E0950895E89409C09F
:101A100097FB3EF490958095709561957F4F8F4F21
:101A20009F4F9923A9F0F92F96E9BB279395F69537
:101A3000879577956795B795F111F8CFFAF4BB0FB5
:101A400011F460FF1BC06F5F7F4F8F4F9F4F16C019
:101A5000882311F096E911C0772321F09EE8872FA3
:101A6000762F05C0662371F096E8862F70E060E05F
:101A70002AF09A95660F771F881FDAF7880F9695D8
:101A8000879597F9089597F99F6780E870E060E07F
:101A900008959FEF80EC089500240A941616170607
:101AA00018060906089500240A941216130614064F
:101AB00005060895092E0394000C11F4882352F0B2
:101AC000BB0F40F4BF2B11F460FF04C06F5F7F4F6A
:101AD0008F4F9F4F089557FD9058440F551F59F051
:101AE0005F3F71F04795880F97FB991F61F09F3F0B
:101AF00079F087950895121613061406551FF2CF34
:101B00004695F1DF08C0161617061806991FF1CF83
:101B100086957105610508940895E894BB276627AA
:101B20007727CB0197F908950E94060E08F48FEFEE
:101B300008950E94AC0D0C945A0D0E944C0D38F083
:101B40000E94530D20F0952311F00C94430D0C943A
:101B5000490D11240C948E0D0E946B0D70F3959F0E
:101B6000C1F3950F50E0551F629FF001729FBB2794
:101B7000F00DB11D639FAA27F00DB11DAA1F649F30
:101B80006627B00DA11D661F829F2227B00DA11DE3
:101B9000621F739FB00DA11D621F839FA00D611D69
:101BA000221F749F3327A00D611D231F849F600D8A
:101BB000211D822F762F6A2F11249F5750409AF0B3
:101BC000F1F088234AF0EE0FFF1FBB1F661F771F3F
:101BD000881F91505040A9F79E3F510580F00C940A
:101BE000430D0C948E0D5F3FE4F3983ED4F386953D
:101BF00077956795B795F795E7959F5FC1F7FE2BAA
:101C0000880F911D9695879597F90895990F00086B
:101C1000550FAA0BE0E8FEEF16161706E807F907BE
:101C2000C0F012161306E407F50798F0621B730B59
:101C3000840B950B39F40A2661F0232B242B252BDA
:101C400021F408950A2609F4A140A6958FEF811D7D
:101C5000811D0895A3E1B0E0E0E3FEE00C94AC1137
:101C60006C014B012A01FC0117821682838181FFDE
:101C700043C3AE014F5F5F4F3A01F6019381F40118
:101C800093FD859193FF81914F01882309F430C31F
:101C9000853239F493FD859193FF81914F0185320F
:101CA00039F4B60190E00E94D11252012501E5CF2E
:101CB00010E0F12C20E02032A0F48B3269F030F4F7
:101CC000803259F0833269F420612CC08D3239F0B2
:101CD000803339F4216026C02260246023C028604C
:101CE00021C027FD27C030ED380F3A3078F426FFA9
:101CF00006C0FAE01F9F300D1124132F13C04AE0D5
:101D0000F49E300D1124F32E20620CC08E3221F48B
:101D100026FDEEC2206406C08C3611F4206802C095
:101D2000883641F4F40193FD859193FF81914F0131
:101D30008111C1CF9BEB980F933018F42061805E26
:101D400006C09BE9980F933008F071C12F7E26FFE3
:101D500016E02F73322E853619F42064322E08C017
:101D6000863621F4F22FF0683F2E02C01111115077
:101D700037FE07C01C3350F4EE24E394E10E27E055
:101D80000BC0183038F027E017E005C027E04CE31F
:101D9000E42E02C0212FE12C520144E0A40EB11C1C
:101DA000F20160817181828193810E2DA3010E94D5
:101DB000E3112C01098100FF02C003FF07C031FCC1
:101DC00008C032FE09C030E2232E07C02DE2222EC9
:101DD00004C09BE2292E01C0212C802F8C7019F0A9
:101DE000211068C2A8C237FE0FC0E40C04FF04C073
:101DF0008A81813309F4EA941E1474F5F8E0FE1523
:101E000078F588E0E82E2CC036FC2AC0812F90E0BF
:101E1000841595059CF02CEF42162FEF520674F0B6
:101E2000432D4068342E0AC0E2E0F0E0EC0FFD1FC5
:101E3000E10FF11D8081803319F411501111F4CF9D
:101E400037FE0EC0EE24E394E10E812F90E0481699
:101E500059062CF4141904C0EE24E39401C010E0D8
:101E600037FE06C01414150434F4C201019605C0EF
:101E700085E090E002C081E090E0211001961123FE
:101E800031F0212F30E02F5F3F4F820F931F2F2D16
:101E900030E08217930714F4F81A01C0F12C832D57
:101EA000897049F4FF2039F0B60180E290E00E9489
:101EB000D112FA94F7CF222029F0B601822D90E0BA
:101EC0000E94D11233FC09C0FF2039F0B60180E333
:101ED00090E00E94D112FA94F7CF37FE5AC0942DA9
:101EE000852D57FE02C090E080E0292E382E20E09C
:101EF00030E0A2014E1951095D874C87A2014219B9
:101F000053095F874E87612F70E044275527461B92
:101F1000570B598B488B5FEF2516350649F4B601F0
:101F20008EE290E02A8B3B8B0E94D1123B892A895A
:101F3000421453046CF04C855D854215530544F4FE
:101F4000EE85FF85E20FF31FE60DF71D818101C0CD
:101F500080E351E0251A31082F5F3F4F48895989A6
:101F6000241635064CF0B60190E02A8B3B8B0E947C
:101F7000D1122A893B89CFCF2414350439F49A81B0
:101F8000963318F4953311F404FF81E3B60190E021
:101F90004BC08A81813309F00F7EB60190E00E9428
:101FA000D112111105C034FC18C085E690E017C0AD
:101FB000B6018EE290E00E94D11282E0EE24E3941A
:101FC000E80EF301E80FF11D8081B60190E00E9458
:101FD000D11211508E2D91F7E6CF85E490E0B60135
:101FE0000E94D11257FC05C04114510439F404FF7A
:101FF00005C05194419451088DE201C08BE2B601B5
:1020000090E00E94D11280E39AE0491651042CF02E
:102010008F5F5AE0451A5108F7CFB60190E00E9451
:10202000D112B601C201C0960E94D11257C18336A7
:1020300031F0833779F0833509F058C021C052015F
:10204000E2E0AE0EB11CF2018081898301E010E074
:10205000230114C05201F2E0AF0EB11CF201408026
:10206000518026FF03C0612F70E002C06FEF7FEF49
:10207000C2012A8B0E94C6128C012A892F7715C0B3
:102080005201F2E0AF0EB11CF2014080518026FFF8
:1020900003C0612F70E002C06FEF7FEFC2012A8B97
:1020A0000E94BB128C012A892068322E23FD1AC09F
:1020B0008F2D90E008171907A8F4B60180E290E090
:1020C0000E94D112FA94F4CFF20137FC859137FEC9
:1020D00081912F01B60190E00E94D112F110FA9483
:1020E000015011090115110579F7F8C0843611F076
:1020F000893659F5520127FF09C0F4E0AF0EB11C33
:10210000F20160817181828193810AC0F2E0AF0E99
:10211000B11CF20160817181072E000C880B990BB4
:102120002F76322E97FF09C0909580957095619516
:102130007F4F8F4F9F4F2068322E2AE030E0A3015F
:102140000E942C13E82EE6183FC0022F853721F499
:102150000F7E2AE030E01DC0097F8F3691F018F421
:10216000883559F0C5C0803719F0883711F0C0C0E4
:10217000006104FF09C0046007C024FF08C00660B6
:1021800006C028E030E005C020E130E002C020E1D8
:1021900032E0520107FF09C0F4E0AF0EB11CF201BA
:1021A000608171818281938108C0F2E0AF0EB11C21
:1021B000F2016081718180E090E0A3010E942C1304
:1021C000E82EE6180F77302E36FE0BC0332D3E7FFB
:1021D000E11650F434FE0AC032FC08C0332D3E7EB6
:1021E00005C00E2D332D03C00E2D01C0012F34FF6D
:1021F0000CC0FE01EE0DF11D8081803311F4397E9B
:1022000008C032FF05C00E5F04C0832F867809F036
:102210000F5F33FD13C030FF06C01E2D0F1518F4DD
:102220001F0D101B0F2D0F1568F4B60180E290E012
:102230003B8B0E94D1120F5F3B89F5CF0F1510F435
:10224000F01A01C0F12C34FF12C0B60180E390E017
:102250003B8B0E94D1123B8932FF17C031FD03C076
:1022600088E790E002C088E590E0B6010CC0832FBB
:10227000867859F031FF02C08BE201C080E237FD61
:102280008DE2B60190E00E94D112E11638F4B60159
:1022900080E390E00E94D1121150F7CFEA94F3014D
:1022A000EE0DF11D8081B60190E00E94D112E11087
:1022B000F5CF14C0F4E0FF1558F584E0F81A33FEAA
:1022C0001EC0211026C003FF2AC002E910E0F32D32
:1022D000F0713F2EF8018491811124C0FF2009F490
:1022E000E5CCB60180E290E00E94D112FA94F6CFDC
:1022F000F6018681978126C08FEF9FEF23C0B6013C
:1023000080E290E00E94D112FA94F110F8CFD9CF78
:10231000F12CB601822D90E00E94D112D4CF06E9B3
:1023200010E0D5CF31108052B60190E00E94D1125A
:102330000F5F1F4FCFCF23E02F1510F483E0BECFE8
:10234000F12CC1CF6396E2E10C94C811EE0FFF1F90
:102350000590F491E02D09942F923F924F925F9255
:102360006F927F928F929F92AF92BF92CF92DF92A5
:10237000EF92FF920F931F93CF93DF93CDB7DEB70A
:10238000CA1BDB0B0FB6F894DEBF0FBECDBF09949E
:102390002A88398848885F846E847D848C849B84F5
:1023A000AA84B984C884DF80EE80FD800C811B8103
:1023B000AA81B981CE0FD11D0FB6F894DEBF0FBE32
:1023C000CDBFED010895283008F027E03327DA016A
:1023D000990F311D87FD916000966105710539F4F3
:1023E00032602E5F3D9330E32A95E1F708959F3FD9
:1023F00030F080387105610509F03C5F3C5F3D932A
:10240000913008F08068911DDF93CF931F930F9355
:10241000FF92EF92192F987F9695E92F96959695B2
:10242000E90FFF27EC50FF4F99273327EE24FF24B5
:10243000A701E70105900894079428F4360FE71EDA
:10244000F81E491F511D660F771F881F991F06949C
:10245000A1F70590079428F4E70EF81E491F561FB0
:10246000C11D770F881F991F661F0694A1F705905D
:10247000079428F4F80E491F561FC71FD11D880F57
:10248000991F661F771F0694A1F70590079420F403
:10249000490F561FC71FD81F990F661F771F881F28
:1024A0000694A9F784911095177041F0D695C795B9
:1024B00057954795F794E7941A95C1F7EAE9F0E044
:1024C00068941590159135916591959105907FE2ED
:1024D0007395E118F10A430B560BC90BD009C0F7ED
:1024E000E10CF11E431F561FC91FD01D7EF470332F
:1024F00011F48A95E6CFE894015030F0080F0AF401
:102500000027021708F4202F2395022F7A3328F092
:1025100079E37D932A95E9F710C07D932A9589F692
:10252000069497956795379517951794E118F10AD2
:10253000430B560BC90BD00998F023957E917395E8
:102540007A3308F070E37C932013B8F77E917061C2
:102550007D9330F0839571E37D9370E32A95E1F7E5
:102560001124EF90FF900F911F91CF91DF91992748
:1025700087FD90950895FC01059061507040011011
:10258000D8F7809590958E0F9F1F0895FC0161509C
:10259000704001900110D8F7809590958E0F9F1F85
:1025A00008950F931F93CF93DF93FB01238121FDA8
:1025B00003C08FEF9FEF28C022FF16C046815781CE
:1025C000248135814217530744F4A081B1819D01D4
:1025D0002F5F3F4F318320838C93268137812F5F7C
:1025E0003F4F3783268310C0EB01092F182F00843B
:1025F000F185E02D0995892BE1F68E819F81019669
:102600009F838E83812F902FDF91CF911F910F9108
:102610000895AEE0B0E0EFE0F3E10C94BA110D895B
:102620001E8986E08C831A8309838FEF9FE79E8340
:102630008D83AE01475E5F4F6F89788DCE01019625
:102640000E942A0E2F813885F801E20FF31F1082B5
:102650002E96E4E00C94D611FA01AA27283051F105
:10266000203181F1E8946F936E7F6E5F7F4F8F4FC3
:102670009F4FAF4FB1E03ED0B4E03CD0670F781F22
:10268000891F9A1FA11D680F791F8A1F911DA11D07
:102690006A0F711D811D911DA11D20D009F4689440
:1026A0003F912AE0269F11243019305D3193DEF6E8
:1026B000CF010895462F4770405D4193B3E00FD09E
:1026C000C9F7F6CF462F4F70405D4A3318F0495D89
:1026D00031FD4052419302D0A9F7EACFB4E0A6956C
:1026E0009795879577956795BA95C9F7009761058E
:1026F000710508959B01AC010A2E069457954795E4
:1027000037952795BA95C9F7620F731F841F951FD8
:10271000A01D0895DC01CB01FC01F999FECF06C094
:10272000F2BDE1BDF89A319600B40D92415050408F
:10273000B8F70895262FF999FECF92BD81BDF89A7A
:10274000019700B4021639F01FBA20BD0FB6F894F5
:10275000FA9AF99A0FBE0895DC01CB0103C02D91BE
:102760000E94B71341505040D0F70895262FF99991
:10277000FECF1FBA92BD81BD20BD0FB6F894FA9A64
:0C278000F99A0FBE01960895F894FFCF5F
:10278C0041746F6D5472616365202D205363692D04
:10279C005472616365004275732D413A20202020EC
:1027AC00202000252B362E326656004275732D42A2
:1027BC003A202020202020005553423A202020206F
:1027CC002020202000436F6E6E6563740020204E25
:1027DC002E432E20002B35563A202020202020205E
:1027EC0020002B3132563A20202020202020002D92
:1027FC003132563A20202020202020002B32345613
:10280C002D42503A20202020002B3234562D524A93
:06281C003A2020202000FC
:00000001FF
