:100000000C9449000C9466000C9466000C946600F5
:100010000C9466000C9466000C9466000C946600C8
:100020000C9466000C9466000C9466000C946600B8
:100030000C9466000C9466000C9466000C946600A8
:100040000C94F9090C94080A0C94170A0C94660095
:100050000C940A060C9466000C943A060C94660004
:100060000C9466000C9466000C9466000C94660078
:100070000C94FF070C9466000C942F08CA09CE0953
:10008000D209D609DA09DE09E209E609EA09EE0928
:10009000F20911241FBECFEFD0E1DEBFCDBF11E0CA
:1000A000A0E0B1E0E2E7FEE102C005900D92A035CC
:1000B000B107D9F725E0A0E5B1E001C01D92A53E4A
:1000C000B207E1F70E94490A0C94370F0C94000024
:1000D00087E880937A0010927B008FEF80937E00F8
:1000E00010927C0010926D0110926C01089587703F
:1000F00080937C0086EF8A95F1F7EAE7F0E0808153
:1001000080648083808186FDFDCF8091780090910E
:1001100079000895EEE6F1E084E1808385E0818353
:10012000A5E3B5E08C91848311968C91119785831A
:1001300012968C918683809150018783CF010E9413
:10014000500708950E94C9028F3019F08E3FA9F020
:1001500008958091C901883048F40E947700AC016D
:1001600060E070E084E60E94B302089540E050E051
:10017000BA0183E00E94B30208958091C9018130E1
:1001800069F028F08230B1F08330D9F0089540E072
:1001900050E0BA0184E60E94B302089580916101A3
:1001A0004091560150E060E070E0582B84E60E94D8
:1001B000B302089510926101109256010E94B40595
:1001C00008950E948A000895809193018823C1F0C8
:1001D00080918A0181110EC0EAE8F1E0A7ECB1E05C
:1001E00023E931E081918D93E217F307D9F70E945B
:1001F000A20004C08AE891E00E947D091092930158
:10020000089580918001882331F087E791E00E9472
:1002100050071092800108958091550184FF05C018
:10022000809155018F7E809355018091550183FF08
:1002300011C00E942E07DC01EAE8F1E023E931E079
:100240008D918193E217F307D9F70E943F0781E070
:1002500080939301089580918001811114C0809151
:100260005301882381F010925301A7EBB1E0E7E737
:10027000F1E020E831E08D918193E217F307D9F79F
:1002800081E08093800108958091600184FF0AC01D
:10029000809160018F7E8093600180915001805F2A
:1002A000809350018091800181111AC0809160017A
:1002B00083FF16C0809150018F5F809350010E9490
:1002C0004F09DC01E7E7F1E020E831E08D9181930F
:1002D000E217F307D9F70E946C0981E0809380014F
:1002E0000895109280011092930108950E940C01CC
:1002F0000E94E4000E942B010E9444010E9401011F
:100300000895CF93DF931F92CDB7DEB7198289810D
:10031000811107C0000089818F5F898389818823CB
:10032000C9F30F90DF91CF9108958FEF84B988EFD3
:1003300087B988B1886F88B9089514B846980E9423
:10034000810183B19FEF94B9469A0895CF93C82F46
:100350000E949D018370E1F3C5B947980E94810115
:10036000479ACF910895CF93C82F0E949D01837023
:10037000E1F3C5B988B18F7588B90E94810188B150
:10038000806A88B9CF910895CF93C92F0E94B30195
:100390008C2F0E94B30184E20E94A601CF910895A0
:1003A0002EE1629FB00111249B01280F311DC9016C
:1003B0000E94C40108950E94B30180EC0E94A6012E
:1003C0000895CF93DF9380E090E00E94C401C0EED7
:1003D000D1E080E00E94DB012197D9F7DF91CF9136
:1003E0000895CF93DF9380E090E10E94C401C0E0C4
:1003F000D8E080E00E94DB012197D9F7DF91CF910F
:100400000895CF93DF9380EE91E00E94C401C0E095
:10041000DFE080E00E94DB012197D9F7DF91CF91E7
:10042000089580520E94DB010895CF93DF93EC0181
:100430008881882331F021960E94110289918111CF
:10044000FBCFDF91CF9108950E949501449889EFE9
:1004500090E00197F1F700C00000449A439880EEC5
:100460000E94B30181E00E94B30182E40E94A601D0
:100470008EE10E94B30180E00E94B30183E40E94F8
:10048000A60180E00E94B30180E00E94B30180E4F5
:100490000E94A6018EE10E94B30180E00E94B30198
:1004A00081E40E94A60182E00E94B30180E00E94E4
:1004B000B30182E20E94A6018CE90E94A60180E8B5
:1004C0000E94A601089580E987BD84E688BD82E088
:1004D00084BD85E085BDEEE6F0E0808182608083AA
:1004E0000895E7EBF1E02FEB31E080E09191890F87
:1004F000E217F307D9F78093BF010895CF93DF93F5
:10050000EC019093D1018093D00145E050E0BC0113
:1005100080EC91E00E94C60E8091C001823489F087
:10052000E0ECF1E082E4808384E0818381E08283F7
:10053000138282E0848345E050E0BE01CF010E9437
:10054000E80EE0915101F0915201309719F080913D
:10055000C10109958091C4018093D2011092C60116
:10056000DF91CF910895E7EBF1E09091D201908374
:100570009091C601918382838091C80183837483A3
:100580006583568347830E94710281E08093530103
:1005900008950F931F93CF93DF931F92CDB7DEB7CC
:1005A000E7ECF1E08481458150E060E070E0BA0161
:1005B00055274427782B8781482B8681582B4093D9
:1005C000B3015093B4016093B5017093B6011181EA
:1005D0001A3009F448C288F4143009F4BEC228F471
:1005E000113001F1123029F1B1C2163009F470C096
:1005F00038F1193009F496C1A9C21F3009F420C19D
:1006000038F41D3009F4A9C21E3009F4DAC09EC2C4
:10061000183809F46CC21E3F09F49FC2113209F068
:1006200095C287C240E050E0BA0184E60E94B3025E
:1006300094C240E050E0BA0184E60E94B3028DC249
:100640001091CA01112341F040E050E0BA0184E06A
:100650000E94B30210E081C28091C9018630E9F0A6
:1006600028F4843041F0853079F02BC08730F1F0E8
:100670008C3829F126C040939E0150939F016093CE
:10068000A0017093A1011DC04093A2015093A3014A
:100690006093A4017093A50114C04093A6015093E8
:1006A000A7016093A8017093A9010BC04093AA0110
:1006B0005093AB016093AC017093AD0102C04093C5
:1006C000AE0140E050E0BA0184E60E94B30245C2A8
:1006D0001091CA01112341F040E050E0BA0184E0DA
:1006E0000E94B30210E039C28091C901863049F1FD
:1006F00030F48430F1F1C8F4813059F05BC08C38AB
:1007000009F443C0843C09F449C0873009F052C061
:1007100024C040919A0150919B0160919C0170917D
:100720009D0184E60E94B30218C24091A20150913B
:10073000A3016091A4017091A50184E60E94B30217
:100740000CC24091A6015091A7016091A80170913F
:10075000A90184E60E94B30200C24091AA0150910F
:10076000AB016091AC017091AD0184E60E94B302CF
:10077000F4C140919E0150919F016091A001709140
:10078000A10184E60E94B302E8C14091AE0150E0AD
:1007900060E070E084E60E94B302DFC14091AF01E7
:1007A0005091B0016091B1017091B20184E60E9454
:1007B000B302D3C140E050E0BA0184E00E94B3022A
:1007C000CCC18091CA01823039F040E050E0BA01DA
:1007D00084E00E94B302C1C18091C901882319F04D
:1007E0008130A1F026C091E0452B462B472B09F420
:1007F00090E08091950190FB80F98093950140E015
:1008000050E0BA0184E60E94B302A7C191E0452BF3
:10081000462B472B09F490E08091950190FB81F9DC
:100820008093950140E050E0BA0184E60E94B30253
:1008300094C140E050E0BA0184E00E94B3028DC14F
:100840000091CA01013009F488C128F0023009F48E
:1008500044C010E082C11091C901113081F028F02C
:100860001230C9F0133021F130C04091C501417000
:1008700050E060E070E084E60E94B3026EC14091F7
:10088000C5014695417050E060E070E084E60E944A
:10089000B302102F62C14091C50142FB442740F9C9
:1008A00050E060E070E084E60E94B302102F55C172
:1008B0004091C50143FB442740F950E060E070E0FF
:1008C00084E60E94B302102F48C140E050E0BA0114
:1008D00084E00E94B302102F40C11091C90111237E
:1008E00019F0113059F016C040919501417050E057
:1008F00060E070E084E60E94B3022FC14091950150
:100900004695417050E060E070E084E60E94B302DA
:1009100010E023C140E050E0BA0184E00E94B3023D
:1009200010E01BC11091CA01112341F040E050E0DA
:10093000BA0184E00E94B30210E00FC18091C901A6
:10094000813451F118F4803441F086C0823409F4C6
:1009500043C08C3409F460C07FC08091C00190E036
:10096000A0E0B0E0481759076A077B0771F0E0EC98
:10097000F1E040831982608129818091D0019091BA
:10098000D101820F911D0E94D60E40E050E0BA01C5
:1009900084E60E94B302E1C08091C10190E0A0E032
:1009A000B0E0481759076A077B0779F0E0ECF1E0FF
:1009B000418381E08983618129818091D001909177
:1009C000D101820F911D0E94D60E40E050E0BA0185
:1009D00084E60E94B302C1C08091C20190E0A0E011
:1009E000B0E0481759076A077B0779F0E0ECF1E0BF
:1009F000428382E08983628129818091D001909134
:100A0000D101820F911D0E94D60E40E050E0BA0144
:100A100084E60E94B302A1C08091C40190E0A0E0EE
:100A2000B0E0481759076A077B0779F0E0ECF1E07E
:100A3000448384E08983648129818091D0019091ED
:100A4000D101820F911D0E94D60E40E050E0BA0104
:100A500084E60E94B30281C040E050E0BA0184E025
:100A60000E94B3027AC01091CA01112341F040E004
:100A700050E0BA0184E00E94B30210E06EC08091A1
:100A8000C901813449F018F4803409F129C0823455
:100A900061F08C3499F024C04091C10150E060E0D5
:100AA00070E084E60E94B30258C04091C20150E059
:100AB00060E070E084E60E94B3024FC04091C40140
:100AC00050E060E070E084E60E94B30246C04091CE
:100AD000C00150E060E070E084E60E94B3023DC0D7
:100AE00040E050E0BA0184E00E94B30236C01091A9
:100AF000C901111115C0E7EBF1E08091D2018083AB
:100B000081E3818390E3928322E32383848336E528
:100B1000358386832783908781E0809353011DC0AE
:100B200040E450E360E270E184E60E94B30210E02A
:100B300014C087E090E00E947700AC01990F660B2B
:100B4000770B84E60E94B30210E007C040E050E05B
:100B5000BA0182E00E94B30210E0812F0F90DF9172
:100B6000CF911F910F91089540E050E0BA0184E6C3
:100B70000E94B302089590915E019F5F9F77E92FD5
:100B8000F0E0E450FD4F808190935E0108959091D4
:100B90005D019F5F9F77E92FF0E0E450FD4F808378
:100BA00090935D01089590915C01E92FF0E0ED5282
:100BB000FE4F80819F5F90935C0108958091550165
:100BC00080FD0BC08091550181608093550110928A
:100BD0005C010E94D3058093C6000895882331F0FC
:100BE000E1ECF0E08081806880830895E1ECF0E042
:100BF00080818F7780830895882331F0E1ECF0E0E5
:100C00008081806480830895E1ECF0E080818F7BB7
:100C1000808308951F920F920FB60F9211242F9385
:100C20003F934F935F936F937F938F939F93AF9374
:100C3000BF93EF93FF9385E0809357018091C000AD
:100C400090915601892B809356018091C6000E9495
:100C5000C705FF91EF91BF91AF919F918F917F91C8
:100C60006F915F914F913F912F910F900FBE0F9019
:100C70001F9018951F920F920FB60F9211242F9369
:100C80003F934F935F936F937F938F939F93AF9314
:100C9000BF93EF93FF938091550180FF0EC0809129
:100CA0005C01893030F0809155018E7F8093550131
:100CB00004C00E94D3058093C600FF91EF91BF91BD
:100CC000AF919F918F917F916F915F914F913F91E4
:100CD0002F910F900FBE0F901F90189587E0809373
:100CE000C400E1ECF0E080818861808381E00E94B3
:100CF000EE0581E00E94FC05109256010895CF9206
:100D0000DF92FF920F931F93CF93DF9380915B014C
:100D100090915A01981741F19091550190FD24C08E
:100D20008F5F482F4F71842F90E09C01220F331F5B
:100D3000220F331F220F331F280F391F24583C4F17
:100D4000B901675F7F4FF901DF01A21BB30B8191EE
:100D5000AD52BE4F8C93E617F707B1F740935B0196
:100D600010925C010E94DE058091550183FD56C002
:100D700080915D0190915E01891B8F77893008F425
:100D80004DC0F090580181E08F0D8F71F82E082F23
:100D900010E0E801CC0FDD1FCC0FDD1FCC0FDD1FF5
:100DA000C00FD11FC452DE4F6E0189E0C80ED11CA6
:100DB0000E94BB058993CC15DD05D1F7EF2DF0E03E
:100DC000CF01880F991F880F991F880F991FE80F6F
:100DD000F91FE452FE4F90E080E02191920F8F5F67
:100DE0008830D9F7F801EE0FFF1FEE0FFF1FEE0F4F
:100DF000FF1F0E0F1F1FF801E452FE4F808589135D
:100E000008C080915501886080935501F092580187
:100E100005C080915501806180935501DF91CF918C
:100E20001F910F91FF90DF90CF900895809157010F
:100E3000882341F08091570181508093570110928F
:100E40005401089580915401811107C080915D0182
:100E500080935E0181E0809354010895809159014F
:100E60008F5F8F7190E09C01220F331F220F331F81
:100E7000220F331F820F931F84529E4F089590912B
:100E800059019F5F9F719093590180915801891B6F
:100E90008F7129F490915501977F90935501089592
:100EA00040915A014F5F4F71DC01242F30E0F9016E
:100EB000EE0FFF1FEE0FFF1FEE0FFF1FE20FF31FDE
:100EC000E458FC4F2F5F3F4FC901880F991F880FCF
:100ED000991F880F991F280F391F24583C4F8D9157
:100EE0008193E217F307D9F740935A01089580914F
:100EF000690190916A01891B8F7108959091690130
:100F000080916A01981307C080915F018860809387
:100F10005F0180E0089590916A019F5F9F71E92FC2
:100F2000F0E0EB53FA4F808190936A01089520918D
:100F3000690140916A0130E02F5F3F4F2F713327E5
:100F400050E02417350731F480915F01846080936D
:100F50005F010895909169019F5F9F71E92FF0E013
:100F6000EB53FA4F80839093690108958091680153
:100F7000893038F080915F01826080935F0180E06A
:100F80000895E0916801F0E0E456FB4F8081909174
:100F900068019F5F9093680108958091600180FDD2
:100FA00011C080916001816080936001E9ECF0E004
:100FB00080818F7E80835C9A109268010E94B607C0
:100FC0008093CE000895882331F0E9ECF0E0808131
:100FD000806880830895E9ECF0E080818F778083DA
:100FE0000895882331F0E9ECF0E08081806480830B
:100FF0000895E9ECF0E080818F7B808308951F9253
:101000000F920FB60F9211242F933F934F935F933C
:101010006F937F938F939F93AF93BF93EF93FF93C0
:1010200085E0809363018091C80090916101892BD4
:10103000809361018091CE000E949707FF91EF910C
:10104000BF91AF919F918F917F916F915F914F91E0
:101050003F912F910F900FBE0F901F9018951F92E8
:101060000F920FB60F9211242F933F934F935F93DC
:101070006F937F938F939F93AF93BF93EF93FF9360
:101080008091600180FF1CC0809168018930A0F0D0
:10109000809160018E7F8093600182E38093620182
:1010A000809160018460809360015C98E9ECF0E0DD
:1010B00080818061808304C00E94B6078093CE0047
:1010C000FF91EF91BF91AF919F918F917F916F9120
:1010D0005F914F913F912F910F900FBE0F901F90F6
:1010E000189587E18093CC00E9ECF0E0808188617D
:1010F000808381E00E94E30781E00E94F107109263
:1011000061010895BF92CF92DF92EF92FF920F9309
:101110001F93CF93DF938091670190916601981799
:1011200059F19091600190FD27C09091600192FD6E
:1011300023C08F5F8F70282F30E0A901440F551F07
:10114000440F551F440F551F240F351F2B553B4F80
:1011500080936701A901475F5F4FF901DF01A21B7F
:10116000B30B8191A456BB4F8C93E417F507B1F7ED
:10117000109268010E94CD078091600183FD64C0D8
:101180000E947707893008F45FC0B090640181E065
:101190008B0D8F70B82EE82EF12CE701CC0FDD1FE0
:1011A000CC0FDD1FCC0FDD1FCE0DDF1DCB5CDA4F6A
:1011B0002FEFE21AF20AC701880F991F880F991FB3
:1011C000880F991F8E0D9F1D9C012B5C3A4F790152
:1011D000CB2CD12C86010E947E078993CE15DF058A
:1011E000C9F7B0926401F601EE0FFF1FEE0FFF1F6B
:1011F000EE0FFF1FEC0DFD1DEB5CFA4F90E080E061
:101200002191920F8F5F8830D9F7F801EE0FFF1F01
:10121000EE0FFF1FEE0FFF1F0E0F1F1FF801EB5CFD
:10122000FA4F808589130BC080916001886080939C
:101230006001809160018B7F8093600105C0809187
:101240006001806180936001DF91CF911F910F91C8
:10125000FF90EF90DF90CF90BF9008958091600154
:1012600082FF0EC080916201815080936201809163
:101270006201811105C0809160018B7F80936001C4
:1012800080916301882331F08091630181508093C4
:10129000630108958091690180936A0108958091A6
:1012A000650190916401981308C080915F01806886
:1012B00080935F0180E090E008958F5F8F7090E0F1
:1012C0009C01220F331F220F331F220F331F820F67
:1012D000931F8B5C9A4F0895909165019F5F9F705B
:1012E0009093650180916401891B8F7029F490911E
:1012F0006001977F909360010895CF93DF93FC0185
:1013000040916601842F90E001968F70992720917B
:10131000670130E08217930731F480915F018061AB
:1013200080935F012BC04F5F4F70842F90E0DC01F2
:10133000AA0FBB1FAA0FBB1FAA0FBB1FA80FB91F65
:10134000AB55BB4FEF01289680E0642F70E09B0106
:1013500090819D939191890FEC17FD07C1F7FB01D7
:10136000EE0FFF1FEE0FFF1FEE0FFF1F2E0F3F1F91
:10137000F901EB55FB4F808740936601DF91CF91D8
:10138000089590E08B30910580F5FC01E25CFF4F01
:101390000C941F0C8FE58093CC0008958FE380930D
:1013A000CC0008958FE28093CC0008958FE1809364
:1013B000CC00089587E18093CC0008958FE080935E
:1013C000CC0008958BE08093CC00089587E0809353
:1013D000CC00089583E08093CC00089582E0809350
:1013E000CC0008951092CC0008958FE28093CC0039
:1013F00008951F920F920FB60F9211248F9381E0E0
:1014000080936B018F910F900FBE0F901F901895D6
:101410001F920F920FB60F9211248F9381E0809349
:101420006B018F910F900FBE0F901F9018951F9218
:101430000F920FB60F9211248F9381E080936B016E
:101440008F910F900FBE0F901F90189580916B0198
:10145000882331F010926B010E9416070E942E091A
:1014600008958AE18AB90E946E060E9471080E945E
:1014700068000E94630281EC99E09093520180938E
:10148000510180E190E00E947E020E9471017894F7
:101490000895CF93DF93CDB7DEB72C970FB6F894AE
:1014A000DEBF0FBECDBF0E94310A0E9424020E94FF
:1014B000E1010E94F1010E94010260E085E00E94CA
:1014C000D00180E091E00E94150262E080E00E947D
:1014D000D00186E191E00E94150263E080E00E9465
:1014E000D0018DE191E00E94150264E080E00E944D
:1014F000D00184E291E00E94150265E080E00E9444
:10150000D00189E291E00E94150266E080E00E942D
:10151000D0018EE291E00E94150267E080E00E9417
:10152000D00184E391E00E94150268E080E00E940F
:10153000D0018AE391E00E94150269E080E00E94F8
:10154000D00183E491E00E94150210E00F2EFCE42C
:10155000CF2EF1E0DF2EF02DCE0101967C010E940E
:1015600076010E94260A0E947F060E9482089091BE
:101570006B019923A1F3133310F41F5FF0CF84E0C4
:101580000E9477008C011F938F93DF92CF92FF927E
:10159000EF920E94250C63E080E00E94D001C70119
:1015A0000E941502B80180E090E00E94240B2FE118
:1015B00035E84BE45FE30E948A0B0E94F50A7F93B3
:1015C0006F93DF92CF92FF92EF920E94250C64E01E
:1015D00080E00E94D001C7010E9415020FB6F89466
:1015E000DEBF0FBECDBF10E0BACF0E94690B88F0FE
:1015F0009F5798F0B92F9927B751B0F0E1F0660FD7
:10160000771F881F991F1AF0BA95C9F714C0B13017
:1016100091F00E94830BB1E008950C94830B672F27
:10162000782F8827B85F39F0B93FCCF38695779546
:101630006795B395D9F73EF490958095709561952F
:101640007F4F8F4F9F4F0895E89409C097FB3EF45A
:1016500090958095709561957F4F8F4F9F4F9923FF
:10166000A9F0F92F96E9BB279395F695879577957D
:101670006795B795F111F8CFFAF4BB0F11F460FF3D
:101680001BC06F5F7F4F8F4F9F4F16C0882311F095
:1016900096E911C0772321F09EE8872F762F05C0A9
:1016A000662371F096E8862F70E060E02AF09A9544
:1016B000660F771F881FDAF7880F9695879597F939
:1016C000089557FD9058440F551F59F05F3F71F032
:1016D0004795880F97FB991F61F09F3F79F0879599
:1016E0000895121613061406551FF2CF4695F1DF22
:1016F00008C0161617061806991FF1CF86957105B2
:10170000610508940895E894BB2766277727CB01E5
:1017100097F908950E949D0B0C940E0C0E94000CEA
:1017200038F00E94070C20F0952311F00C94F70B71
:101730000C94FD0B11240C94840B0E94610B70F32C
:10174000959FC1F3950F50E0551F629FF001729F66
:10175000BB27F00DB11D639FAA27F00DB11DAA1F75
:10176000649F6627B00DA11D661F829F2227B00DC2
:10177000A11D621F739FB00DA11D621F839FA00D4D
:10178000611D221F749F3327A00D611D231F849F9D
:10179000600D211D822F762F6A2F11249F575040F4
:1017A0009AF0F1F088234AF0EE0FFF1FBB1F661F6F
:1017B000771F881F91505040A9F79E3F510580F038
:1017C0000C94F70B0C94840B5F3FE4F3983ED4F336
:1017D000869577956795B795F795E7959F5FC1F7DC
:1017E000FE2B880F911D9695879597F9089597F987
:1017F0009F6780E870E060E008959FEF80EC0895B7
:1018000000240A94161617061806090608950024DF
:101810000A9412161306140605060895092E039459
:10182000000C11F4882352F0BB0F40F4BF2B11F4CD
:1018300060FF04C06F5F7F4F8F4F9F4F0895EE0F83
:10184000FF1F0590F491E02D0994AEE0B0E0EBE2CB
:10185000FCE00C940E0F0D891E8986E08C831A83A0
:1018600009838FEF9FE79E838D83AE01475E5F4FB5
:101870006F89788DCE0101960E94480C2F813885A2
:10188000F801E20FF31F10822E96E4E00C942A0F69
:10189000ACE0B0E0EEE4FCE00C94000F7C016B01E6
:1018A0008A01FC0117821682838181FFBDC1CE01AE
:1018B00001964C01F7019381F60193FD859193FF09
:1018C00081916F01882309F4ABC1853239F493FD0E
:1018D000859193FF81916F01853229F4B70190E0E2
:1018E0000E94300EE7CF512C312C20E02032A0F4A2
:1018F0008B3269F030F4803259F0833269F4206120
:101900002CC08D3239F0803339F4216026C022603A
:10191000246023C0286021C027FD27C030ED380F88
:101920003A3078F426FF06C0FAE05F9E300D1124AD
:10193000532E13C08AE0389E300D1124332E2062BE
:101940000CC08E3221F426FD6BC1206406C08C369B
:1019500011F4206802C0883641F4F60193FD8591A8
:1019600093FF81916F018111C1CF982F9F7D955475
:10197000933028F40C5F1F4FFFE3F9830DC08336CB
:1019800031F0833771F0833509F05BC022C0F80174
:10199000808189830E5F1F4F44244394512C54014E
:1019A00015C03801F2E06F0E711CF801A080B18003
:1019B00026FF03C0652D70E002C06FEF7FEFC50109
:1019C0002C870E94250E2C0183012C852F77222E37
:1019D00017C03801F2E06F0E711CF801A080B180D1
:1019E00026FF03C0652D70E002C06FEF7FEFC501D9
:1019F0002C870E941A0E2C012C852068222E830130
:101A000023FC1BC0832D90E048165906B0F4B701A3
:101A100080E290E00E94300E3A94F4CFF50127FC6A
:101A2000859127FE81915F01B70190E00E94300E01
:101A300031103A94F1E04F1A51084114510471F7F2
:101A4000E5C0843611F0893639F5F80127FF07C063
:101A500060817181828193810C5F1F4F08C060811A
:101A60007181072E000C880B990B0E5F1F4F2F768C
:101A7000722E97FF09C090958095709561957F4F64
:101A80008F4F9F4F2068722E2AE030E0A4010E9401
:101A9000680EA82EA81844C0853729F42F7EB22ED0
:101AA0002AE030E025C0F22FF97FBF2E8F36C1F03B
:101AB00018F4883579F0B4C0803719F0883721F0F0
:101AC000AFC02F2F2061B22EB4FE0DC08B2D8460CD
:101AD000B82E09C024FF0AC09F2F9660B92E06C0F9
:101AE00028E030E005C020E130E002C020E132E033
:101AF000F801B7FE07C060817181828193810C5F1C
:101B00001F4F06C06081718180E090E00E5F1F4F23
:101B1000A4010E94680EA82EA818FB2DFF777F2E27
:101B200076FE0BC0372D3E7FA51450F474FE0AC01C
:101B300072FC08C0372D3E7E05C0BA2C372D03C07D
:101B4000BA2C01C0B52C34FF0DC0FE01EA0DF11D09
:101B50008081803311F4397E09C032FF06C0B3940E
:101B6000B39404C0832F867809F0B39433FD13C077
:101B700030FF06C05A2CB31418F4530C5B18B32C66
:101B8000B31468F4B70180E290E03C870E94300E05
:101B9000B3943C85F5CFB31410F43B1801C0312C3D
:101BA00034FF12C0B70180E390E03C870E94300E02
:101BB0003C8532FF17C031FD03C088E790E002C0CA
:101BC00088E590E0B7010CC0832F867859F031FF8B
:101BD00002C08BE201C080E237FD8DE2B70190E0E8
:101BE0000E94300EA51438F4B70180E390E00E9403
:101BF000300E5A94F7CFAA94F401EA0DF11D8081BA
:101C0000B70190E00E94300EA110F5CF332009F407
:101C100051CEB70180E290E00E94300E3A94F6CFA8
:101C2000F7018681978102C08FEF9FEF2C96E2E14A
:101C30000C941C0FFC010590615070400110D8F706
:101C4000809590958E0F9F1F0895FC016150704004
:101C500001900110D8F7809590958E0F9F1F0895E1
:101C60000F931F93CF93DF93FB01238121FD03C0CB
:101C70008FEF9FEF28C022FF16C046815781248135
:101C800035814217530744F4A081B1819D012F5F34
:101C90003F4F318320838C93268137812F5F3F4FC5
:101CA0003783268310C0EB01092F182F0084F1859C
:101CB000E02D0995892BE1F68E819F8101969F8306
:101CC0008E83812F902FDF91CF911F910F910895D7
:101CD000FA01AA27283051F1203181F1E8946F935D
:101CE0006E7F6E5F7F4F8F4F9F4FAF4FB1E03ED003
:101CF000B4E03CD0670F781F891F9A1FA11D680FA1
:101D0000791F8A1F911DA11D6A0F711D811D911DD3
:101D1000A11D20D009F468943F912AE0269F112448
:101D20003019305D3193DEF6CF010895462F4770AC
:101D3000405D4193B3E00FD0C9F7F6CF462F4F7007
:101D4000405D4A3318F0495D31FD4052419302D065
:101D5000A9F7EACFB4E0A69597958795779567950B
:101D6000BA95C9F700976105710508959B01AC010B
:101D70000A2E06945795479537952795BA95C9F732
:101D8000620F731F841F951FA01D0895DC01CB01F6
:101D9000FC01F999FECF06C0F2BDE1BDF89A31967B
:101DA00000B40D9241505040B8F70895262FF9998C
:101DB000FECF92BD81BDF89A019700B4021639F0AA
:101DC0001FBA20BD0FB6F894FA9AF99A0FBE08957B
:101DD000DC01CB0103C02D910E94F30E4150504015
:101DE000D0F70895262FF999FECF1FBA92BD81BD75
:101DF00020BD0FB6F894FA9AF99A0FBE019608958D
:101E00002F923F924F925F926F927F928F929F920A
:101E1000AF92BF92CF92DF92EF92FF920F931F93F8
:101E2000CF93DF93CDB7DEB7CA1BDB0B0FB6F894A9
:101E3000DEBF0FBECDBF09942A88398848885F84E9
:101E40006E847D848C849B84AA84B984C884DF805A
:101E5000EE80FD800C811B81AA81B981CE0FD11D3E
:101E60000FB6F894DEBF0FBECDBFED010895F89414
:021E7000FFCFA2
:101E720041746F6D5472616365202D205363692D27
:101E82005472616365004275732D413A0042757365
:101E92002D423A005553423A002B35563A002B3127
:101EA20032563A002D3132563A002B3234562D42F8
:101EB200503A002B3234562D524A3A00256900001E
:00000001FF
